{
  "_format": "hh-sol-artifact-1",
  "contractName": "ERC20Staking",
  "sourceName": "contracts/ERC20Staking.sol",
  "abi": [
    {
      "inputs": [
        {
          "internalType": "address",
          "name": "tokenAddress_",
          "type": "address"
        }
      ],
      "stateMutability": "nonpayable",
      "type": "constructor"
    },
    {
      "anonymous": false,
      "inputs": [
        {
          "indexed": false,
          "internalType": "address",
          "name": "delegator",
          "type": "address"
        },
        {
          "indexed": false,
          "internalType": "uint256",
          "name": "roundIndex",
          "type": "uint256"
        },
        {
          "indexed": false,
          "internalType": "uint256",
          "name": "tokenId",
          "type": "uint256"
        },
        {
          "indexed": false,
          "internalType": "uint256",
          "name": "amount",
          "type": "uint256"
        }
      ],
      "name": "Claim",
      "type": "event"
    },
    {
      "anonymous": false,
      "inputs": [
        {
          "indexed": false,
          "internalType": "address",
          "name": "delegator",
          "type": "address"
        },
        {
          "indexed": false,
          "internalType": "uint256",
          "name": "roundIndex",
          "type": "uint256"
        },
        {
          "indexed": false,
          "internalType": "uint256",
          "name": "amount",
          "type": "uint256"
        }
      ],
      "name": "ClaimRound",
      "type": "event"
    },
    {
      "anonymous": false,
      "inputs": [
        {
          "indexed": false,
          "internalType": "uint256",
          "name": "startTime",
          "type": "uint256"
        },
        {
          "indexed": false,
          "internalType": "uint256",
          "name": "duration",
          "type": "uint256"
        },
        {
          "indexed": false,
          "internalType": "uint256",
          "name": "endTime",
          "type": "uint256"
        },
        {
          "indexed": false,
          "internalType": "uint256",
          "name": "amountAllocated",
          "type": "uint256"
        },
        {
          "indexed": false,
          "internalType": "uint256",
          "name": "amountClaimed",
          "type": "uint256"
        }
      ],
      "name": "CreateRound",
      "type": "event"
    },
    {
      "anonymous": false,
      "inputs": [
        {
          "indexed": false,
          "internalType": "address",
          "name": "delegator",
          "type": "address"
        },
        {
          "indexed": false,
          "internalType": "uint256",
          "name": "amount",
          "type": "uint256"
        },
        {
          "indexed": false,
          "internalType": "uint256",
          "name": "depositTime",
          "type": "uint256"
        },
        {
          "indexed": false,
          "internalType": "uint256",
          "name": "withdrawlTime",
          "type": "uint256"
        }
      ],
      "name": "DepositERC20",
      "type": "event"
    },
    {
      "anonymous": false,
      "inputs": [
        {
          "indexed": false,
          "internalType": "uint256",
          "name": "roundIndex",
          "type": "uint256"
        },
        {
          "indexed": false,
          "internalType": "uint256",
          "name": "amount",
          "type": "uint256"
        }
      ],
      "name": "DepositFunds",
      "type": "event"
    },
    {
      "anonymous": false,
      "inputs": [
        {
          "indexed": true,
          "internalType": "address",
          "name": "previousOwner",
          "type": "address"
        },
        {
          "indexed": true,
          "internalType": "address",
          "name": "newOwner",
          "type": "address"
        }
      ],
      "name": "OwnershipTransferred",
      "type": "event"
    },
    {
      "anonymous": false,
      "inputs": [
        {
          "indexed": false,
          "internalType": "uint256",
          "name": "amount",
          "type": "uint256"
        }
      ],
      "name": "RescuedETH",
      "type": "event"
    },
    {
      "anonymous": false,
      "inputs": [
        {
          "indexed": true,
          "internalType": "bytes32",
          "name": "role",
          "type": "bytes32"
        },
        {
          "indexed": true,
          "internalType": "bytes32",
          "name": "previousAdminRole",
          "type": "bytes32"
        },
        {
          "indexed": true,
          "internalType": "bytes32",
          "name": "newAdminRole",
          "type": "bytes32"
        }
      ],
      "name": "RoleAdminChanged",
      "type": "event"
    },
    {
      "anonymous": false,
      "inputs": [
        {
          "indexed": true,
          "internalType": "bytes32",
          "name": "role",
          "type": "bytes32"
        },
        {
          "indexed": true,
          "internalType": "address",
          "name": "account",
          "type": "address"
        },
        {
          "indexed": true,
          "internalType": "address",
          "name": "sender",
          "type": "address"
        }
      ],
      "name": "RoleGranted",
      "type": "event"
    },
    {
      "anonymous": false,
      "inputs": [
        {
          "indexed": true,
          "internalType": "bytes32",
          "name": "role",
          "type": "bytes32"
        },
        {
          "indexed": true,
          "internalType": "address",
          "name": "account",
          "type": "address"
        },
        {
          "indexed": true,
          "internalType": "address",
          "name": "sender",
          "type": "address"
        }
      ],
      "name": "RoleRevoked",
      "type": "event"
    },
    {
      "anonymous": false,
      "inputs": [
        {
          "indexed": false,
          "internalType": "uint256",
          "name": "startTime",
          "type": "uint256"
        },
        {
          "indexed": false,
          "internalType": "uint256",
          "name": "duration",
          "type": "uint256"
        },
        {
          "indexed": false,
          "internalType": "uint256",
          "name": "endTime",
          "type": "uint256"
        },
        {
          "indexed": false,
          "internalType": "uint256",
          "name": "amountAllocated",
          "type": "uint256"
        },
        {
          "indexed": false,
          "internalType": "uint256",
          "name": "amountClaimed",
          "type": "uint256"
        }
      ],
      "name": "UpdateRound",
      "type": "event"
    },
    {
      "anonymous": false,
      "inputs": [
        {
          "indexed": false,
          "internalType": "address",
          "name": "sender",
          "type": "address"
        },
        {
          "indexed": false,
          "internalType": "uint256",
          "name": "amount",
          "type": "uint256"
        }
      ],
      "name": "WithdrawERC20",
      "type": "event"
    },
    {
      "inputs": [],
      "name": "DEFAULT_ADMIN_ROLE",
      "outputs": [
        {
          "internalType": "bytes32",
          "name": "",
          "type": "bytes32"
        }
      ],
      "stateMutability": "view",
      "type": "function"
    },
    {
      "inputs": [
        {
          "internalType": "uint256",
          "name": "roundIndex",
          "type": "uint256"
        }
      ],
      "name": "amountStakedForRound",
      "outputs": [
        {
          "internalType": "uint256",
          "name": "",
          "type": "uint256"
        }
      ],
      "stateMutability": "view",
      "type": "function"
    },
    {
      "inputs": [
        {
          "internalType": "uint256",
          "name": "roundIndex",
          "type": "uint256"
        },
        {
          "internalType": "address",
          "name": "address_",
          "type": "address"
        }
      ],
      "name": "amountStakedForRoundByAddress",
      "outputs": [
        {
          "internalType": "uint256",
          "name": "",
          "type": "uint256"
        }
      ],
      "stateMutability": "view",
      "type": "function"
    },
    {
      "inputs": [
        {
          "internalType": "address",
          "name": "",
          "type": "address"
        }
      ],
      "name": "balanceOf",
      "outputs": [
        {
          "internalType": "uint256",
          "name": "",
          "type": "uint256"
        }
      ],
      "stateMutability": "view",
      "type": "function"
    },
    {
      "inputs": [
        {
          "internalType": "uint256",
          "name": "roundIndex_",
          "type": "uint256"
        }
      ],
      "name": "claimForRound",
      "outputs": [],
      "stateMutability": "nonpayable",
      "type": "function"
    },
    {
      "inputs": [
        {
          "internalType": "uint256",
          "name": "roundIndex_",
          "type": "uint256"
        },
        {
          "internalType": "uint256",
          "name": "depositIndex",
          "type": "uint256"
        }
      ],
      "name": "claimForRoundByDeposit",
      "outputs": [],
      "stateMutability": "nonpayable",
      "type": "function"
    },
    {
      "inputs": [
        {
          "internalType": "uint256",
          "name": "",
          "type": "uint256"
        },
        {
          "internalType": "uint256",
          "name": "",
          "type": "uint256"
        }
      ],
      "name": "claims",
      "outputs": [
        {
          "internalType": "uint256",
          "name": "",
          "type": "uint256"
        }
      ],
      "stateMutability": "view",
      "type": "function"
    },
    {
      "inputs": [],
      "name": "countActiveDeposits",
      "outputs": [
        {
          "internalType": "uint256",
          "name": "",
          "type": "uint256"
        }
      ],
      "stateMutability": "view",
      "type": "function"
    },
    {
      "inputs": [],
      "name": "countAllDeposits",
      "outputs": [
        {
          "internalType": "uint256",
          "name": "",
          "type": "uint256"
        }
      ],
      "stateMutability": "view",
      "type": "function"
    },
    {
      "inputs": [
        {
          "internalType": "uint256",
          "name": "roundIndex",
          "type": "uint256"
        }
      ],
      "name": "countDepositsForRound",
      "outputs": [
        {
          "internalType": "uint256",
          "name": "",
          "type": "uint256"
        }
      ],
      "stateMutability": "view",
      "type": "function"
    },
    {
      "inputs": [
        {
          "internalType": "uint256",
          "name": "roundIndex",
          "type": "uint256"
        },
        {
          "internalType": "address",
          "name": "address_",
          "type": "address"
        }
      ],
      "name": "countDepositsForRoundByAddress",
      "outputs": [
        {
          "internalType": "uint256",
          "name": "",
          "type": "uint256"
        }
      ],
      "stateMutability": "view",
      "type": "function"
    },
    {
      "inputs": [],
      "name": "countWithdrawnDeposits",
      "outputs": [
        {
          "internalType": "uint256",
          "name": "",
          "type": "uint256"
        }
      ],
      "stateMutability": "view",
      "type": "function"
    },
    {
      "inputs": [
        {
          "internalType": "uint256",
          "name": "startTime_",
          "type": "uint256"
        },
        {
          "internalType": "uint256",
          "name": "duration_",
          "type": "uint256"
        }
      ],
      "name": "createRound",
      "outputs": [],
      "stateMutability": "nonpayable",
      "type": "function"
    },
    {
      "inputs": [
        {
          "internalType": "uint256",
          "name": "roundIndex_",
          "type": "uint256"
        },
        {
          "internalType": "uint256",
          "name": "amount_",
          "type": "uint256"
        }
      ],
      "name": "depositFunds",
      "outputs": [],
      "stateMutability": "payable",
      "type": "function"
    },
    {
      "inputs": [
        {
          "internalType": "address",
          "name": "address_",
          "type": "address"
        }
      ],
      "name": "depositIndexesByAddress",
      "outputs": [
        {
          "internalType": "uint256[]",
          "name": "",
          "type": "uint256[]"
        }
      ],
      "stateMutability": "view",
      "type": "function"
    },
    {
      "inputs": [
        {
          "internalType": "uint256",
          "name": "roundIndex",
          "type": "uint256"
        }
      ],
      "name": "depositIndexesForRound",
      "outputs": [
        {
          "internalType": "uint256[]",
          "name": "",
          "type": "uint256[]"
        }
      ],
      "stateMutability": "view",
      "type": "function"
    },
    {
      "inputs": [
        {
          "internalType": "uint256",
          "name": "roundIndex",
          "type": "uint256"
        },
        {
          "internalType": "address",
          "name": "address_",
          "type": "address"
        }
      ],
      "name": "depositIndexesForRoundByAddress",
      "outputs": [
        {
          "internalType": "uint256[]",
          "name": "",
          "type": "uint256[]"
        }
      ],
      "stateMutability": "view",
      "type": "function"
    },
    {
      "inputs": [
        {
          "internalType": "uint256",
          "name": "amount",
          "type": "uint256"
        }
      ],
      "name": "depositToken",
      "outputs": [],
      "stateMutability": "nonpayable",
      "type": "function"
    },
    {
      "inputs": [
        {
          "internalType": "uint256",
          "name": "",
          "type": "uint256"
        }
      ],
      "name": "deposits",
      "outputs": [
        {
          "internalType": "address",
          "name": "delegator",
          "type": "address"
        },
        {
          "internalType": "uint256",
          "name": "amount",
          "type": "uint256"
        },
        {
          "internalType": "uint256",
          "name": "depositTime",
          "type": "uint256"
        },
        {
          "internalType": "uint256",
          "name": "withdrawlTime",
          "type": "uint256"
        }
      ],
      "stateMutability": "view",
      "type": "function"
    },
    {
      "inputs": [
        {
          "internalType": "uint256",
          "name": "roundIndex",
          "type": "uint256"
        },
        {
          "internalType": "address",
          "name": "address_",
          "type": "address"
        }
      ],
      "name": "ethAllocForRoundByAddress",
      "outputs": [
        {
          "internalType": "uint256",
          "name": "",
          "type": "uint256"
        }
      ],
      "stateMutability": "view",
      "type": "function"
    },
    {
      "inputs": [
        {
          "internalType": "uint256",
          "name": "roundIndex",
          "type": "uint256"
        },
        {
          "internalType": "uint256",
          "name": "depositIndex",
          "type": "uint256"
        }
      ],
      "name": "ethAllocForRoundByDeposit",
      "outputs": [
        {
          "internalType": "uint256",
          "name": "",
          "type": "uint256"
        }
      ],
      "stateMutability": "view",
      "type": "function"
    },
    {
      "inputs": [
        {
          "internalType": "uint256",
          "name": "roundIndex",
          "type": "uint256"
        },
        {
          "internalType": "address",
          "name": "address_",
          "type": "address"
        }
      ],
      "name": "ethClaimedForRoundByAddress",
      "outputs": [
        {
          "internalType": "uint256",
          "name": "",
          "type": "uint256"
        }
      ],
      "stateMutability": "view",
      "type": "function"
    },
    {
      "inputs": [
        {
          "internalType": "uint256",
          "name": "roundIndex",
          "type": "uint256"
        },
        {
          "internalType": "uint256",
          "name": "depositIndex",
          "type": "uint256"
        }
      ],
      "name": "ethClaimedForRoundByDeposit",
      "outputs": [
        {
          "internalType": "uint256",
          "name": "",
          "type": "uint256"
        }
      ],
      "stateMutability": "view",
      "type": "function"
    },
    {
      "inputs": [
        {
          "internalType": "uint256",
          "name": "roundIndex",
          "type": "uint256"
        },
        {
          "internalType": "address",
          "name": "address_",
          "type": "address"
        }
      ],
      "name": "ethUnclaimedForRoundByAddress",
      "outputs": [
        {
          "internalType": "uint256",
          "name": "",
          "type": "uint256"
        }
      ],
      "stateMutability": "view",
      "type": "function"
    },
    {
      "inputs": [
        {
          "internalType": "uint256",
          "name": "roundIndex",
          "type": "uint256"
        },
        {
          "internalType": "uint256",
          "name": "depositIndex",
          "type": "uint256"
        }
      ],
      "name": "ethUnclaimedForRoundByDeposit",
      "outputs": [
        {
          "internalType": "uint256",
          "name": "",
          "type": "uint256"
        }
      ],
      "stateMutability": "view",
      "type": "function"
    },
    {
      "inputs": [
        {
          "internalType": "bytes32",
          "name": "role",
          "type": "bytes32"
        }
      ],
      "name": "getRoleAdmin",
      "outputs": [
        {
          "internalType": "bytes32",
          "name": "",
          "type": "bytes32"
        }
      ],
      "stateMutability": "view",
      "type": "function"
    },
    {
      "inputs": [
        {
          "internalType": "bytes32",
          "name": "role",
          "type": "bytes32"
        },
        {
          "internalType": "address",
          "name": "account",
          "type": "address"
        }
      ],
      "name": "grantRole",
      "outputs": [],
      "stateMutability": "nonpayable",
      "type": "function"
    },
    {
      "inputs": [
        {
          "internalType": "bytes32",
          "name": "role",
          "type": "bytes32"
        },
        {
          "internalType": "address",
          "name": "account",
          "type": "address"
        }
      ],
      "name": "hasRole",
      "outputs": [
        {
          "internalType": "bool",
          "name": "",
          "type": "bool"
        }
      ],
      "stateMutability": "view",
      "type": "function"
    },
    {
      "inputs": [],
      "name": "nbRounds",
      "outputs": [
        {
          "internalType": "uint256",
          "name": "",
          "type": "uint256"
        }
      ],
      "stateMutability": "view",
      "type": "function"
    },
    {
      "inputs": [],
      "name": "owner",
      "outputs": [
        {
          "internalType": "address",
          "name": "",
          "type": "address"
        }
      ],
      "stateMutability": "view",
      "type": "function"
    },
    {
      "inputs": [],
      "name": "renounceOwnership",
      "outputs": [],
      "stateMutability": "nonpayable",
      "type": "function"
    },
    {
      "inputs": [
        {
          "internalType": "bytes32",
          "name": "role",
          "type": "bytes32"
        },
        {
          "internalType": "address",
          "name": "account",
          "type": "address"
        }
      ],
      "name": "renounceRole",
      "outputs": [],
      "stateMutability": "nonpayable",
      "type": "function"
    },
    {
      "inputs": [
        {
          "internalType": "uint256",
          "name": "amount",
          "type": "uint256"
        }
      ],
      "name": "rescueETH",
      "outputs": [],
      "stateMutability": "nonpayable",
      "type": "function"
    },
    {
      "inputs": [
        {
          "internalType": "bytes32",
          "name": "role",
          "type": "bytes32"
        },
        {
          "internalType": "address",
          "name": "account",
          "type": "address"
        }
      ],
      "name": "revokeRole",
      "outputs": [],
      "stateMutability": "nonpayable",
      "type": "function"
    },
    {
      "inputs": [
        {
          "internalType": "uint256",
          "name": "",
          "type": "uint256"
        }
      ],
      "name": "rounds",
      "outputs": [
        {
          "internalType": "uint256",
          "name": "startTime",
          "type": "uint256"
        },
        {
          "internalType": "uint256",
          "name": "duration",
          "type": "uint256"
        },
        {
          "internalType": "uint256",
          "name": "endTime",
          "type": "uint256"
        },
        {
          "internalType": "uint256",
          "name": "amountAllocated",
          "type": "uint256"
        },
        {
          "internalType": "uint256",
          "name": "amountClaimed",
          "type": "uint256"
        }
      ],
      "stateMutability": "view",
      "type": "function"
    },
    {
      "inputs": [
        {
          "internalType": "bytes4",
          "name": "interfaceId",
          "type": "bytes4"
        }
      ],
      "name": "supportsInterface",
      "outputs": [
        {
          "internalType": "bool",
          "name": "",
          "type": "bool"
        }
      ],
      "stateMutability": "view",
      "type": "function"
    },
    {
      "inputs": [],
      "name": "token",
      "outputs": [
        {
          "internalType": "contract IERC20",
          "name": "",
          "type": "address"
        }
      ],
      "stateMutability": "view",
      "type": "function"
    },
    {
      "inputs": [],
      "name": "totalSupply",
      "outputs": [
        {
          "internalType": "uint256",
          "name": "",
          "type": "uint256"
        }
      ],
      "stateMutability": "view",
      "type": "function"
    },
    {
      "inputs": [
        {
          "internalType": "address",
          "name": "newOwner",
          "type": "address"
        }
      ],
      "name": "transferOwnership",
      "outputs": [],
      "stateMutability": "nonpayable",
      "type": "function"
    },
    {
      "inputs": [
        {
          "internalType": "uint256",
          "name": "roundIndex_",
          "type": "uint256"
        },
        {
          "internalType": "uint256",
          "name": "startTime_",
          "type": "uint256"
        },
        {
          "internalType": "uint256",
          "name": "duration_",
          "type": "uint256"
        }
      ],
      "name": "updateRound",
      "outputs": [],
      "stateMutability": "nonpayable",
      "type": "function"
    },
    {
      "inputs": [
        {
          "internalType": "uint256",
          "name": "roundIndex",
          "type": "uint256"
        },
        {
          "internalType": "uint256",
          "name": "depositIndex",
          "type": "uint256"
        }
      ],
      "name": "weightedAverageForDeposit",
      "outputs": [
        {
          "internalType": "uint256",
          "name": "",
          "type": "uint256"
        }
      ],
      "stateMutability": "view",
      "type": "function"
    },
    {
      "inputs": [
        {
          "internalType": "uint256",
          "name": "roundIndex",
          "type": "uint256"
        },
        {
          "internalType": "address",
          "name": "address_",
          "type": "address"
        }
      ],
      "name": "weightedAverageForRoundByAddress",
      "outputs": [
        {
          "internalType": "uint256",
          "name": "",
          "type": "uint256"
        }
      ],
      "stateMutability": "view",
      "type": "function"
    },
    {
      "inputs": [],
      "name": "withdrawToken",
      "outputs": [],
      "stateMutability": "nonpayable",
      "type": "function"
    },
    {
      "stateMutability": "payable",
      "type": "receive"
    }
  ],
  "bytecode": "0x608060405260001960045560006006553480156200001c57600080fd5b5060405162003044380380620030448339810160408190526200003f91620001e5565b6200004a336200010c565b620000576000336200015c565b60016003556001600160a01b038116620000cb5760405162461bcd60e51b815260206004820152602b60248201527f45524332305374616b696e673a2045524332302063616e206e6f74206265206160448201526a646472657373207a65726f60a81b606482015260840160405180910390fd5b600580546001600160a01b0319166001600160a01b038316179055620001056000620000ff6000546001600160a01b031690565b6200015c565b5062000217565b600080546001600160a01b038381166001600160a01b0319831681178455604051919092169283917f8be0079c531659141344cd1fd0a4f28419497f9722a3daafe3b4186f6b6457e09190a35050565b60008281526001602090815260408083206001600160a01b038516845290915290205460ff16620001e15760008281526001602081815260408084206001600160a01b0386168086529252808420805460ff19169093179092559051339285917f2f8788117e7eff1d82e926ec794901d17c78024a50270940304540a733656f0d9190a45b5050565b600060208284031215620001f857600080fd5b81516001600160a01b03811681146200021057600080fd5b9392505050565b612e1d80620002276000396000f3fe6080604052600436106102605760003560e01c806384e6dd9511610144578063b02c43d0116100b6578063e6abc7891161007a578063e6abc78914610770578063ecf0a76b14610785578063f2f8ffa61461079a578063f2fde38b146107ba578063f894160e146107da578063fc0c546a1461081257600080fd5b8063b02c43d0146106cb578063b883457c146106fb578063c6e1e7321461071b578063ca628c781461073b578063d547741f1461075057600080fd5b8063a1215c3b11610108578063a1215c3b14610609578063a217fddf14610629578063a90bcbe51461063e578063a96ea32d14610676578063ad42ac5414610696578063aedc625d146106ab57600080fd5b806384e6dd951461052f5780638c65c81f1461054f5780638da5cb5b1461059757806391d14854146105c95780639e252f00146105e957600080fd5b806341e13d27116101dd5780636215be77116101a15780636215be771461046d5780636dfe8aaa1461048d57806370a08231146104ad578063715018a6146104da5780638177a158146104ef578063848ee75f1461050f57600080fd5b806341e13d27146103e5578063443c4b67146103fa57806353244cf51461041a5780635507219f1461043a57806361638ed51461045a57600080fd5b80632692020d116102245780632692020d146103385780632f2ff15d1461035857806334610ee61461037857806336568abe146103a5578063416227ee146103c557600080fd5b806301ffc9a71461026c5780630dd0836d146102a15780631517422f146102c357806318160ddd146102f1578063248a9ca31461030757600080fd5b3661026757005b600080fd5b34801561027857600080fd5b5061028c610287366004612a1c565b610832565b60405190151581526020015b60405180910390f35b3480156102ad57600080fd5b506102c16102bc366004612a46565b610869565b005b3480156102cf57600080fd5b506102e36102de366004612a5f565b610a31565b604051908152602001610298565b3480156102fd57600080fd5b506102e360065481565b34801561031357600080fd5b506102e3610322366004612a46565b6000908152600160208190526040909120015490565b34801561034457600080fd5b506102e3610353366004612a46565b610a8f565b34801561036457600080fd5b506102c1610373366004612a9d565b610b16565b34801561038457600080fd5b50610398610393366004612a9d565b610b41565b6040516102989190612ac9565b3480156103b157600080fd5b506102c16103c0366004612a9d565b610ced565b3480156103d157600080fd5b506102e36103e0366004612a9d565b610d6b565b3480156103f157600080fd5b506102e3610deb565b34801561040657600080fd5b506102e3610415366004612a5f565b610e2e565b34801561042657600080fd5b506102e3610435366004612a9d565b610fd7565b34801561044657600080fd5b506102e3610455366004612a9d565b611040565b6102c1610468366004612a5f565b6110b8565b34801561047957600080fd5b506102c1610488366004612a46565b611246565b34801561049957600080fd5b506102c16104a8366004612a5f565b611559565b3480156104b957600080fd5b506102e36104c8366004612b0d565b60076020526000908152604090205481565b3480156104e657600080fd5b506102c161176e565b3480156104fb57600080fd5b506102e361050a366004612a5f565b611782565b34801561051b57600080fd5b506102c161052a366004612a5f565b6117b6565b34801561053b57600080fd5b506102e361054a366004612a9d565b61192d565b34801561055b57600080fd5b5061056f61056a366004612a46565b611991565b604080519586526020860194909452928401919091526060830152608082015260a001610298565b3480156105a357600080fd5b506000546001600160a01b03165b6040516001600160a01b039091168152602001610298565b3480156105d557600080fd5b5061028c6105e4366004612a9d565b6119d2565b3480156105f557600080fd5b506102c1610604366004612a46565b6119fd565b34801561061557600080fd5b506102e3610624366004612a46565b611a49565b34801561063557600080fd5b506102e3600081565b34801561064a57600080fd5b506102e3610659366004612a5f565b600091825260096020908152604080842092845291905290205490565b34801561068257600080fd5b50610398610691366004612b0d565b611a5b565b3480156106a257600080fd5b506102e3611bd9565b3480156106b757600080fd5b506102e36106c6366004612a9d565b611c15565b3480156106d757600080fd5b506106eb6106e6366004612a46565b611c29565b6040516102989493929190612b28565b34801561070757600080fd5b50610398610716366004612a46565b611c6d565b34801561072757600080fd5b506102c1610736366004612b4e565b611e61565b34801561074757600080fd5b506102c1612105565b34801561075c57600080fd5b506102c161076b366004612a9d565b612373565b34801561077c57600080fd5b506002546102e3565b34801561079157600080fd5b506008546102e3565b3480156107a657600080fd5b506102e36107b5366004612a9d565b612399565b3480156107c657600080fd5b506102c16107d5366004612b0d565b6123fd565b3480156107e657600080fd5b506102e36107f5366004612a5f565b600960209081526000928352604080842090915290825290205481565b34801561081e57600080fd5b506005546105b1906001600160a01b031681565b60006001600160e01b03198216637965db0b60e01b148061086357506301ffc9a760e01b6001600160e01b03198316145b92915050565b60006002828154811061087e5761087e612b7a565b90600052602060002090600502019050806002015442116108ba5760405162461bcd60e51b81526004016108b190612b90565b60405180910390fd5b60006108c68333610b41565b90506000805b82518110156109de5760008382815181106108e9576108e9612b7a565b6020026020010151905060006008828154811061090857610908612b7a565b600091825260209182902060408051608081018252600490930290910180546001600160a01b03168084526001820154948401949094526002810154918301919091526003015460608201529150331461096157600080fd5b600061096d8884611782565b600089815260096020908152604080832087845290915281208054929350839290919061099b908490612be7565b92505081905550808760040160008282546109b69190612be7565b909155506109c690508186612be7565b945050505080806109d690612bfa565b9150506108cc565b506109e93382612476565b60408051338152602081018690529081018290527ffe40676cc8b72f39e6dd6a87a278f3c5a80e8092ba4ff4da20ca47079de3003f906060015b60405180910390a150505050565b60008060028481548110610a4757610a47612b7a565b90600052602060002090600502016003015490506000610a678585610e2e565b9050670de0b6b3a7640000610a7c8284612c13565b610a869190612c2a565b95945050505050565b600080610a9b83611c6d565b90506000805b8251811015610b0e576000838281518110610abe57610abe612b7a565b6020026020010151905060088181548110610adb57610adb612b7a565b90600052602060002090600402016001015483610af89190612be7565b9250508080610b0690612bfa565b915050610aa1565b509392505050565b60008281526001602081905260409091200154610b328161258f565b610b3c8383612599565b505050565b60606000610b4e84611c6d565b604080516000808252602082019092529192505b8251811015610ce4576000838281518110610b7f57610b7f612b7a565b60200260200101519050600060088281548110610b9e57610b9e612b7a565b600091825260209182902060408051608081018252600490930290910180546001600160a01b0390811680855260018301549585019590955260028201549284019290925260030154606083015290925088169003610ccf57600084516001610c079190612be7565b67ffffffffffffffff811115610c1f57610c1f612c4c565b604051908082528060200260200182016040528015610c48578160200160208202803683370190505b50905060005b8551811015610ca057858181518110610c6957610c69612b7a565b6020026020010151828281518110610c8357610c83612b7a565b602090810291909101015280610c9881612bfa565b915050610c4e565b50828160018351610cb19190612c62565b81518110610cc157610cc1612b7a565b602090810291909101015293505b50508080610cdc90612bfa565b915050610b62565b50949350505050565b6001600160a01b0381163314610d5d5760405162461bcd60e51b815260206004820152602f60248201527f416363657373436f6e74726f6c3a2063616e206f6e6c792072656e6f756e636560448201526e103937b632b9903337b91039b2b63360891b60648201526084016108b1565b610d678282612604565b5050565b600080610d788484610b41565b90506000805b8251811015610ce4576000838281518110610d9b57610d9b612b7a565b6020026020010151905060088181548110610db857610db8612b7a565b90600052602060002090600402016001015483610dd59190612be7565b9250508080610de390612bfa565b915050610d7e565b600080805b600854811015610e2857610e038161266b565b15610e165781610e1281612bfa565b9250505b80610e2081612bfa565b915050610df0565b50919050565b600080610e3a84611c6d565b9050600060028581548110610e5157610e51612b7a565b90600052602060002090600502016040518060a001604052908160008201548152602001600182015481526020016002820154815260200160038201548152602001600482015481525050905060008060008060005b8651811015610f8a576000878281518110610ec457610ec4612b7a565b60200260200101519050600060088281548110610ee357610ee3612b7a565b6000918252602080832060408051608081018252600490940290910180546001600160a01b03168452600181015492840192909252600282015483820181905260039092015460608401528b51908c0151929450610f4292909161269d565b9050610f4e8188612be7565b9650816020015188610f609190612be7565b97508b8303610f7457809450816020015195505b5050508080610f8290612bfa565b915050610ea7565b506000610f978486612c13565b8751610fa38486612c13565b610fb590670de0b6b3a7640000612c13565b610fbf9190612c13565b610fc99190612c2a565b9a9950505050505050505050565b600080610fe48484610b41565b90506000805b8251811015610ce457600083828151811061100757611007612b7a565b60200260200101519050600061101d8883610e2e565b90506110298185612be7565b93505050808061103890612bfa565b915050610fea565b60008061104d8484610b41565b90506000805b8251811015610ce457600083828151811061107057611070612b7a565b602090810291909101810151600089815260098352604080822083835290935291909120549091506110a29084612be7565b92505080806110b090612bfa565b915050611053565b60006110c38161258f565b600254831061111e5760405162461bcd60e51b815260206004820152602160248201527f45524332305374616b696e673a20726f756e6420646f65736e277420657869736044820152601d60fa1b60648201526084016108b1565b6000341161116e5760405162461bcd60e51b815260206004820181905260248201527f45524332305374616b696e673a204d75737420696e636c7564652066756e647360448201526064016108b1565b3482146111cc5760405162461bcd60e51b815260206004820152602660248201527f45524332305374616b696e673a2046756e647320646f6e2774206d6174636820604482015265185b5bdd5b9d60d21b60648201526084016108b1565b6000600284815481106111e1576111e1612b7a565b90600052602060002090600502019050348160030160008282546112059190612be7565b909155505060038101546040805186815260208101929092527fc30d09038cdea01854d3b58940393d97d881e83f40ddc3a8225f32e76b584b149101610a23565b6002600354036112985760405162461bcd60e51b815260206004820152601f60248201527f5265656e7472616e637947756172643a207265656e7472616e742063616c6c0060448201526064016108b1565b60026003556005546040516370a0823160e01b815233600482015282916001600160a01b0316906370a0823190602401602060405180830381865afa1580156112e5573d6000803e3d6000fd5b505050506040513d601f19601f820116820180604052508101906113099190612c75565b101561136d5760405162461bcd60e51b815260206004820152602d60248201527f45524332305374616b696e673a2063616e2774206465706f736974206d6f726560448201526c103a3430b7103cb7ba9037bbb760991b60648201526084016108b1565b6005546040516323b872dd60e01b8152336004820152306024820152604481018390526001600160a01b03909116906323b872dd906064016020604051808303816000875af11580156113c4573d6000803e3d6000fd5b505050506040513d601f19601f820116820180604052508101906113e89190612c8e565b5080600660008282546113fb9190612be7565b9091555050336000908152600760205260408120805483929061141f908490612be7565b9091555050604080516080810182523381526020810183815242828401908152600480546060850190815260088054600181018255600091909152855192027ff3f7a9fe364faab93b216da50a3214154f22a0a2b415b23a84c8169e8b636ee3810180546001600160a01b0385166001600160a01b031990911617905593517ff3f7a9fe364faab93b216da50a3214154f22a0a2b415b23a84c8169e8b636ee4850181905592517ff3f7a9fe364faab93b216da50a3214154f22a0a2b415b23a84c8169e8b636ee5850181905590517ff3f7a9fe364faab93b216da50a3214154f22a0a2b415b23a84c8169e8b636ee6909401849055945193947f671f7c71634bb58a69d818c598151563dd0a47f03edb950e59c85246fa9ceea8946115489492939290612b28565b60405180910390a150506001600355565b60006002838154811061156e5761156e612b7a565b90600052602060002090600502019050806002015442116115a15760405162461bcd60e51b81526004016108b190612b90565b6000600883815481106115b6576115b6612b7a565b600091825260209182902060408051608081018252600490930290910180546001600160a01b0316808452600182015494840194909452600281015491830191909152600301546060820152915033146116665760405162461bcd60e51b815260206004820152602b60248201527f45524332305374616b696e673a2073656e646572206973206e6f74207468652060448201526a3a37b5b2b71037bbb732b960a91b60648201526084016108b1565b60006116728585611782565b9050600081116116d45760405162461bcd60e51b815260206004820152602760248201527f45524332305374616b696e673a207468657265206973206e6f7468696e6720746044820152666f20636c61696d60c81b60648201526084016108b1565b81516116e09082612476565b600085815260096020908152604080832087845290915281208054839290611709908490612be7565b92505081905550808360040160008282546117249190612be7565b909155505081516040517f45c072aa05b9853b5a993de7a28bc332ee01404a628cec1a23ce0f659f842ef19161175f91889088908690612b28565b60405180910390a15050505050565b6117766126bd565b6117806000612717565b565b60008061178f8484610a31565b6000858152600960209081526040808320878452909152902054909150610a868183612c62565b60006117c18161258f565b60006117cd8385612be7565b90506117d884612767565b6040805160a0810182528581526020810185815281830184815260006060840181815260808501828152600280546001810182559352855160059093027f405787fa12a823e0f2b7631cc41b3ba8828b3321ca811111fa75cd3aa3bb5ace810184905594517f405787fa12a823e0f2b7631cc41b3ba8828b3321ca811111fa75cd3aa3bb5acf860181905593517f405787fa12a823e0f2b7631cc41b3ba8828b3321ca811111fa75cd3aa3bb5ad0860181905591517f405787fa12a823e0f2b7631cc41b3ba8828b3321ca811111fa75cd3aa3bb5ad1860181905590517f405787fa12a823e0f2b7631cc41b3ba8828b3321ca811111fa75cd3aa3bb5ad2909501859055955194957f519f8bffd327b774b2e6c104d83cdf5f1526d480d3acc25ccd8abae55e4f62729561175f9593949390948552602085019390935260408401919091526060830152608082015260a00190565b60008061193a8484610b41565b90506000805b8251811015610ce457600083828151811061195d5761195d612b7a565b602002602001015190506119718782610a31565b61197b9084612be7565b925050808061198990612bfa565b915050611940565b600281815481106119a157600080fd5b6000918252602090912060059091020180546001820154600283015460038401546004909401549294509092909185565b60009182526001602090815260408084206001600160a01b0393909316845291905290205460ff1690565b6000611a088161258f565b611a123383612476565b6040518281527f103add520cfd30dd0ad5e069258f06d08bc373a5079338aacf71cd52aa2b969f9060200160405180910390a15050565b6000611a5482611c6d565b5192915050565b604080516000808252602082019092526060915b600854811015611bd257600060088281548110611a8e57611a8e612b7a565b600091825260209182902060408051608081018252600490930290910180546001600160a01b0390811680855260018301549585019590955260028201549284019290925260030154606083015290925086169003611bbf57600083516001611af79190612be7565b67ffffffffffffffff811115611b0f57611b0f612c4c565b604051908082528060200260200182016040528015611b38578160200160208202803683370190505b50905060005b8451811015611b9057848181518110611b5957611b59612b7a565b6020026020010151828281518110611b7357611b73612b7a565b602090810291909101015280611b8881612bfa565b915050611b3e565b50828160018351611ba19190612c62565b81518110611bb157611bb1612b7a565b602090810291909101015292505b5080611bca81612bfa565b915050611a6f565b5092915050565b600080805b600854811015610e2857611bf18161266b565b611c035781611bff81612bfa565b9250505b80611c0d81612bfa565b915050611bde565b6000611c218383610b41565b519392505050565b60088181548110611c3957600080fd5b600091825260209091206004909102018054600182015460028301546003909301546001600160a01b039092169350919084565b6060600060028381548110611c8457611c84612b7a565b600091825260208083206040805160a081018252600594909402909101805484526001810154848401526002810154848301526003810154606085015260040154608084015280518481529182019052909250905b600854811015610b0e57600060088281548110611cf857611cf8612b7a565b600091825260209182902060408051608081018252600490930290910180546001600160a01b03168352600181015493830193909352600283015482820181905260039093015460608301528601519092501115611e4e57611d598261266b565b80611d715750611d7181606001518560400151612803565b15611e4e57600083516001611d869190612be7565b67ffffffffffffffff811115611d9e57611d9e612c4c565b604051908082528060200260200182016040528015611dc7578160200160208202803683370190505b50905060005b8451811015611e1f57848181518110611de857611de8612b7a565b6020026020010151828281518110611e0257611e02612b7a565b602090810291909101015280611e1781612bfa565b915050611dcd565b50828160018351611e309190612c62565b81518110611e4057611e40612b7a565b602090810291909101015292505b5080611e5981612bfa565b915050611cd9565b60025483908110611ebf5760405162461bcd60e51b815260206004820152602260248201527f4552433237315374616b696e673a20726f756e6420646f65736e2774206578696044820152611cdd60f21b60648201526084016108b1565b6000611eca8161258f565b8415611f615760006002611edf600188612c62565b81548110611eef57611eef612b7a565b90600052602060002090600502016040518060a001604052908160008201548152602001600182015481526020016002820154815260200160038201548152602001600482015481525050905080604001518511611f5f5760405162461bcd60e51b81526004016108b190612cb0565b505b6000611f6d8486612be7565b600254909150611f7f90600190612c62565b86101561206d5760006002611f95886001612be7565b81548110611fa557611fa5612b7a565b90600052602060002090600502016040518060a00160405290816000820154815260200160018201548152602001600282015481526020016003820154815260200160048201548152505090508060000151821061206b5760405162461bcd60e51b815260206004820152603a60248201527f526f756e64436f6e74726f6c3a2063616e277420656e6420726f756e6420616660448201527f746572206e65787420726f756e6420686173207374617274656400000000000060648201526084016108b1565b505b60006002878154811061208257612082612b7a565b6000918252602091829020600590910201878155600181018790556002810184905560038101546004820154604080518b81529485018a905284018690526060840191909152608083015291507f153be7fffad81a448dd72e351b477e835c58cd4a84a052a997ae5e31bdc5b6319060a00160405180910390a150505050505050565b6002600354036121575760405162461bcd60e51b815260206004820152601f60248201527f5265656e7472616e637947756172643a207265656e7472616e742063616c6c0060448201526064016108b1565b6002600355600061216733611a5b565b90506000805b825181101561220f57600083828151811061218a5761218a612b7a565b6020026020010151905061219d8161266b565b156121fc576000600882815481106121b7576121b7612b7a565b6000918252602090912060049091020180549091506001600160a01b031633146121e057600080fd5b60018101546121ef9085612be7565b9350428160030181905550505b508061220781612bfa565b91505061216d565b5080600660008282546122229190612c62565b90915550503360009081526007602052604081208054839290612246908490612c62565b909155505060055460405163095ea7b360e01b8152306004820152602481018390526001600160a01b039091169063095ea7b3906044016020604051808303816000875af115801561229c573d6000803e3d6000fd5b505050506040513d601f19601f820116820180604052508101906122c09190612c8e565b506005546040516323b872dd60e01b8152306004820152336024820152604481018390526001600160a01b03909116906323b872dd906064016020604051808303816000875af1158015612318573d6000803e3d6000fd5b505050506040513d601f19601f8201168201806040525081019061233c9190612c8e565b5060408051338152602081018390527fbe7426aee8a34d0263892b55ce65ce81d8f4c806eb4719e59015ea49feb92d229101611548565b6000828152600160208190526040909120015461238f8161258f565b610b3c8383612604565b6000806123a68484610b41565b90506000805b8251811015610ce45760008382815181106123c9576123c9612b7a565b602002602001015190506123dd8782611782565b6123e79084612be7565b92505080806123f590612bfa565b9150506123ac565b6124056126bd565b6001600160a01b03811661246a5760405162461bcd60e51b815260206004820152602660248201527f4f776e61626c653a206e6577206f776e657220697320746865207a65726f206160448201526564647265737360d01b60648201526084016108b1565b61247381612717565b50565b804710156124c65760405162461bcd60e51b815260206004820152601d60248201527f416464726573733a20696e73756666696369656e742062616c616e636500000060448201526064016108b1565b6000826001600160a01b03168260405160006040518083038185875af1925050503d8060008114612513576040519150601f19603f3d011682016040523d82523d6000602084013e612518565b606091505b5050905080610b3c5760405162461bcd60e51b815260206004820152603a60248201527f416464726573733a20756e61626c6520746f2073656e642076616c75652c207260448201527f6563697069656e74206d6179206861766520726576657274656400000000000060648201526084016108b1565b612473813361281c565b6125a382826119d2565b610d675760008281526001602081815260408084206001600160a01b0386168086529252808420805460ff19169093179092559051339285917f2f8788117e7eff1d82e926ec794901d17c78024a50270940304540a733656f0d9190a45050565b61260e82826119d2565b15610d675760008281526001602090815260408083206001600160a01b0385168085529252808320805460ff1916905551339285917ff6391f5c32d9c69d2a47ea670b442974b53935d1edc7fd64eb21e047a839171b9190a45050565b60006004546008838154811061268357612683612b7a565b906000526020600020906004020160030154149050919050565b6000838210156126ab578391505b6126b58284612c62565b949350505050565b6000546001600160a01b031633146117805760405162461bcd60e51b815260206004820181905260248201527f4f776e61626c653a2063616c6c6572206973206e6f7420746865206f776e657260448201526064016108b1565b600080546001600160a01b038381166001600160a01b0319831681178455604051919092169283917f8be0079c531659141344cd1fd0a4f28419497f9722a3daafe3b4186f6b6457e09190a35050565b6002541561247357600280546000919061278390600190612c62565b8154811061279357612793612b7a565b90600052602060002090600502016040518060a001604052908160008201548152602001600182015481526020016002820154815260200160038201548152602001600482015481525050905080604001518211610d675760405162461bcd60e51b81526004016108b190612cb0565b60008183118015612815575060045483105b9392505050565b61282682826119d2565b610d675761283e816001600160a01b03166014612880565b612849836020612880565b60405160200161285a929190612d28565b60408051601f198184030181529082905262461bcd60e51b82526108b191600401612d9d565b6060600061288f836002612c13565b61289a906002612be7565b67ffffffffffffffff8111156128b2576128b2612c4c565b6040519080825280601f01601f1916602001820160405280156128dc576020820181803683370190505b509050600360fc1b816000815181106128f7576128f7612b7a565b60200101906001600160f81b031916908160001a905350600f60fb1b8160018151811061292657612926612b7a565b60200101906001600160f81b031916908160001a905350600061294a846002612c13565b612955906001612be7565b90505b60018111156129cd576f181899199a1a9b1b9c1cb0b131b232b360811b85600f166010811061298957612989612b7a565b1a60f81b82828151811061299f5761299f612b7a565b60200101906001600160f81b031916908160001a90535060049490941c936129c681612dd0565b9050612958565b5083156128155760405162461bcd60e51b815260206004820181905260248201527f537472696e67733a20686578206c656e67746820696e73756666696369656e7460448201526064016108b1565b600060208284031215612a2e57600080fd5b81356001600160e01b03198116811461281557600080fd5b600060208284031215612a5857600080fd5b5035919050565b60008060408385031215612a7257600080fd5b50508035926020909101359150565b80356001600160a01b0381168114612a9857600080fd5b919050565b60008060408385031215612ab057600080fd5b82359150612ac060208401612a81565b90509250929050565b6020808252825182820181905260009190848201906040850190845b81811015612b0157835183529284019291840191600101612ae5565b50909695505050505050565b600060208284031215612b1f57600080fd5b61281582612a81565b6001600160a01b0394909416845260208401929092526040830152606082015260800190565b600080600060608486031215612b6357600080fd5b505081359360208301359350604090920135919050565b634e487b7160e01b600052603260045260246000fd5b60208082526021908201527f45524332305374616b696e673a20726f756e6420686173206e6f7420656e64656040820152601960fa1b606082015260800190565b634e487b7160e01b600052601160045260246000fd5b8082018082111561086357610863612bd1565b600060018201612c0c57612c0c612bd1565b5060010190565b808202811582820484141761086357610863612bd1565b600082612c4757634e487b7160e01b600052601260045260246000fd5b500490565b634e487b7160e01b600052604160045260246000fd5b8181038181111561086357610863612bd1565b600060208284031215612c8757600080fd5b5051919050565b600060208284031215612ca057600080fd5b8151801515811461281557600080fd5b60208082526034908201527f526f756e64436f6e74726f6c3a2063616e277420737461727420726f756e64206040820152736265666f72652070726576696f757320656e647360601b606082015260800190565b60005b83811015612d1f578181015183820152602001612d07565b50506000910152565b7f416363657373436f6e74726f6c3a206163636f756e7420000000000000000000815260008351612d60816017850160208801612d04565b7001034b99036b4b9b9b4b733903937b6329607d1b6017918401918201528351612d91816028840160208801612d04565b01602801949350505050565b6020815260008251806020840152612dbc816040850160208701612d04565b601f01601f19169190910160400192915050565b600081612ddf57612ddf612bd1565b50600019019056fea264697066735822122087a777762a13c090879bd683ae4d283d75f57521527e9221929dab01f31b88b964736f6c63430008110033",
  "linkReferences": {},
  "deployedLinkReferences": {}
}