{
  "_format": "hh-sol-artifact-1",
  "contractName": "ERC721StakingV2",
  "sourceName": "contracts/ERC721StakingV2.sol",
  "abi": [
    {
      "inputs": [
        {
          "internalType": "address",
          "name": "nftAddress_",
          "type": "address"
        }
      ],
      "stateMutability": "nonpayable",
      "type": "constructor"
    },
    {
      "anonymous": false,
      "inputs": [
        {
          "indexed": false,
          "internalType": "address",
          "name": "delegator",
          "type": "address"
        },
        {
          "indexed": false,
          "internalType": "uint256",
          "name": "roundIndex",
          "type": "uint256"
        },
        {
          "indexed": false,
          "internalType": "uint256",
          "name": "tokenId",
          "type": "uint256"
        },
        {
          "indexed": false,
          "internalType": "uint256",
          "name": "amount",
          "type": "uint256"
        }
      ],
      "name": "Claim",
      "type": "event"
    },
    {
      "anonymous": false,
      "inputs": [
        {
          "indexed": false,
          "internalType": "uint256",
          "name": "startTime",
          "type": "uint256"
        },
        {
          "indexed": false,
          "internalType": "uint256",
          "name": "duration",
          "type": "uint256"
        },
        {
          "indexed": false,
          "internalType": "uint256",
          "name": "endTime",
          "type": "uint256"
        },
        {
          "indexed": false,
          "internalType": "uint256",
          "name": "amountAllocated",
          "type": "uint256"
        },
        {
          "indexed": false,
          "internalType": "uint256",
          "name": "amountClaimed",
          "type": "uint256"
        }
      ],
      "name": "CreateRound",
      "type": "event"
    },
    {
      "anonymous": false,
      "inputs": [
        {
          "indexed": false,
          "internalType": "uint256",
          "name": "tokenId",
          "type": "uint256"
        },
        {
          "indexed": false,
          "internalType": "uint256",
          "name": "depositTime",
          "type": "uint256"
        },
        {
          "indexed": false,
          "internalType": "uint256",
          "name": "withdrawlTime",
          "type": "uint256"
        },
        {
          "indexed": false,
          "internalType": "address",
          "name": "delegator",
          "type": "address"
        }
      ],
      "name": "DepositERC721",
      "type": "event"
    },
    {
      "anonymous": false,
      "inputs": [
        {
          "indexed": false,
          "internalType": "uint256",
          "name": "roundIndex",
          "type": "uint256"
        },
        {
          "indexed": false,
          "internalType": "uint256",
          "name": "amount",
          "type": "uint256"
        }
      ],
      "name": "DepositFunds",
      "type": "event"
    },
    {
      "anonymous": false,
      "inputs": [
        {
          "indexed": true,
          "internalType": "bytes32",
          "name": "role",
          "type": "bytes32"
        },
        {
          "indexed": true,
          "internalType": "bytes32",
          "name": "previousAdminRole",
          "type": "bytes32"
        },
        {
          "indexed": true,
          "internalType": "bytes32",
          "name": "newAdminRole",
          "type": "bytes32"
        }
      ],
      "name": "RoleAdminChanged",
      "type": "event"
    },
    {
      "anonymous": false,
      "inputs": [
        {
          "indexed": true,
          "internalType": "bytes32",
          "name": "role",
          "type": "bytes32"
        },
        {
          "indexed": true,
          "internalType": "address",
          "name": "account",
          "type": "address"
        },
        {
          "indexed": true,
          "internalType": "address",
          "name": "sender",
          "type": "address"
        }
      ],
      "name": "RoleGranted",
      "type": "event"
    },
    {
      "anonymous": false,
      "inputs": [
        {
          "indexed": true,
          "internalType": "bytes32",
          "name": "role",
          "type": "bytes32"
        },
        {
          "indexed": true,
          "internalType": "address",
          "name": "account",
          "type": "address"
        },
        {
          "indexed": true,
          "internalType": "address",
          "name": "sender",
          "type": "address"
        }
      ],
      "name": "RoleRevoked",
      "type": "event"
    },
    {
      "anonymous": false,
      "inputs": [
        {
          "indexed": false,
          "internalType": "uint256",
          "name": "startTime",
          "type": "uint256"
        },
        {
          "indexed": false,
          "internalType": "uint256",
          "name": "duration",
          "type": "uint256"
        },
        {
          "indexed": false,
          "internalType": "uint256",
          "name": "endTime",
          "type": "uint256"
        },
        {
          "indexed": false,
          "internalType": "uint256",
          "name": "amountAllocated",
          "type": "uint256"
        },
        {
          "indexed": false,
          "internalType": "uint256",
          "name": "amountClaimed",
          "type": "uint256"
        }
      ],
      "name": "UpdateRound",
      "type": "event"
    },
    {
      "anonymous": false,
      "inputs": [
        {
          "indexed": false,
          "internalType": "uint256",
          "name": "tokenId",
          "type": "uint256"
        },
        {
          "indexed": false,
          "internalType": "uint256",
          "name": "depositTime",
          "type": "uint256"
        },
        {
          "indexed": false,
          "internalType": "uint256",
          "name": "withdrawlTime",
          "type": "uint256"
        },
        {
          "indexed": false,
          "internalType": "address",
          "name": "delegator",
          "type": "address"
        }
      ],
      "name": "WithdrawERC721",
      "type": "event"
    },
    {
      "inputs": [],
      "name": "DEFAULT_ADMIN_ROLE",
      "outputs": [
        {
          "internalType": "bytes32",
          "name": "",
          "type": "bytes32"
        }
      ],
      "stateMutability": "view",
      "type": "function"
    },
    {
      "inputs": [
        {
          "internalType": "uint256",
          "name": "roundIndex_",
          "type": "uint256"
        }
      ],
      "name": "claimForRound",
      "outputs": [],
      "stateMutability": "nonpayable",
      "type": "function"
    },
    {
      "inputs": [
        {
          "internalType": "uint256",
          "name": "roundIndex_",
          "type": "uint256"
        },
        {
          "internalType": "uint256",
          "name": "tokenId_",
          "type": "uint256"
        }
      ],
      "name": "claimForRoundByToken",
      "outputs": [],
      "stateMutability": "nonpayable",
      "type": "function"
    },
    {
      "inputs": [],
      "name": "countActiveDeposits",
      "outputs": [
        {
          "internalType": "uint256",
          "name": "",
          "type": "uint256"
        }
      ],
      "stateMutability": "view",
      "type": "function"
    },
    {
      "inputs": [],
      "name": "countAllDeposits",
      "outputs": [
        {
          "internalType": "uint256",
          "name": "",
          "type": "uint256"
        }
      ],
      "stateMutability": "view",
      "type": "function"
    },
    {
      "inputs": [
        {
          "internalType": "uint256",
          "name": "roundIndex",
          "type": "uint256"
        }
      ],
      "name": "countDepositsForRound",
      "outputs": [
        {
          "internalType": "uint256",
          "name": "",
          "type": "uint256"
        }
      ],
      "stateMutability": "view",
      "type": "function"
    },
    {
      "inputs": [
        {
          "internalType": "uint256",
          "name": "roundIndex",
          "type": "uint256"
        },
        {
          "internalType": "address",
          "name": "address_",
          "type": "address"
        }
      ],
      "name": "countDepositsForRoundByAddress",
      "outputs": [
        {
          "internalType": "uint256",
          "name": "",
          "type": "uint256"
        }
      ],
      "stateMutability": "view",
      "type": "function"
    },
    {
      "inputs": [],
      "name": "countWithdrawnDeposits",
      "outputs": [
        {
          "internalType": "uint256",
          "name": "",
          "type": "uint256"
        }
      ],
      "stateMutability": "view",
      "type": "function"
    },
    {
      "inputs": [
        {
          "internalType": "uint256",
          "name": "startTime_",
          "type": "uint256"
        },
        {
          "internalType": "uint256",
          "name": "duration_",
          "type": "uint256"
        }
      ],
      "name": "createRound",
      "outputs": [],
      "stateMutability": "nonpayable",
      "type": "function"
    },
    {
      "inputs": [
        {
          "internalType": "uint256",
          "name": "roundIndex_",
          "type": "uint256"
        },
        {
          "internalType": "uint256",
          "name": "amount_",
          "type": "uint256"
        }
      ],
      "name": "depositFunds",
      "outputs": [],
      "stateMutability": "payable",
      "type": "function"
    },
    {
      "inputs": [
        {
          "internalType": "uint256",
          "name": "roundIndex",
          "type": "uint256"
        }
      ],
      "name": "depositIndexesForRound",
      "outputs": [
        {
          "internalType": "uint256[]",
          "name": "",
          "type": "uint256[]"
        }
      ],
      "stateMutability": "view",
      "type": "function"
    },
    {
      "inputs": [
        {
          "internalType": "uint256",
          "name": "roundIndex",
          "type": "uint256"
        },
        {
          "internalType": "address",
          "name": "address_",
          "type": "address"
        }
      ],
      "name": "depositIndexesForRoundByAddress",
      "outputs": [
        {
          "internalType": "uint256[]",
          "name": "",
          "type": "uint256[]"
        }
      ],
      "stateMutability": "view",
      "type": "function"
    },
    {
      "inputs": [
        {
          "internalType": "uint256[]",
          "name": "_tokenIds",
          "type": "uint256[]"
        }
      ],
      "name": "depositNFT",
      "outputs": [],
      "stateMutability": "nonpayable",
      "type": "function"
    },
    {
      "inputs": [
        {
          "internalType": "address",
          "name": "address_",
          "type": "address"
        }
      ],
      "name": "depositedTokenIdsForAddress",
      "outputs": [
        {
          "internalType": "uint256[]",
          "name": "",
          "type": "uint256[]"
        }
      ],
      "stateMutability": "view",
      "type": "function"
    },
    {
      "inputs": [
        {
          "internalType": "uint256",
          "name": "",
          "type": "uint256"
        }
      ],
      "name": "deposits",
      "outputs": [
        {
          "internalType": "uint256",
          "name": "tokenId",
          "type": "uint256"
        },
        {
          "internalType": "uint256",
          "name": "depositTime",
          "type": "uint256"
        },
        {
          "internalType": "uint256",
          "name": "withdrawlTime",
          "type": "uint256"
        },
        {
          "internalType": "address",
          "name": "delegator",
          "type": "address"
        }
      ],
      "stateMutability": "view",
      "type": "function"
    },
    {
      "inputs": [
        {
          "internalType": "uint256",
          "name": "roundIndex",
          "type": "uint256"
        },
        {
          "internalType": "address",
          "name": "address_",
          "type": "address"
        }
      ],
      "name": "ethAllocForRoundByAddress",
      "outputs": [
        {
          "internalType": "uint256",
          "name": "",
          "type": "uint256"
        }
      ],
      "stateMutability": "view",
      "type": "function"
    },
    {
      "inputs": [
        {
          "internalType": "uint256",
          "name": "roundIndex",
          "type": "uint256"
        },
        {
          "internalType": "uint256",
          "name": "tokenId",
          "type": "uint256"
        }
      ],
      "name": "ethAllocForRoundByToken",
      "outputs": [
        {
          "internalType": "uint256",
          "name": "",
          "type": "uint256"
        }
      ],
      "stateMutability": "view",
      "type": "function"
    },
    {
      "inputs": [
        {
          "internalType": "uint256",
          "name": "roundIndex",
          "type": "uint256"
        },
        {
          "internalType": "address",
          "name": "address_",
          "type": "address"
        }
      ],
      "name": "ethClaimedForRoundByAddress",
      "outputs": [
        {
          "internalType": "uint256",
          "name": "",
          "type": "uint256"
        }
      ],
      "stateMutability": "view",
      "type": "function"
    },
    {
      "inputs": [
        {
          "internalType": "uint256",
          "name": "roundIndex",
          "type": "uint256"
        },
        {
          "internalType": "uint256",
          "name": "tokenId",
          "type": "uint256"
        }
      ],
      "name": "ethClaimedForRoundByToken",
      "outputs": [
        {
          "internalType": "uint256",
          "name": "",
          "type": "uint256"
        }
      ],
      "stateMutability": "view",
      "type": "function"
    },
    {
      "inputs": [
        {
          "internalType": "uint256",
          "name": "roundIndex",
          "type": "uint256"
        },
        {
          "internalType": "address",
          "name": "address_",
          "type": "address"
        }
      ],
      "name": "ethUnclaimedForRoundByAddress",
      "outputs": [
        {
          "internalType": "uint256",
          "name": "",
          "type": "uint256"
        }
      ],
      "stateMutability": "view",
      "type": "function"
    },
    {
      "inputs": [
        {
          "internalType": "uint256",
          "name": "roundIndex",
          "type": "uint256"
        },
        {
          "internalType": "uint256",
          "name": "tokenId",
          "type": "uint256"
        }
      ],
      "name": "ethUnclaimedForRoundByToken",
      "outputs": [
        {
          "internalType": "uint256",
          "name": "",
          "type": "uint256"
        }
      ],
      "stateMutability": "view",
      "type": "function"
    },
    {
      "inputs": [
        {
          "internalType": "bytes32",
          "name": "role",
          "type": "bytes32"
        }
      ],
      "name": "getRoleAdmin",
      "outputs": [
        {
          "internalType": "bytes32",
          "name": "",
          "type": "bytes32"
        }
      ],
      "stateMutability": "view",
      "type": "function"
    },
    {
      "inputs": [
        {
          "internalType": "bytes32",
          "name": "role",
          "type": "bytes32"
        },
        {
          "internalType": "address",
          "name": "account",
          "type": "address"
        }
      ],
      "name": "grantRole",
      "outputs": [],
      "stateMutability": "nonpayable",
      "type": "function"
    },
    {
      "inputs": [
        {
          "internalType": "bytes32",
          "name": "role",
          "type": "bytes32"
        },
        {
          "internalType": "address",
          "name": "account",
          "type": "address"
        }
      ],
      "name": "hasRole",
      "outputs": [
        {
          "internalType": "bool",
          "name": "",
          "type": "bool"
        }
      ],
      "stateMutability": "view",
      "type": "function"
    },
    {
      "inputs": [
        {
          "internalType": "uint256",
          "name": "tokenId",
          "type": "uint256"
        }
      ],
      "name": "latestActiveDepositForTokenId",
      "outputs": [
        {
          "internalType": "uint256",
          "name": "index",
          "type": "uint256"
        }
      ],
      "stateMutability": "view",
      "type": "function"
    },
    {
      "inputs": [],
      "name": "nbRounds",
      "outputs": [
        {
          "internalType": "uint256",
          "name": "",
          "type": "uint256"
        }
      ],
      "stateMutability": "view",
      "type": "function"
    },
    {
      "inputs": [],
      "name": "nftCollection",
      "outputs": [
        {
          "internalType": "contract IERC721",
          "name": "",
          "type": "address"
        }
      ],
      "stateMutability": "view",
      "type": "function"
    },
    {
      "inputs": [
        {
          "internalType": "bytes32",
          "name": "role",
          "type": "bytes32"
        },
        {
          "internalType": "address",
          "name": "account",
          "type": "address"
        }
      ],
      "name": "renounceRole",
      "outputs": [],
      "stateMutability": "nonpayable",
      "type": "function"
    },
    {
      "inputs": [
        {
          "internalType": "bytes32",
          "name": "role",
          "type": "bytes32"
        },
        {
          "internalType": "address",
          "name": "account",
          "type": "address"
        }
      ],
      "name": "revokeRole",
      "outputs": [],
      "stateMutability": "nonpayable",
      "type": "function"
    },
    {
      "inputs": [
        {
          "internalType": "uint256",
          "name": "",
          "type": "uint256"
        }
      ],
      "name": "rounds",
      "outputs": [
        {
          "internalType": "uint256",
          "name": "startTime",
          "type": "uint256"
        },
        {
          "internalType": "uint256",
          "name": "duration",
          "type": "uint256"
        },
        {
          "internalType": "uint256",
          "name": "endTime",
          "type": "uint256"
        },
        {
          "internalType": "uint256",
          "name": "amountAllocated",
          "type": "uint256"
        },
        {
          "internalType": "uint256",
          "name": "amountClaimed",
          "type": "uint256"
        }
      ],
      "stateMutability": "view",
      "type": "function"
    },
    {
      "inputs": [
        {
          "internalType": "bytes4",
          "name": "interfaceId",
          "type": "bytes4"
        }
      ],
      "name": "supportsInterface",
      "outputs": [
        {
          "internalType": "bool",
          "name": "",
          "type": "bool"
        }
      ],
      "stateMutability": "view",
      "type": "function"
    },
    {
      "inputs": [
        {
          "internalType": "uint256",
          "name": "roundIndex_",
          "type": "uint256"
        },
        {
          "internalType": "uint256",
          "name": "startTime_",
          "type": "uint256"
        },
        {
          "internalType": "uint256",
          "name": "duration_",
          "type": "uint256"
        }
      ],
      "name": "updateRound",
      "outputs": [],
      "stateMutability": "nonpayable",
      "type": "function"
    },
    {
      "inputs": [
        {
          "internalType": "uint256",
          "name": "roundIndex",
          "type": "uint256"
        },
        {
          "internalType": "address",
          "name": "address_",
          "type": "address"
        }
      ],
      "name": "weightedAverageForRoundByAddress",
      "outputs": [
        {
          "internalType": "uint256",
          "name": "",
          "type": "uint256"
        }
      ],
      "stateMutability": "view",
      "type": "function"
    },
    {
      "inputs": [
        {
          "internalType": "uint256",
          "name": "roundIndex",
          "type": "uint256"
        },
        {
          "internalType": "uint256",
          "name": "tokenId",
          "type": "uint256"
        }
      ],
      "name": "weightedAverageForToken",
      "outputs": [
        {
          "internalType": "uint256",
          "name": "",
          "type": "uint256"
        }
      ],
      "stateMutability": "view",
      "type": "function"
    },
    {
      "inputs": [
        {
          "internalType": "uint256[]",
          "name": "_tokenIds",
          "type": "uint256[]"
        }
      ],
      "name": "withdrawNFT",
      "outputs": [],
      "stateMutability": "nonpayable",
      "type": "function"
    }
  ],
  "bytecode": "0x60806040526000196003553480156200001757600080fd5b5060405162002e2438038062002e248339810160408190526200003a9162000184565b62000047600033620000e3565b60016002556001600160a01b038116620000bd5760405162461bcd60e51b815260206004820152602d60248201527f4552433732315374616b696e673a204552433732312063616e206e6f7420626560448201526c2061646472657373207a65726f60981b606482015260840160405180910390fd5b600480546001600160a01b0319166001600160a01b0392909216919091179055620001b6565b6000828152602081815260408083206001600160a01b038516845290915290205460ff1662000180576000828152602081815260408083206001600160a01b03851684529091529020805460ff191660011790556200013f3390565b6001600160a01b0316816001600160a01b0316837f2f8788117e7eff1d82e926ec794901d17c78024a50270940304540a733656f0d60405160405180910390a45b5050565b6000602082840312156200019757600080fd5b81516001600160a01b0381168114620001af57600080fd5b9392505050565b612c5e80620001c66000396000f3fe6080604052600436106102045760003560e01c80638c65c81f11610118578063c6e1e732116100a0578063ecf0a76b1161006f578063ecf0a76b14610653578063f2f8ffa614610668578063f52e513314610688578063f8f50ac6146106a8578063fd7a04e4146106c857600080fd5b8063c6e1e732146105de578063c9a540fd146105fe578063d547741f1461061e578063e6abc7891461063e57600080fd5b8063ad42ac54116100e7578063ad42ac5414610520578063aedc625d14610535578063b02c43d014610555578063b5a863651461059e578063b883457c146105be57600080fd5b80638c65c81f1461048357806391d14854146104cb578063a1215c3b146104eb578063a217fddf1461050b57600080fd5b806341e13d271161019b5780635dae6d4e1161016a5780635dae6d4e146103c057806361638ed5146103f85780636588103b1461040b578063848ee75f1461044357806384e6dd951461046357600080fd5b806341e13d271461034b5780634b0b3dc71461036057806353244cf5146103805780635507219f146103a057600080fd5b8063248a9ca3116101d7578063248a9ca3146102ae5780632f2ff15d146102de57806334610ee6146102fe57806336568abe1461032b57600080fd5b806301ffc9a71461020957806308d2f28c1461023e5780630a72298e1461026c5780630dd0836d1461028e575b600080fd5b34801561021557600080fd5b506102296102243660046127ea565b6106e8565b60405190151581526020015b60405180910390f35b34801561024a57600080fd5b5061025e610259366004612814565b61071f565b604051908152602001610235565b34801561027857600080fd5b5061028c610287366004612836565b61077d565b005b34801561029a57600080fd5b5061028c6102a93660046128ab565b610aba565b3480156102ba57600080fd5b5061025e6102c93660046128ab565b60009081526020819052604090206001015490565b3480156102ea57600080fd5b5061028c6102f93660046128d9565b610caa565b34801561030a57600080fd5b5061031e6103193660046128d9565b610cd4565b6040516102359190612909565b34801561033757600080fd5b5061028c6103463660046128d9565b610e80565b34801561035757600080fd5b5061025e610efe565b34801561036c57600080fd5b5061028c61037b366004612836565b610f40565b34801561038c57600080fd5b5061025e61039b3660046128d9565b611150565b3480156103ac57600080fd5b5061025e6103bb3660046128d9565b611219565b3480156103cc57600080fd5b5061025e6103db366004612814565b600091825260066020908152604080842092845291905290205490565b61028c610406366004612814565b6112b4565b34801561041757600080fd5b5060045461042b906001600160a01b031681565b6040516001600160a01b039091168152602001610235565b34801561044f57600080fd5b5061028c61045e366004612814565b61141c565b34801561046f57600080fd5b5061025e61047e3660046128d9565b6115a1565b34801561048f57600080fd5b506104a361049e3660046128ab565b61166a565b604080519586526020860194909452928401919091526060830152608082015260a001610235565b3480156104d757600080fd5b506102296104e63660046128d9565b6116ab565b3480156104f757600080fd5b5061025e6105063660046128ab565b6116d4565b34801561051757600080fd5b5061025e600081565b34801561052c57600080fd5b5061025e6116e6565b34801561054157600080fd5b5061025e6105503660046128d9565b611723565b34801561056157600080fd5b506105756105703660046128ab565b611737565b604080519485526020850193909352918301526001600160a01b03166060820152608001610235565b3480156105aa57600080fd5b5061025e6105b9366004612814565b61177a565b3480156105ca57600080fd5b5061031e6105d93660046128ab565b6117ae565b3480156105ea57600080fd5b5061028c6105f936600461294d565b61199f565b34801561060a57600080fd5b5061025e6106193660046128ab565b611c04565b34801561062a57600080fd5b5061028c6106393660046128d9565b611c71565b34801561064a57600080fd5b5060015461025e565b34801561065f57600080fd5b5060055461025e565b34801561067457600080fd5b5061025e6106833660046128d9565b611c96565b34801561069457600080fd5b5061028c6106a3366004612814565b611d24565b3480156106b457600080fd5b5061025e6106c3366004612814565b611f65565b3480156106d457600080fd5b5061031e6106e3366004612979565b6120cd565b60006001600160e01b03198216637965db0b60e01b148061071957506301ffc9a760e01b6001600160e01b03198316145b92915050565b6000806001848154811061073557610735612996565b906000526020600020906005020160030154905060006107558585611f65565b9050670de0b6b3a764000061076a82846129c2565b61077491906129d9565b95945050505050565b60028054036107d35760405162461bcd60e51b815260206004820152601f60248201527f5265656e7472616e637947756172643a207265656e7472616e742063616c6c0060448201526064015b60405180910390fd5b600280558060005b81811015610aaf5760008484838181106107f7576107f7612996565b600480546040516331a9108f60e11b81526020939093029490940135908201819052935033926001600160a01b03169150636352211e90602401602060405180830381865afa15801561084e573d6000803e3d6000fd5b505050506040513d601f19601f8201168201806040525081019061087291906129fb565b6001600160a01b0316146108e25760405162461bcd60e51b815260206004820152603160248201527f4552433732315374616b696e673a2063616e2774206465706f73697420746f6b60448201527032b739903cb7ba903237b713ba1037bbb760791b60648201526084016107ca565b600480546040516323b872dd60e01b81523392810192909252306024830152604482018390526001600160a01b0316906323b872dd90606401600060405180830381600087803b15801561093557600080fd5b505af1158015610949573d6000803e3d6000fd5b5050604080516080810182528481524260208201908152600354828401908152336060840190815260058054600181018255600091909152845160049091027f036b6384b5eca791c62761152d0c79bb0604c104a5fb6f4eb0703f3154bb3db0810182905593517f036b6384b5eca791c62761152d0c79bb0604c104a5fb6f4eb0703f3154bb3db1850181905592517f036b6384b5eca791c62761152d0c79bb0604c104a5fb6f4eb0703f3154bb3db2850181905591517f036b6384b5eca791c62761152d0c79bb0604c104a5fb6f4eb0703f3154bb3db390940180546001600160a01b0386166001600160a01b031990911617905594519396507fcfd579a296da4e913937c635021a19c3cc9b7c947763b20c9ec33b37d8c8dbce9550610a94949391929091938452602084019290925260408301526001600160a01b0316606082015260800190565b60405180910390a1505080610aa890612a18565b90506107db565b505060016002555050565b60015481908110610add5760405162461bcd60e51b81526004016107ca90612a31565b600060018381548110610af257610af2612996565b9060005260206000209060050201905080600201544211610b255760405162461bcd60e51b81526004016107ca90612a73565b6000610b318433610cd4565b90506000805b8251811015610c98576000838281518110610b5457610b54612996565b60200260200101519050600060058281548110610b7357610b73612996565b6000918252602091829020604080516080810182526004909302909101805483526001810154938301939093526002830154908201526003909101546001600160a01b0316606082018190529091503314610bcd57600080fd5b6000610bdd89836000015161177a565b60008a815260066020908152604080832086518452909152812080549293508392909190610c0c908490612ab5565b9250508190555080876004016000828254610c279190612ab5565b90915550506060828101518351604080516001600160a01b039093168352602083018d90528201529081018290527f45c072aa05b9853b5a993de7a28bc332ee01404a628cec1a23ce0f659f842ef19060800160405180910390a15050508080610c9090612a18565b915050610b37565b50610ca3338261225a565b5050505050565b600082815260208190526040902060010154610cc581612373565b610ccf8383612380565b505050565b60606000610ce1846117ae565b604080516000808252602082019092529192505b8251811015610e77576000838281518110610d1257610d12612996565b60200260200101519050600060058281548110610d3157610d31612996565b6000918252602091829020604080516080810182526004909302909101805483526001810154938301939093526002830154908201526003909101546001600160a01b039081166060830181905291925088169003610e6257600084516001610d9a9190612ab5565b67ffffffffffffffff811115610db257610db2612ac8565b604051908082528060200260200182016040528015610ddb578160200160208202803683370190505b50905060005b8551811015610e3357858181518110610dfc57610dfc612996565b6020026020010151828281518110610e1657610e16612996565b602090810291909101015280610e2b81612a18565b915050610de1565b50838160018351610e449190612ade565b81518110610e5457610e54612996565b602090810291909101015293505b50508080610e6f90612a18565b915050610cf5565b50949350505050565b6001600160a01b0381163314610ef05760405162461bcd60e51b815260206004820152602f60248201527f416363657373436f6e74726f6c3a2063616e206f6e6c792072656e6f756e636560448201526e103937b632b9903337b91039b2b63360891b60648201526084016107ca565b610efa8282612404565b5050565b600080805b600554811015610f3a57610f1681612469565b610f285781610f2481612a18565b9250505b80610f3281612a18565b915050610f03565b50919050565b6002805403610f915760405162461bcd60e51b815260206004820152601f60248201527f5265656e7472616e637947756172643a207265656e7472616e742063616c6c0060448201526064016107ca565b600280558060005b81811015610aaf576000848483818110610fb557610fb5612996565b9050602002013590506000610fc982611c04565b9050600060058281548110610fe057610fe0612996565b6000918252602090912060049091020160038101549091506001600160a01b0316331461106b5760405162461bcd60e51b815260206004820152603360248201527f4552433732315374616b696e673a2063616e27742077697468647261772061206044820152723a37b5b2b7103cb7ba903237b713ba1037bbb760691b60648201526084016107ca565b426002820155600480546040516323b872dd60e01b81523092810192909252336024830152604482018590526001600160a01b0316906323b872dd90606401600060405180830381600087803b1580156110c457600080fd5b505af11580156110d8573d6000803e3d6000fd5b50508254600184015460028501546003860154604080519485526020850193909352918301526001600160a01b031660608201527faad150bbac06daf436a0d721e85abf2c3455bff6e25ebe92eeab207caaff18029250608001905060405180910390a15050508061114990612a18565b9050610f99565b60008061115d8484610cd4565b90506000805b8251811015610e7757600083828151811061118057611180612996565b6020026020010151905060006005828154811061119f5761119f612996565b60009182526020918290206040805160808101825260049093029091018054808452600182015494840194909452600281015491830191909152600301546001600160a01b0316606082015291506111f8908990611f65565b6112029085612ab5565b93505050808061121190612a18565b915050611163565b6000806112268484610cd4565b90506000805b8251811015610e7757600083828151811061124957611249612996565b6020026020010151905060006005828154811061126857611268612996565b600091825260208083206004909202909101548a835260068252604080842082855290925291205490915061129d9085612ab5565b9350505080806112ac90612a18565b91505061122c565b60006112bf81612373565b60015483106112e05760405162461bcd60e51b81526004016107ca90612a31565b6000341161133a5760405162461bcd60e51b815260206004820152602160248201527f4552433237315374616b696e673a204d75737420696e636c7564652066756e646044820152607360f81b60648201526084016107ca565b3482146113995760405162461bcd60e51b815260206004820152602760248201527f4552433237315374616b696e673a2046756e647320646f6e2774206d6174636860448201526608185b5bdd5b9d60ca1b60648201526084016107ca565b6000600184815481106113ae576113ae612996565b90600052602060002090600502019050348160030160008282546113d29190612ab5565b909155505060038101546040805186815260208101929092527fc30d09038cdea01854d3b58940393d97d881e83f40ddc3a8225f32e76b584b14910160405180910390a150505050565b600061142781612373565b60006114338385612ab5565b905061143e8461249c565b6040805160a08101825285815260208101858152818301848152600060608401818152608085018281526001805480820182559352855160059093027fb10e2d527612073b26eecdfd717e6a320cf44b4afac2b0732d9fcbe2b7fa0cf6810184905594517fb10e2d527612073b26eecdfd717e6a320cf44b4afac2b0732d9fcbe2b7fa0cf7860181905593517fb10e2d527612073b26eecdfd717e6a320cf44b4afac2b0732d9fcbe2b7fa0cf8860181905591517fb10e2d527612073b26eecdfd717e6a320cf44b4afac2b0732d9fcbe2b7fa0cf9860181905590517fb10e2d527612073b26eecdfd717e6a320cf44b4afac2b0732d9fcbe2b7fa0cfa909501859055955194957f519f8bffd327b774b2e6c104d83cdf5f1526d480d3acc25ccd8abae55e4f6272956115929593949390948552602085019390935260408401919091526060830152608082015260a00190565b60405180910390a15050505050565b6000806115ae8484610cd4565b90506000805b8251811015610e775760008382815181106115d1576115d1612996565b602002602001015190506000600582815481106115f0576115f0612996565b60009182526020918290206040805160808101825260049093029091018054808452600182015494840194909452600281015491830191909152600301546001600160a01b03166060820152915061164990899061071f565b6116539085612ab5565b93505050808061166290612a18565b9150506115b4565b6001818154811061167a57600080fd5b6000918252602090912060059091020180546001820154600283015460038401546004909401549294509092909185565b6000918252602082815260408084206001600160a01b0393909316845291905290205460ff1690565b60006116df826117ae565b5192915050565b600080805b600554811015610f3a576116fe81612469565b15611711578161170d81612a18565b9250505b8061171b81612a18565b9150506116eb565b600061172f8383610cd4565b519392505050565b6005818154811061174757600080fd5b6000918252602090912060049091020180546001820154600283015460039093015491935091906001600160a01b031684565b600080611787848461071f565b60008581526006602090815260408083208784529091529020549091506107748183612ade565b60606000600183815481106117c5576117c5612996565b600091825260208083206040805160a081018252600594909402909101805484526001810154848401526002810154848301526003810154606085015260040154608084015280518481529182019052909250905b6005548110156119975760006005828154811061183957611839612996565b6000918252602091829020604080516080810182526004909302909101805483526001810154938301849052600281015483830152600301546001600160a01b03166060830152860151909250111561198457600354816040015114806118a7575083604001518160400151115b15611984576000835160016118bc9190612ab5565b67ffffffffffffffff8111156118d4576118d4612ac8565b6040519080825280602002602001820160405280156118fd578160200160208202803683370190505b50905060005b84518110156119555784818151811061191e5761191e612996565b602002602001015182828151811061193857611938612996565b60209081029190910101528061194d81612a18565b915050611903565b508281600183516119669190612ade565b8151811061197657611976612996565b602090810291909101015292505b508061198f81612a18565b91505061181a565b509392505050565b600154839081106119c25760405162461bcd60e51b81526004016107ca90612a31565b60006119cd81612373565b8415611a6357600060016119e18188612ade565b815481106119f1576119f1612996565b90600052602060002090600502016040518060a001604052908160008201548152602001600182015481526020016002820154815260200160038201548152602001600482015481525050905080604001518511611a615760405162461bcd60e51b81526004016107ca90612af1565b505b6000611a6f8486612ab5565b60018054919250611a7f91612ade565b861015611b6c5760006001611a948882612ab5565b81548110611aa457611aa4612996565b90600052602060002090600502016040518060a001604052908160008201548152602001600182015481526020016002820154815260200160038201548152602001600482015481525050905080600001518210611b6a5760405162461bcd60e51b815260206004820152603a60248201527f526f756e64436f6e74726f6c3a2063616e277420656e6420726f756e6420616660448201527f746572206e65787420726f756e6420686173207374617274656400000000000060648201526084016107ca565b505b600060018781548110611b8157611b81612996565b6000918252602091829020600590910201878155600181018790556002810184905560038101546004820154604080518b81529485018a905284018690526060840191909152608083015291507f153be7fffad81a448dd72e351b477e835c58cd4a84a052a997ae5e31bdc5b6319060a00160405180910390a150505050505050565b6005546000908190611c1890600190612ade565b90505b8260058281548110611c2f57611c2f612996565b906000526020600020906004020160000154148015611c545750611c5281612469565b155b15611c5f5792915050565b80611c6981612b45565b915050611c1b565b600082815260208190526040902060010154611c8c81612373565b610ccf8383612404565b600080611ca38484610cd4565b90506000805b8251811015610e77576000838281518110611cc657611cc6612996565b60200260200101519050600060058281548110611ce557611ce5612996565b9060005260206000209060040201600001549050611d03888261177a565b611d0d9085612ab5565b935050508080611d1c90612a18565b915050611ca9565b600060018381548110611d3957611d39612996565b9060005260206000209060050201905080600201544211611d6c5760405162461bcd60e51b81526004016107ca90612a73565b6000611d788484612537565b9050600060058281548110611d8f57611d8f612996565b6000918252602091829020604080516080810182526004909302909101805483526001810154938301939093526002830154908201526003909101546001600160a01b0316606082018190529091503314611e415760405162461bcd60e51b815260206004820152602c60248201527f4552433732315374616b696e673a2073656e646572206973206e6f742074686560448201526b103a37b5b2b71037bbb732b960a11b60648201526084016107ca565b6000611e4d868661177a565b905060008111611eb05760405162461bcd60e51b815260206004820152602860248201527f4552433732315374616b696e673a207468657265206973206e6f7468696e6720604482015267746f20636c61696d60c01b60648201526084016107ca565b611ebe82606001518261225a565b600086815260066020908152604080832088845290915281208054839290611ee7908490612ab5565b9250508190555080846004016000828254611f029190612ab5565b9091555050606082810151604080516001600160a01b0390921682526020820189905281018790529081018290527f45c072aa05b9853b5a993de7a28bc332ee01404a628cec1a23ce0f659f842ef19060800160405180910390a1505050505050565b600080611f71846117ae565b9050600060018581548110611f8857611f88612996565b90600052602060002090600502016040518060a001604052908160008201548152602001600182015481526020016002820154815260200160038201548152602001600482015481525050905060008060005b84518110156120a4576000858281518110611ff857611ff8612996565b6020026020010151905060006005828154811061201757612017612996565b60009182526020808320604080516080810182526004909402909101805484526001810154928401839052600281015484830152600301546001600160a01b031660608401528951908a01519294506120719290916125c3565b905061207d8187612ab5565b95508982600001510361208e578094505b505050808061209c90612a18565b915050611fdb565b50816120b882670de0b6b3a76400006129c2565b6120c291906129d9565b979650505050505050565b604080516000808252602082019092526060915b6005548110156122535760006005828154811061210057612100612996565b6000918252602091829020604080516080810182526004909302909101805483526001810154938301939093526002830154908201526003909101546001600160a01b03908116606083018190529192508616900361224057600354816040015103612240576000835160016121769190612ab5565b67ffffffffffffffff81111561218e5761218e612ac8565b6040519080825280602002602001820160405280156121b7578160200160208202803683370190505b50905060005b845181101561220f578481815181106121d8576121d8612996565b60200260200101518282815181106121f2576121f2612996565b60209081029190910101528061220781612a18565b9150506121bd565b5081518151829061222290600190612ade565b8151811061223257612232612996565b602090810291909101015292505b508061224b81612a18565b9150506120e1565b5092915050565b804710156122aa5760405162461bcd60e51b815260206004820152601d60248201527f416464726573733a20696e73756666696369656e742062616c616e636500000060448201526064016107ca565b6000826001600160a01b03168260405160006040518083038185875af1925050503d80600081146122f7576040519150601f19603f3d011682016040523d82523d6000602084013e6122fc565b606091505b5050905080610ccf5760405162461bcd60e51b815260206004820152603a60248201527f416464726573733a20756e61626c6520746f2073656e642076616c75652c207260448201527f6563697069656e74206d6179206861766520726576657274656400000000000060648201526084016107ca565b61237d81336125e3565b50565b61238a82826116ab565b610efa576000828152602081815260408083206001600160a01b03851684529091529020805460ff191660011790556123c03390565b6001600160a01b0316816001600160a01b0316837f2f8788117e7eff1d82e926ec794901d17c78024a50270940304540a733656f0d60405160405180910390a45050565b61240e82826116ab565b15610efa576000828152602081815260408083206001600160a01b0385168085529252808320805460ff1916905551339285917ff6391f5c32d9c69d2a47ea670b442974b53935d1edc7fd64eb21e047a839171b9190a45050565b60006003546005838154811061248157612481612996565b90600052602060002090600402016002015414159050919050565b6001541561237d5760018054600091906124b7908290612ade565b815481106124c7576124c7612996565b90600052602060002090600502016040518060a001604052908160008201548152602001600182015481526020016002820154815260200160038201548152602001600482015481525050905080604001518211610efa5760405162461bcd60e51b81526004016107ca90612af1565b600080612543846117ae565b905060005b81518110156125b757600082828151811061256557612565612996565b60200260200101519050846005828154811061258357612583612996565b906000526020600020906004020160000154036125a4579250610719915050565b50806125af81612a18565b915050612548565b50506003549392505050565b6000838210156125d1578391505b6125db8284612ade565b949350505050565b6125ed82826116ab565b610efa57612605816001600160a01b03166014612647565b612610836020612647565b604051602001612621929190612b80565b60408051601f198184030181529082905262461bcd60e51b82526107ca91600401612bf5565b606060006126568360026129c2565b612661906002612ab5565b67ffffffffffffffff81111561267957612679612ac8565b6040519080825280601f01601f1916602001820160405280156126a3576020820181803683370190505b509050600360fc1b816000815181106126be576126be612996565b60200101906001600160f81b031916908160001a905350600f60fb1b816001815181106126ed576126ed612996565b60200101906001600160f81b031916908160001a90535060006127118460026129c2565b61271c906001612ab5565b90505b6001811115612794576f181899199a1a9b1b9c1cb0b131b232b360811b85600f166010811061275057612750612996565b1a60f81b82828151811061276657612766612996565b60200101906001600160f81b031916908160001a90535060049490941c9361278d81612b45565b905061271f565b5083156127e35760405162461bcd60e51b815260206004820181905260248201527f537472696e67733a20686578206c656e67746820696e73756666696369656e7460448201526064016107ca565b9392505050565b6000602082840312156127fc57600080fd5b81356001600160e01b0319811681146127e357600080fd5b6000806040838503121561282757600080fd5b50508035926020909101359150565b6000806020838503121561284957600080fd5b823567ffffffffffffffff8082111561286157600080fd5b818501915085601f83011261287557600080fd5b81358181111561288457600080fd5b8660208260051b850101111561289957600080fd5b60209290920196919550909350505050565b6000602082840312156128bd57600080fd5b5035919050565b6001600160a01b038116811461237d57600080fd5b600080604083850312156128ec57600080fd5b8235915060208301356128fe816128c4565b809150509250929050565b6020808252825182820181905260009190848201906040850190845b8181101561294157835183529284019291840191600101612925565b50909695505050505050565b60008060006060848603121561296257600080fd5b505081359360208301359350604090920135919050565b60006020828403121561298b57600080fd5b81356127e3816128c4565b634e487b7160e01b600052603260045260246000fd5b634e487b7160e01b600052601160045260246000fd5b8082028115828204841417610719576107196129ac565b6000826129f657634e487b7160e01b600052601260045260246000fd5b500490565b600060208284031215612a0d57600080fd5b81516127e3816128c4565b600060018201612a2a57612a2a6129ac565b5060010190565b60208082526022908201527f4552433237315374616b696e673a20726f756e6420646f65736e2774206578696040820152611cdd60f21b606082015260800190565b60208082526022908201527f4552433732315374616b696e673a20726f756e6420686173206e6f7420656e64604082015261195960f21b606082015260800190565b80820180821115610719576107196129ac565b634e487b7160e01b600052604160045260246000fd5b81810381811115610719576107196129ac565b60208082526034908201527f526f756e64436f6e74726f6c3a2063616e277420737461727420726f756e64206040820152736265666f72652070726576696f757320656e647360601b606082015260800190565b600081612b5457612b546129ac565b506000190190565b60005b83811015612b77578181015183820152602001612b5f565b50506000910152565b7f416363657373436f6e74726f6c3a206163636f756e7420000000000000000000815260008351612bb8816017850160208801612b5c565b7001034b99036b4b9b9b4b733903937b6329607d1b6017918401918201528351612be9816028840160208801612b5c565b01602801949350505050565b6020815260008251806020840152612c14816040850160208701612b5c565b601f01601f1916919091016040019291505056fea2646970667358221220a9e4e3f64871ecb14fedf604942f87a3e3615dc0882cd9065ab1a6539c07ebbc64736f6c63430008110033",
  "linkReferences": {},
  "deployedLinkReferences": {}
}