{
  "_format": "hh-sol-artifact-1",
  "contractName": "ERC721Staking",
  "sourceName": "contracts/ERC721Staking.sol",
  "abi": [
    {
      "inputs": [
        {
          "internalType": "address",
          "name": "nftAddress_",
          "type": "address"
        }
      ],
      "stateMutability": "nonpayable",
      "type": "constructor"
    },
    {
      "anonymous": false,
      "inputs": [
        {
          "indexed": false,
          "internalType": "uint256",
          "name": "startTime",
          "type": "uint256"
        },
        {
          "indexed": false,
          "internalType": "uint256",
          "name": "duration",
          "type": "uint256"
        },
        {
          "indexed": false,
          "internalType": "uint256",
          "name": "endTime",
          "type": "uint256"
        },
        {
          "indexed": false,
          "internalType": "uint256",
          "name": "amount",
          "type": "uint256"
        }
      ],
      "name": "CreateRound",
      "type": "event"
    },
    {
      "anonymous": false,
      "inputs": [
        {
          "indexed": false,
          "internalType": "uint256",
          "name": "tokenId",
          "type": "uint256"
        },
        {
          "indexed": false,
          "internalType": "address",
          "name": "sender",
          "type": "address"
        }
      ],
      "name": "DepositERC721",
      "type": "event"
    },
    {
      "anonymous": false,
      "inputs": [
        {
          "indexed": false,
          "internalType": "uint256",
          "name": "roundIndex",
          "type": "uint256"
        },
        {
          "indexed": false,
          "internalType": "uint256",
          "name": "amount",
          "type": "uint256"
        }
      ],
      "name": "DepositFunds",
      "type": "event"
    },
    {
      "anonymous": false,
      "inputs": [
        {
          "indexed": true,
          "internalType": "address",
          "name": "previousOwner",
          "type": "address"
        },
        {
          "indexed": true,
          "internalType": "address",
          "name": "newOwner",
          "type": "address"
        }
      ],
      "name": "OwnershipTransferred",
      "type": "event"
    },
    {
      "anonymous": false,
      "inputs": [
        {
          "indexed": true,
          "internalType": "bytes32",
          "name": "role",
          "type": "bytes32"
        },
        {
          "indexed": true,
          "internalType": "bytes32",
          "name": "previousAdminRole",
          "type": "bytes32"
        },
        {
          "indexed": true,
          "internalType": "bytes32",
          "name": "newAdminRole",
          "type": "bytes32"
        }
      ],
      "name": "RoleAdminChanged",
      "type": "event"
    },
    {
      "anonymous": false,
      "inputs": [
        {
          "indexed": true,
          "internalType": "bytes32",
          "name": "role",
          "type": "bytes32"
        },
        {
          "indexed": true,
          "internalType": "address",
          "name": "account",
          "type": "address"
        },
        {
          "indexed": true,
          "internalType": "address",
          "name": "sender",
          "type": "address"
        }
      ],
      "name": "RoleGranted",
      "type": "event"
    },
    {
      "anonymous": false,
      "inputs": [
        {
          "indexed": true,
          "internalType": "bytes32",
          "name": "role",
          "type": "bytes32"
        },
        {
          "indexed": true,
          "internalType": "address",
          "name": "account",
          "type": "address"
        },
        {
          "indexed": true,
          "internalType": "address",
          "name": "sender",
          "type": "address"
        }
      ],
      "name": "RoleRevoked",
      "type": "event"
    },
    {
      "anonymous": false,
      "inputs": [
        {
          "indexed": false,
          "internalType": "uint256",
          "name": "startTime",
          "type": "uint256"
        },
        {
          "indexed": false,
          "internalType": "uint256",
          "name": "duration",
          "type": "uint256"
        },
        {
          "indexed": false,
          "internalType": "uint256",
          "name": "endTime",
          "type": "uint256"
        },
        {
          "indexed": false,
          "internalType": "uint256",
          "name": "amount",
          "type": "uint256"
        }
      ],
      "name": "UpdateRound",
      "type": "event"
    },
    {
      "anonymous": false,
      "inputs": [
        {
          "indexed": false,
          "internalType": "uint256",
          "name": "tokenId",
          "type": "uint256"
        },
        {
          "indexed": false,
          "internalType": "address",
          "name": "sender",
          "type": "address"
        }
      ],
      "name": "WithdrawERC721",
      "type": "event"
    },
    {
      "inputs": [],
      "name": "DEFAULT_ADMIN_ROLE",
      "outputs": [
        {
          "internalType": "bytes32",
          "name": "",
          "type": "bytes32"
        }
      ],
      "stateMutability": "view",
      "type": "function"
    },
    {
      "inputs": [
        {
          "internalType": "uint256",
          "name": "roundIndex_",
          "type": "uint256"
        }
      ],
      "name": "claimForRound",
      "outputs": [],
      "stateMutability": "nonpayable",
      "type": "function"
    },
    {
      "inputs": [
        {
          "internalType": "uint256",
          "name": "roundIndex_",
          "type": "uint256"
        },
        {
          "internalType": "uint256",
          "name": "tokenId_",
          "type": "uint256"
        }
      ],
      "name": "claimForRoundByToken",
      "outputs": [],
      "stateMutability": "nonpayable",
      "type": "function"
    },
    {
      "inputs": [
        {
          "internalType": "uint256",
          "name": "",
          "type": "uint256"
        },
        {
          "internalType": "uint256",
          "name": "",
          "type": "uint256"
        }
      ],
      "name": "claimed",
      "outputs": [
        {
          "internalType": "uint256",
          "name": "",
          "type": "uint256"
        }
      ],
      "stateMutability": "view",
      "type": "function"
    },
    {
      "inputs": [
        {
          "internalType": "uint256",
          "name": "startTime_",
          "type": "uint256"
        },
        {
          "internalType": "uint256",
          "name": "duration_",
          "type": "uint256"
        }
      ],
      "name": "createRound",
      "outputs": [],
      "stateMutability": "nonpayable",
      "type": "function"
    },
    {
      "inputs": [
        {
          "internalType": "uint256[]",
          "name": "_tokenIds",
          "type": "uint256[]"
        }
      ],
      "name": "deposit",
      "outputs": [],
      "stateMutability": "nonpayable",
      "type": "function"
    },
    {
      "inputs": [
        {
          "internalType": "uint256",
          "name": "roundIndex_",
          "type": "uint256"
        },
        {
          "internalType": "uint256",
          "name": "amount_",
          "type": "uint256"
        }
      ],
      "name": "depositFunds",
      "outputs": [],
      "stateMutability": "payable",
      "type": "function"
    },
    {
      "inputs": [
        {
          "internalType": "uint256",
          "name": "",
          "type": "uint256"
        }
      ],
      "name": "depositTime",
      "outputs": [
        {
          "internalType": "uint256",
          "name": "",
          "type": "uint256"
        }
      ],
      "stateMutability": "view",
      "type": "function"
    },
    {
      "inputs": [
        {
          "internalType": "uint256",
          "name": "roundIndex_",
          "type": "uint256"
        },
        {
          "internalType": "address",
          "name": "address_",
          "type": "address"
        }
      ],
      "name": "getAllocatedByAddress",
      "outputs": [
        {
          "internalType": "uint256",
          "name": "",
          "type": "uint256"
        }
      ],
      "stateMutability": "view",
      "type": "function"
    },
    {
      "inputs": [
        {
          "internalType": "uint256",
          "name": "roundIndex_",
          "type": "uint256"
        },
        {
          "internalType": "uint256",
          "name": "tokenId_",
          "type": "uint256"
        }
      ],
      "name": "getAllocatedForToken",
      "outputs": [
        {
          "internalType": "uint256",
          "name": "",
          "type": "uint256"
        }
      ],
      "stateMutability": "view",
      "type": "function"
    },
    {
      "inputs": [
        {
          "internalType": "uint256",
          "name": "roundIndex_",
          "type": "uint256"
        },
        {
          "internalType": "address",
          "name": "address_",
          "type": "address"
        }
      ],
      "name": "getClaimedByAddress",
      "outputs": [
        {
          "internalType": "uint256",
          "name": "",
          "type": "uint256"
        }
      ],
      "stateMutability": "view",
      "type": "function"
    },
    {
      "inputs": [
        {
          "internalType": "uint256",
          "name": "roundIndex_",
          "type": "uint256"
        },
        {
          "internalType": "uint256",
          "name": "tokenId_",
          "type": "uint256"
        }
      ],
      "name": "getClaimedForToken",
      "outputs": [
        {
          "internalType": "uint256",
          "name": "",
          "type": "uint256"
        }
      ],
      "stateMutability": "view",
      "type": "function"
    },
    {
      "inputs": [
        {
          "internalType": "uint256",
          "name": "roundIndex_",
          "type": "uint256"
        },
        {
          "internalType": "uint256",
          "name": "tokenId_",
          "type": "uint256"
        }
      ],
      "name": "getDurationStakedForRound",
      "outputs": [
        {
          "internalType": "uint256",
          "name": "",
          "type": "uint256"
        }
      ],
      "stateMutability": "view",
      "type": "function"
    },
    {
      "inputs": [
        {
          "internalType": "uint256",
          "name": "roundIndex_",
          "type": "uint256"
        }
      ],
      "name": "getNbTokensForRound",
      "outputs": [
        {
          "internalType": "uint256",
          "name": "",
          "type": "uint256"
        }
      ],
      "stateMutability": "view",
      "type": "function"
    },
    {
      "inputs": [
        {
          "internalType": "uint256",
          "name": "roundIndex_",
          "type": "uint256"
        },
        {
          "internalType": "address",
          "name": "address_",
          "type": "address"
        }
      ],
      "name": "getNbTokensForRoundByAddress",
      "outputs": [
        {
          "internalType": "uint256",
          "name": "",
          "type": "uint256"
        }
      ],
      "stateMutability": "view",
      "type": "function"
    },
    {
      "inputs": [
        {
          "internalType": "bytes32",
          "name": "role",
          "type": "bytes32"
        }
      ],
      "name": "getRoleAdmin",
      "outputs": [
        {
          "internalType": "bytes32",
          "name": "",
          "type": "bytes32"
        }
      ],
      "stateMutability": "view",
      "type": "function"
    },
    {
      "inputs": [],
      "name": "getStakers",
      "outputs": [
        {
          "internalType": "address[]",
          "name": "",
          "type": "address[]"
        }
      ],
      "stateMutability": "view",
      "type": "function"
    },
    {
      "inputs": [],
      "name": "getTokens",
      "outputs": [
        {
          "internalType": "uint256[]",
          "name": "",
          "type": "uint256[]"
        }
      ],
      "stateMutability": "view",
      "type": "function"
    },
    {
      "inputs": [
        {
          "internalType": "address",
          "name": "address_",
          "type": "address"
        }
      ],
      "name": "getTokensByAddress",
      "outputs": [
        {
          "internalType": "uint256[]",
          "name": "",
          "type": "uint256[]"
        }
      ],
      "stateMutability": "view",
      "type": "function"
    },
    {
      "inputs": [
        {
          "internalType": "uint256",
          "name": "roundIndex_",
          "type": "uint256"
        }
      ],
      "name": "getTokensForRound",
      "outputs": [
        {
          "internalType": "uint256[]",
          "name": "",
          "type": "uint256[]"
        }
      ],
      "stateMutability": "view",
      "type": "function"
    },
    {
      "inputs": [
        {
          "internalType": "uint256",
          "name": "roundIndex_",
          "type": "uint256"
        },
        {
          "internalType": "address",
          "name": "address_",
          "type": "address"
        }
      ],
      "name": "getTokensForRoundByAddress",
      "outputs": [
        {
          "internalType": "uint256[]",
          "name": "",
          "type": "uint256[]"
        }
      ],
      "stateMutability": "view",
      "type": "function"
    },
    {
      "inputs": [
        {
          "internalType": "uint256",
          "name": "roundIndex_",
          "type": "uint256"
        },
        {
          "internalType": "address",
          "name": "address_",
          "type": "address"
        }
      ],
      "name": "getUnclaimedByAddress",
      "outputs": [
        {
          "internalType": "uint256",
          "name": "",
          "type": "uint256"
        }
      ],
      "stateMutability": "view",
      "type": "function"
    },
    {
      "inputs": [
        {
          "internalType": "uint256",
          "name": "roundIndex_",
          "type": "uint256"
        },
        {
          "internalType": "uint256",
          "name": "tokenId_",
          "type": "uint256"
        }
      ],
      "name": "getUnclaimedForToken",
      "outputs": [
        {
          "internalType": "uint256",
          "name": "",
          "type": "uint256"
        }
      ],
      "stateMutability": "view",
      "type": "function"
    },
    {
      "inputs": [
        {
          "internalType": "uint256",
          "name": "roundIndex_",
          "type": "uint256"
        },
        {
          "internalType": "address",
          "name": "address_",
          "type": "address"
        }
      ],
      "name": "getWeightedAverageByAddress",
      "outputs": [
        {
          "internalType": "uint256",
          "name": "",
          "type": "uint256"
        }
      ],
      "stateMutability": "view",
      "type": "function"
    },
    {
      "inputs": [
        {
          "internalType": "uint256",
          "name": "roundIndex_",
          "type": "uint256"
        },
        {
          "internalType": "uint256",
          "name": "tokenId_",
          "type": "uint256"
        }
      ],
      "name": "getWeightedAverageByToken",
      "outputs": [
        {
          "internalType": "uint256",
          "name": "",
          "type": "uint256"
        }
      ],
      "stateMutability": "view",
      "type": "function"
    },
    {
      "inputs": [
        {
          "internalType": "uint256",
          "name": "roundIndex_",
          "type": "uint256"
        }
      ],
      "name": "getWeightedAverageForRound",
      "outputs": [
        {
          "internalType": "uint256[]",
          "name": "",
          "type": "uint256[]"
        }
      ],
      "stateMutability": "view",
      "type": "function"
    },
    {
      "inputs": [
        {
          "internalType": "bytes32",
          "name": "role",
          "type": "bytes32"
        },
        {
          "internalType": "address",
          "name": "account",
          "type": "address"
        }
      ],
      "name": "grantRole",
      "outputs": [],
      "stateMutability": "nonpayable",
      "type": "function"
    },
    {
      "inputs": [
        {
          "internalType": "bytes32",
          "name": "role",
          "type": "bytes32"
        },
        {
          "internalType": "address",
          "name": "account",
          "type": "address"
        }
      ],
      "name": "hasRole",
      "outputs": [
        {
          "internalType": "bool",
          "name": "",
          "type": "bool"
        }
      ],
      "stateMutability": "view",
      "type": "function"
    },
    {
      "inputs": [],
      "name": "nbRounds",
      "outputs": [
        {
          "internalType": "uint256",
          "name": "",
          "type": "uint256"
        }
      ],
      "stateMutability": "view",
      "type": "function"
    },
    {
      "inputs": [],
      "name": "nftCollection",
      "outputs": [
        {
          "internalType": "contract IERC721",
          "name": "",
          "type": "address"
        }
      ],
      "stateMutability": "view",
      "type": "function"
    },
    {
      "inputs": [],
      "name": "owner",
      "outputs": [
        {
          "internalType": "address",
          "name": "",
          "type": "address"
        }
      ],
      "stateMutability": "view",
      "type": "function"
    },
    {
      "inputs": [],
      "name": "renounceOwnership",
      "outputs": [],
      "stateMutability": "nonpayable",
      "type": "function"
    },
    {
      "inputs": [
        {
          "internalType": "bytes32",
          "name": "role",
          "type": "bytes32"
        },
        {
          "internalType": "address",
          "name": "account",
          "type": "address"
        }
      ],
      "name": "renounceRole",
      "outputs": [],
      "stateMutability": "nonpayable",
      "type": "function"
    },
    {
      "inputs": [
        {
          "internalType": "bytes32",
          "name": "role",
          "type": "bytes32"
        },
        {
          "internalType": "address",
          "name": "account",
          "type": "address"
        }
      ],
      "name": "revokeRole",
      "outputs": [],
      "stateMutability": "nonpayable",
      "type": "function"
    },
    {
      "inputs": [
        {
          "internalType": "uint256",
          "name": "",
          "type": "uint256"
        }
      ],
      "name": "rounds",
      "outputs": [
        {
          "internalType": "uint256",
          "name": "startTime",
          "type": "uint256"
        },
        {
          "internalType": "uint256",
          "name": "duration",
          "type": "uint256"
        },
        {
          "internalType": "uint256",
          "name": "endTime",
          "type": "uint256"
        },
        {
          "internalType": "uint256",
          "name": "amount",
          "type": "uint256"
        }
      ],
      "stateMutability": "view",
      "type": "function"
    },
    {
      "inputs": [
        {
          "internalType": "uint256",
          "name": "",
          "type": "uint256"
        }
      ],
      "name": "stakerAddress",
      "outputs": [
        {
          "internalType": "address",
          "name": "",
          "type": "address"
        }
      ],
      "stateMutability": "view",
      "type": "function"
    },
    {
      "inputs": [
        {
          "internalType": "uint256",
          "name": "",
          "type": "uint256"
        }
      ],
      "name": "stakersArray",
      "outputs": [
        {
          "internalType": "address",
          "name": "",
          "type": "address"
        }
      ],
      "stateMutability": "view",
      "type": "function"
    },
    {
      "inputs": [
        {
          "internalType": "bytes4",
          "name": "interfaceId",
          "type": "bytes4"
        }
      ],
      "name": "supportsInterface",
      "outputs": [
        {
          "internalType": "bool",
          "name": "",
          "type": "bool"
        }
      ],
      "stateMutability": "view",
      "type": "function"
    },
    {
      "inputs": [
        {
          "internalType": "uint256",
          "name": "",
          "type": "uint256"
        }
      ],
      "name": "tokensArray",
      "outputs": [
        {
          "internalType": "uint256",
          "name": "",
          "type": "uint256"
        }
      ],
      "stateMutability": "view",
      "type": "function"
    },
    {
      "inputs": [
        {
          "internalType": "address",
          "name": "",
          "type": "address"
        },
        {
          "internalType": "uint256",
          "name": "",
          "type": "uint256"
        }
      ],
      "name": "tokensByAddress",
      "outputs": [
        {
          "internalType": "uint256",
          "name": "",
          "type": "uint256"
        }
      ],
      "stateMutability": "view",
      "type": "function"
    },
    {
      "inputs": [
        {
          "internalType": "address",
          "name": "newOwner",
          "type": "address"
        }
      ],
      "name": "transferOwnership",
      "outputs": [],
      "stateMutability": "nonpayable",
      "type": "function"
    },
    {
      "inputs": [
        {
          "internalType": "uint256",
          "name": "roundIndex_",
          "type": "uint256"
        },
        {
          "internalType": "uint256",
          "name": "startTime_",
          "type": "uint256"
        },
        {
          "internalType": "uint256",
          "name": "duration_",
          "type": "uint256"
        }
      ],
      "name": "updateRound",
      "outputs": [],
      "stateMutability": "nonpayable",
      "type": "function"
    },
    {
      "inputs": [
        {
          "internalType": "uint256[]",
          "name": "_tokenIds",
          "type": "uint256[]"
        }
      ],
      "name": "withdraw",
      "outputs": [],
      "stateMutability": "nonpayable",
      "type": "function"
    }
  ],
  "bytecode": "0x60806040523480156200001157600080fd5b506040516200345f3803806200345f8339810160408190526200003491620001cf565b6200003f33620000f6565b60016002556001600160a01b038116620000b55760405162461bcd60e51b815260206004820152602d60248201527f4552433732315374616b696e673a204552433732312063616e206e6f7420626560448201526c2061646472657373207a65726f60981b606482015260840160405180910390fd5b600380546001600160a01b0319166001600160a01b038316179055620000ef6000620000e96000546001600160a01b031690565b62000146565b5062000201565b600080546001600160a01b038381166001600160a01b0319831681178455604051919092169283917f8be0079c531659141344cd1fd0a4f28419497f9722a3daafe3b4186f6b6457e09190a35050565b60008281526001602090815260408083206001600160a01b038516845290915290205460ff16620001cb5760008281526001602081815260408084206001600160a01b0386168086529252808420805460ff19169093179092559051339285917f2f8788117e7eff1d82e926ec794901d17c78024a50270940304540a733656f0d9190a45b5050565b600060208284031215620001e257600080fd5b81516001600160a01b0381168114620001fa57600080fd5b9392505050565b61324e80620002116000396000f3fe60806040526004361061025c5760003560e01c806371a8352f11610144578063a54ab457116100b6578063d547741f1161007a578063d547741f146107a1578063d723c1e2146107c1578063e6abc789146107e1578063ec796908146107f6578063f2fde38b14610816578063f52e51331461083657600080fd5b8063a54ab457146106f4578063aa6ca8081461072c578063ba27d56f14610741578063c6e1e73214610761578063c9b4c1871461078157600080fd5b8063919ca0a111610108578063919ca0a11461061157806391d14854146106315780639406704514610651578063983d95ce14610687578063a11b74d3146106a7578063a217fddf146106df57600080fd5b806371a8352f146105535780637c55d97414610573578063848ee75f146105935780638c65c81f146105b35780638da5cb5b146105f357600080fd5b806338c6c270116101dd5780635357e916116101a15780635357e91614610493578063598b8e71146104cb57806361638ed5146104eb5780636588103b146104fe5780636ee044b11461051e578063715018a61461053e57600080fd5b806338c6c270146103e4578063394d1237146104045780633ff2fa711461042457806343352d61146104515780634583cb1c1461047357600080fd5b8063121573ed11610224578063121573ed14610333578063248a9ca3146103535780632cb6ddb7146103845780632f2ff15d146103a457806336568abe146103c457600080fd5b806301ffc9a714610261578063025f91c1146102965780630443acb7146102c357806307ca3645146102f15780630dd0836d14610311575b600080fd5b34801561026d57600080fd5b5061028161027c366004612d56565b610856565b60405190151581526020015b60405180910390f35b3480156102a257600080fd5b506102b66102b1366004612d80565b61088d565b60405161028d9190612d99565b3480156102cf57600080fd5b506102e36102de366004612df2565b610a28565b60405190815260200161028d565b3480156102fd57600080fd5b506102b661030c366004612e22565b610aea565b34801561031d57600080fd5b5061033161032c366004612d80565b610b56565b005b34801561033f57600080fd5b506102e361034e366004612e3f565b610c24565b34801561035f57600080fd5b506102e361036e366004612d80565b6000908152600160208190526040909120015490565b34801561039057600080fd5b506102b661039f366004612d80565b610d33565b3480156103b057600080fd5b506103316103bf366004612df2565b610f22565b3480156103d057600080fd5b506103316103df366004612df2565b610f4d565b3480156103f057600080fd5b506102e36103ff366004612df2565b610fcb565b34801561041057600080fd5b506102e361041f366004612df2565b6110b9565b34801561043057600080fd5b506102e361043f366004612d80565b60066020526000908152604090205481565b34801561045d57600080fd5b5061046661118a565b60405161028d9190612e61565b34801561047f57600080fd5b506102b661048e366004612df2565b6111ec565b34801561049f57600080fd5b506104b36104ae366004612d80565b6113e9565b6040516001600160a01b03909116815260200161028d565b3480156104d757600080fd5b506103316104e6366004612ea2565b611413565b6103316104f9366004612e3f565b6116ba565b34801561050a57600080fd5b506003546104b3906001600160a01b031681565b34801561052a57600080fd5b506102e3610539366004612e3f565b611822565b34801561054a57600080fd5b506103316118ce565b34801561055f57600080fd5b506102e361056e366004612df2565b6118e2565b34801561057f57600080fd5b506102e361058e366004612df2565b61191b565b34801561059f57600080fd5b506103316105ae366004612e3f565b6119d4565b3480156105bf57600080fd5b506105d36105ce366004612d80565b611b22565b60408051948552602085019390935291830152606082015260800161028d565b3480156105ff57600080fd5b506000546001600160a01b03166104b3565b34801561061d57600080fd5b506102e361062c366004612e3f565b611b5c565b34801561063d57600080fd5b5061028161064c366004612df2565b611b91565b34801561065d57600080fd5b506104b361066c366004612d80565b6005602052600090815260409020546001600160a01b031681565b34801561069357600080fd5b506103316106a2366004612ea2565b611bbc565b3480156106b357600080fd5b506102e36106c2366004612e3f565b600091825260086020908152604080842092845291905290205490565b3480156106eb57600080fd5b506102e3600081565b34801561070057600080fd5b506102e361070f366004612e3f565b600860209081526000928352604080842090915290825290205481565b34801561073857600080fd5b506102b6611dbf565b34801561074d57600080fd5b506102e361075c366004612f17565b611e16565b34801561076d57600080fd5b5061033161077c366004612f43565b611e47565b34801561078d57600080fd5b506102e361079c366004612e3f565b61208f565b3480156107ad57600080fd5b506103316107bc366004612df2565b612204565b3480156107cd57600080fd5b506102e36107dc366004612d80565b61222a565b3480156107ed57600080fd5b506004546102e3565b34801561080257600080fd5b506102e3610811366004612d80565b612261565b34801561082257600080fd5b50610331610831366004612e22565b612282565b34801561084257600080fd5b50610331610851366004612e3f565b6122fb565b60006001600160e01b03198216637965db0b60e01b148061088757506301ffc9a760e01b6001600160e01b03198316145b92915050565b600454606090829081106108bc5760405162461bcd60e51b81526004016108b390612f6f565b60405180910390fd5b604080516000808252602082019092526000600486815481106108e1576108e1612fc7565b906000526020600020906004020160020154905060005b600a54811015610a1d576000600a828154811061091757610917612fc7565b906000526020600020015490508260066000838152602001908152602001600020541015610a0a578461094981612ff3565b95505060008567ffffffffffffffff81111561096757610967612fb1565b604051908082528060200260200182016040528015610990578160200160208202803683370190505b50905060005b85518110156109e8578581815181106109b1576109b1612fc7565b60200260200101518282815181106109cb576109cb612fc7565b6020908102919091010152806109e081612ff3565b915050610996565b50818184815181106109fc576109fc612fc7565b602090810291909101015293505b5080610a1581612ff3565b9150506108f8565b509095945050505050565b6001600160a01b038116600090815260076020908152604080832080548251818502810185019093528083528493830182828015610a8557602002820191906000526020600020905b815481526020019060010190808311610a71575b505050505090506000805b8251811015610ae1576000838281518110610aad57610aad612fc7565b60200260200101519050610ac18782611b5c565b610acb908461300c565b9250508080610ad990612ff3565b915050610a90565b50949350505050565b6001600160a01b038116600090815260076020908152604091829020805483518184028101840190945280845260609392830182828015610b4a57602002820191906000526020600020905b815481526020019060010190808311610b36575b50505050509050919050565b60045481908110610b795760405162461bcd60e51b81526004016108b390612f6f565b33600090815260076020908152604080832080548251818502810185019093528083529192909190830182828015610bd057602002820191906000526020600020905b815481526020019060010190808311610bbc575b5050505050905060005b8151811015610c1e576000828281518110610bf757610bf7612fc7565b60200260200101519050610c0b85826122fb565b5080610c1681612ff3565b915050610bda565b50505050565b60045460009083908110610c4a5760405162461bcd60e51b81526004016108b390612f6f565b60008381526005602052604090205483906001600160a01b0316610c805760405162461bcd60e51b81526004016108b39061301f565b600060048681548110610c9557610c95612fc7565b60009182526020808320604080516080810182526004909402909101805484526001810154848401526002810154848301526003015460608401528884526006909152822054815191935091904210610d26578251821015610cf657825191505b4283604001511015610d1957818360400151610d129190613061565b9050610d26565b610d238242613061565b90505b945050505b505092915050565b60045460609082908110610d595760405162461bcd60e51b81526004016108b390612f6f565b600a5460009067ffffffffffffffff811115610d7757610d77612fb1565b604051908082528060200260200182016040528015610da0578160200160208202803683370190505b509050600060048581548110610db857610db8612fc7565b906000526020600020906004020160405180608001604052908160008201548152602001600182015481526020016002820154815260200160038201548152505090504281600001511015610f1a576000805b600a54811015610ea3576000600a8281548110610e2a57610e2a612fc7565b90600052602060002001549050836040015160066000838152602001908152602001600020541015610e90576000610e628983610c24565b905080868481518110610e7757610e77612fc7565b6020908102919091010152610e8c818561300c565b9350505b5080610e9b81612ff3565b915050610e0b565b5060005b8351811015610f175781848281518110610ec357610ec3612fc7565b6020026020010151670de0b6b3a7640000610ede9190613074565b610ee8919061308b565b848281518110610efa57610efa612fc7565b602090810291909101015280610f0f81612ff3565b915050610ea7565b50505b509392505050565b60008281526001602081905260409091200154610f3e816124d4565b610f4883836124de565b505050565b6001600160a01b0381163314610fbd5760405162461bcd60e51b815260206004820152602f60248201527f416363657373436f6e74726f6c3a2063616e206f6e6c792072656e6f756e636560448201526e103937b632b9903337b91039b2b63360891b60648201526084016108b3565b610fc78282612549565b5050565b60045460009083908110610ff15760405162461bcd60e51b81526004016108b390612f6f565b6001600160a01b03831660009081526007602090815260408083208054825181850281018501909352808352919290919083018282801561105157602002820191906000526020600020905b81548152602001906001019080831161103d575b505050505090506000805b82518110156110ad57600083828151811061107957611079612fc7565b6020026020010151905061108d8882611822565b611097908461300c565b92505080806110a590612ff3565b91505061105c565b509250505b5092915050565b6001600160a01b03811660009081526007602090815260408083208054825181850281018501909352808352849383018282801561111657602002820191906000526020600020905b815481526020019060010190808311611102575b505050505090506000805b8251811015610ae157600083828151811061113e5761113e612fc7565b6020026020010151905061116a8782600091825260086020908152604080842092845291905290205490565b611174908461300c565b925050808061118290612ff3565b915050611121565b606060098054806020026020016040519081016040528092919081815260200182805480156111e257602002820191906000526020600020905b81546001600160a01b031681526001909101906020018083116111c4575b5050505050905090565b600454606090839081106112125760405162461bcd60e51b81526004016108b390612f6f565b6001600160a01b03831660009081526007602090815260408083208054825181850281018501909352808352919290919083018282801561127257602002820191906000526020600020905b81548152602001906001019080831161125e575b5050505050905060006004868154811061128e5761128e612fc7565b6000918252602080832060049290920290910160020154604080518481529283019052925060005b84518110156113dd5760008582815181106112d3576112d3612fc7565b60200260200101519050600060066000838152602001908152602001600020549050858110156113c8578461130781612ff3565b95505060008567ffffffffffffffff81111561132557611325612fb1565b60405190808252806020026020018201604052801561134e578160200160208202803683370190505b50905060005b85518110156113a65785818151811061136f5761136f612fc7565b602002602001015182828151811061138957611389612fc7565b60209081029190910101528061139e81612ff3565b915050611354565b50828185815181106113ba576113ba612fc7565b602090810291909101015293505b505080806113d590612ff3565b9150506112b6565b50979650505050505050565b600981815481106113f957600080fd5b6000918252602090912001546001600160a01b0316905081565b60028054036114645760405162461bcd60e51b815260206004820152601f60248201527f5265656e7472616e637947756172643a207265656e7472616e742063616c6c0060448201526064016108b3565b600280558060005b818110156116af57600084848381811061148857611488612fc7565b6003546040516331a9108f60e11b8152602092909202939093013560048201819052935033926001600160a01b03169150636352211e90602401602060405180830381865afa1580156114df573d6000803e3d6000fd5b505050506040513d601f19601f8201168201806040525081019061150391906130ad565b6001600160a01b0316146115735760405162461bcd60e51b815260206004820152603160248201527f4552433732315374616b696e673a2063616e2774206465706f73697420746f6b60448201527032b739903cb7ba903237b713ba1037bbb760791b60648201526084016108b3565b6003546040516323b872dd60e01b8152336004820152306024820152604481018390526001600160a01b03909116906323b872dd90606401600060405180830381600087803b1580156115c557600080fd5b505af11580156115d9573d6000803e3d6000fd5b505050600082815260056020908152604080832080546001600160a01b0319163390811790915560068352818420429055808452600783529083208054600181018255908452919092200183905561163191506125b0565b600a80546001810182556000919091527fc65a7bb8d6351c1cf70c95a316cc6a92839c986682d98bc35f958f4883f9d2a801819055604080518281523360208201527f3b71b6458b8b8b810b3254a0949e5eb0a1d2e94d81016898eed6c87204407348910160405180910390a1506116a881612ff3565b905061146c565b505060016002555050565b60006116c5816124d4565b60045483106116e65760405162461bcd60e51b81526004016108b390612f6f565b600034116117405760405162461bcd60e51b815260206004820152602160248201527f4552433237315374616b696e673a204d75737420696e636c7564652066756e646044820152607360f81b60648201526084016108b3565b34821461179f5760405162461bcd60e51b815260206004820152602760248201527f4552433237315374616b696e673a2046756e647320646f6e2774206d6174636860448201526608185b5bdd5b9d60ca1b60648201526084016108b3565b6000600484815481106117b4576117b4612fc7565b90600052602060002090600402019050348160030160008282546117d8919061300c565b909155505060038101546040805186815260208101929092527fc30d09038cdea01854d3b58940393d97d881e83f40ddc3a8225f32e76b584b14910160405180910390a150505050565b600454600090839081106118485760405162461bcd60e51b81526004016108b390612f6f565b600061185385610d33565b905060005b600a548110156118c2576000600a828154811061187757611877612fc7565b906000526020600020015490508581036118af5782828151811061189d5761189d612fc7565b602002602001015194505050506110b2565b50806118ba81612ff3565b915050611858565b50600095945050505050565b6118d661265d565b6118e060006126b7565b565b600454600090839081106119085760405162461bcd60e51b81526004016108b390612f6f565b61191284846111ec565b51949350505050565b6001600160a01b03811660009081526007602090815260408083208054825181850281018501909352808352849383018282801561197857602002820191906000526020600020905b815481526020019060010190808311611964575b505050505090506000805b8251811015610ae15760008382815181106119a0576119a0612fc7565b602002602001015190506119b4878261208f565b6119be908461300c565b92505080806119cc90612ff3565b915050611983565b60006119df816124d4565b60006119eb838561300c565b90506119f684612707565b60408051608081018252858152602081018581528183018481526000606084018181526004805460018101825592819052855192027f8a35acfbc15ff81a39ae7d344fd709f28e8600b4aa8c65c6b64bfe7fe36bd19b810183905593517f8a35acfbc15ff81a39ae7d344fd709f28e8600b4aa8c65c6b64bfe7fe36bd19c850181905592517f8a35acfbc15ff81a39ae7d344fd709f28e8600b4aa8c65c6b64bfe7fe36bd19d850181905590517f8a35acfbc15ff81a39ae7d344fd709f28e8600b4aa8c65c6b64bfe7fe36bd19e909401849055945193947fa0fcadbdb2410f3788118d67a694a47369fec2221d6639ac9b0d5743e066c47394611b13949293929093845260208401929092526040830152606082015260800190565b60405180910390a15050505050565b60048181548110611b3257600080fd5b60009182526020909120600490910201805460018201546002830154600390930154919350919084565b6000828152600860209081526040808320848452909152812054611b80848461208f565b611b8a9190613061565b9392505050565b60009182526001602090815260408084206001600160a01b0393909316845291905290205460ff1690565b6002805403611c0d5760405162461bcd60e51b815260206004820152601f60248201527f5265656e7472616e637947756172643a207265656e7472616e742063616c6c0060448201526064016108b3565b600280558060005b818110156116af576000848483818110611c3157611c31612fc7565b6020908102929092013560008181526005909352604090922054919250506001600160a01b0316338114611cc35760405162461bcd60e51b815260206004820152603360248201527f4552433732315374616b696e673a2063616e27742077697468647261772061206044820152723a37b5b2b7103cb7ba903237b713ba1037bbb760691b60648201526084016108b3565b611ccd3383612799565b611cd682612863565b611cdf33612918565b600082815260066020908152604080832083905560059091529081902080546001600160a01b031916905560035490516323b872dd60e01b8152306004820152336024820152604481018490526001600160a01b03909116906323b872dd90606401600060405180830381600087803b158015611d5b57600080fd5b505af1158015611d6f573d6000803e3d6000fd5b5050604080518581523360208201527fa6f0d40ea23cee9ff52d95c28e88096a93534c440da2e29b2fa2e24377c57d73935001905060405180910390a1505080611db890612ff3565b9050611c15565b6060600a8054806020026020016040519081016040528092919081815260200182805480156111e257602002820191906000526020600020905b815481526020019060010190808311611df9575050505050905090565b60076020528160005260406000208181548110611e3257600080fd5b90600052602060002001600091509150505481565b60045483908110611e6a5760405162461bcd60e51b81526004016108b390612f6f565b6000611e75816124d4565b8415611f025760006004611e8a600188613061565b81548110611e9a57611e9a612fc7565b9060005260206000209060040201604051806080016040529081600082015481526020016001820154815260200160028201548152602001600382015481525050905080604001518511611f005760405162461bcd60e51b81526004016108b3906130ca565b505b6000611f0e848661300c565b600454909150611f2090600190613061565b8610156120045760006004611f3688600161300c565b81548110611f4657611f46612fc7565b90600052602060002090600402016040518060800160405290816000820154815260200160018201548152602001600282015481526020016003820154815250509050806000015182106120025760405162461bcd60e51b815260206004820152603b60248201527f4552433732315374616b696e673a2063616e277420656e6420726f756e64206160448201527f66746572206e65787420726f756e64206861732073746172746564000000000060648201526084016108b3565b505b60006004878154811061201957612019612fc7565b600091825260209182902060049091020187815560018101879055600281018490556003810154604080518a81529384018990528301859052606083015291507f9904c897853ce894819efc49991d212b0d012e61c0eef40c117ef540db3d62a09060800160405180910390a150505050505050565b600454600090839081106120b55760405162461bcd60e51b81526004016108b390612f6f565b60008381526005602052604090205483906001600160a01b03166120eb5760405162461bcd60e51b81526004016108b39061301f565b60006004868154811061210057612100612fc7565b906000526020600020906004020160405180608001604052908160008201548152602001600182015481526020016002820154815260200160038201548152505090508060600151600003612159576000935050610d2b565b600061216487610d33565b905060005b600a548110156121f6576000600a828154811061218857612188612fc7565b906000526020600020015490508781036121e357670de0b6b3a764000084606001518484815181106121bc576121bc612fc7565b60200260200101516121ce9190613074565b6121d8919061308b565b965050505050610d2b565b50806121ee81612ff3565b915050612169565b506000979650505050505050565b60008281526001602081905260409091200154612220816124d4565b610f488383612549565b600454600090829081106122505760405162461bcd60e51b81526004016108b390612f6f565b6122598361088d565b519392505050565b600a818154811061227157600080fd5b600091825260209091200154905081565b61228a61265d565b6001600160a01b0381166122ef5760405162461bcd60e51b815260206004820152602660248201527f4f776e61626c653a206e6577206f776e657220697320746865207a65726f206160448201526564647265737360d01b60648201526084016108b3565b6122f8816126b7565b50565b6004548290811061231e5760405162461bcd60e51b81526004016108b390612f6f565b60008281526005602052604090205482906001600160a01b03166123545760405162461bcd60e51b81526004016108b39061301f565b60006004858154811061236957612369612fc7565b600091825260208083206040805160808101825260049094029091018054845260018101548484015260028101548483015260030154606084015287845260059091528220549092506001600160a01b0316906123c68787611b5c565b9050336001600160a01b038316146124355760405162461bcd60e51b815260206004820152602c60248201527f4552433732315374616b696e673a2073656e646572206973206e6f742074686560448201526b103a37b5b2b71037bbb732b960a11b60648201526084016108b3565b826040015142116124935760405162461bcd60e51b815260206004820152602260248201527f4552433732315374616b696e673a20726f756e6420686173206e6f7420656e64604482015261195960f21b60648201526084016108b3565b61249d8282612a3d565b6000878152600860209081526040808320898452909152812080548392906124c690849061300c565b909155505050505050505050565b6122f88133612b56565b6124e88282611b91565b610fc75760008281526001602081815260408084206001600160a01b0386168086529252808420805460ff19169093179092559051339285917f2f8788117e7eff1d82e926ec794901d17c78024a50270940304540a733656f0d9190a45050565b6125538282611b91565b15610fc75760008281526001602090815260408083206001600160a01b0385168085529252808320805460ff1916905551339285917ff6391f5c32d9c69d2a47ea670b442974b53935d1edc7fd64eb21e047a839171b9190a45050565b60005b60095481101561260a57816001600160a01b0316600982815481106125da576125da612fc7565b6000918252602090912001546001600160a01b0316036125f8575050565b8061260281612ff3565b9150506125b3565b50600980546001810182556000919091527f6e1540171b6c0c960b71a7020d9f60077f6af931a8bbf590da0223dacf75c7af0180546001600160a01b0319166001600160a01b0392909216919091179055565b6000546001600160a01b031633146118e05760405162461bcd60e51b815260206004820181905260248201527f4f776e61626c653a2063616c6c6572206973206e6f7420746865206f776e657260448201526064016108b3565b600080546001600160a01b038381166001600160a01b0319831681178455604051919092169283917f8be0079c531659141344cd1fd0a4f28419497f9722a3daafe3b4186f6b6457e09190a35050565b600454156122f857600480546000919061272390600190613061565b8154811061273357612733612fc7565b9060005260206000209060040201604051806080016040529081600082015481526020016001820154815260200160028201548152602001600382015481525050905080604001518211610fc75760405162461bcd60e51b81526004016108b3906130ca565b6001600160a01b0382166000908152600760205260408120905b8154811015610c1e57828282815481106127cf576127cf612fc7565b90600052602060002001540361285157815482906127ef90600190613061565b815481106127ff576127ff612fc7565b906000526020600020015482828154811061281c5761281c612fc7565b90600052602060002001819055508180548061283a5761283a61311f565b600190038181906000526020600020016000905590555b8061285b81612ff3565b9150506127b3565b60005b600a54811015610fc75781600a828154811061288457612884612fc7565b90600052602060002001540361290657600a80546128a490600190613061565b815481106128b4576128b4612fc7565b9060005260206000200154600a82815481106128d2576128d2612fc7565b600091825260209091200155600a8054806128ef576128ef61311f565b600190038181906000526020600020016000905590555b8061291081612ff3565b915050612866565b6001600160a01b038116600090815260076020526040902054156129395750565b60005b600954811015610fc757816001600160a01b03166009828154811061296357612963612fc7565b6000918252602090912001546001600160a01b031603612a2b576009805461298d90600190613061565b8154811061299d5761299d612fc7565b600091825260209091200154600980546001600160a01b0390921691839081106129c9576129c9612fc7565b9060005260206000200160006101000a8154816001600160a01b0302191690836001600160a01b031602179055506009805480612a0857612a0861311f565b600082815260209020810160001990810180546001600160a01b03191690550190555b80612a3581612ff3565b91505061293c565b80471015612a8d5760405162461bcd60e51b815260206004820152601d60248201527f416464726573733a20696e73756666696369656e742062616c616e636500000060448201526064016108b3565b6000826001600160a01b03168260405160006040518083038185875af1925050503d8060008114612ada576040519150601f19603f3d011682016040523d82523d6000602084013e612adf565b606091505b5050905080610f485760405162461bcd60e51b815260206004820152603a60248201527f416464726573733a20756e61626c6520746f2073656e642076616c75652c207260448201527f6563697069656e74206d6179206861766520726576657274656400000000000060648201526084016108b3565b612b608282611b91565b610fc757612b78816001600160a01b03166014612bba565b612b83836020612bba565b604051602001612b94929190613159565b60408051601f198184030181529082905262461bcd60e51b82526108b3916004016131ce565b60606000612bc9836002613074565b612bd490600261300c565b67ffffffffffffffff811115612bec57612bec612fb1565b6040519080825280601f01601f191660200182016040528015612c16576020820181803683370190505b509050600360fc1b81600081518110612c3157612c31612fc7565b60200101906001600160f81b031916908160001a905350600f60fb1b81600181518110612c6057612c60612fc7565b60200101906001600160f81b031916908160001a9053506000612c84846002613074565b612c8f90600161300c565b90505b6001811115612d07576f181899199a1a9b1b9c1cb0b131b232b360811b85600f1660108110612cc357612cc3612fc7565b1a60f81b828281518110612cd957612cd9612fc7565b60200101906001600160f81b031916908160001a90535060049490941c93612d0081613201565b9050612c92565b508315611b8a5760405162461bcd60e51b815260206004820181905260248201527f537472696e67733a20686578206c656e67746820696e73756666696369656e7460448201526064016108b3565b600060208284031215612d6857600080fd5b81356001600160e01b031981168114611b8a57600080fd5b600060208284031215612d9257600080fd5b5035919050565b6020808252825182820181905260009190848201906040850190845b81811015612dd157835183529284019291840191600101612db5565b50909695505050505050565b6001600160a01b03811681146122f857600080fd5b60008060408385031215612e0557600080fd5b823591506020830135612e1781612ddd565b809150509250929050565b600060208284031215612e3457600080fd5b8135611b8a81612ddd565b60008060408385031215612e5257600080fd5b50508035926020909101359150565b6020808252825182820181905260009190848201906040850190845b81811015612dd15783516001600160a01b031683529284019291840191600101612e7d565b60008060208385031215612eb557600080fd5b823567ffffffffffffffff80821115612ecd57600080fd5b818501915085601f830112612ee157600080fd5b813581811115612ef057600080fd5b8660208260051b8501011115612f0557600080fd5b60209290920196919550909350505050565b60008060408385031215612f2a57600080fd5b8235612f3581612ddd565b946020939093013593505050565b600080600060608486031215612f5857600080fd5b505081359360208301359350604090920135919050565b60208082526022908201527f4552433237315374616b696e673a20726f756e6420646f65736e2774206578696040820152611cdd60f21b606082015260800190565b634e487b7160e01b600052604160045260246000fd5b634e487b7160e01b600052603260045260246000fd5b634e487b7160e01b600052601160045260246000fd5b60006001820161300557613005612fdd565b5060010190565b8082018082111561088757610887612fdd565b60208082526022908201527f4552433237315374616b696e673a20746f6b656e206973206e6f74207374616b604082015261195960f21b606082015260800190565b8181038181111561088757610887612fdd565b808202811582820484141761088757610887612fdd565b6000826130a857634e487b7160e01b600052601260045260246000fd5b500490565b6000602082840312156130bf57600080fd5b8151611b8a81612ddd565b60208082526035908201527f4552433732315374616b696e673a2063616e277420737461727420726f756e64604082015274206265666f72652070726576696f757320656e647360581b606082015260800190565b634e487b7160e01b600052603160045260246000fd5b60005b83811015613150578181015183820152602001613138565b50506000910152565b7f416363657373436f6e74726f6c3a206163636f756e7420000000000000000000815260008351613191816017850160208801613135565b7001034b99036b4b9b9b4b733903937b6329607d1b60179184019182015283516131c2816028840160208801613135565b01602801949350505050565b60208152600082518060208401526131ed816040850160208701613135565b601f01601f19169190910160400192915050565b60008161321057613210612fdd565b50600019019056fea2646970667358221220de30fa2f5d99a24e12e820f35e95b1a217d0c331bddfc83485dd8fdb59ffd7e164736f6c63430008110033",
  "linkReferences": {},
  "deployedLinkReferences": {}
}