{
    "_format": "hh-sol-artifact-1",
    "contractName": "ERC721Staking",
    "sourceName": "contracts/ERC721Staking.sol",
    "abi": [
        {
            "inputs": [
                {
                    "internalType": "address",
                    "name": "nftAddress_",
                    "type": "address"
                }
            ],
            "stateMutability": "nonpayable",
            "type": "constructor"
        },
        {
            "anonymous": false,
            "inputs": [
                {
                    "indexed": false,
                    "internalType": "uint256",
                    "name": "startTime",
                    "type": "uint256"
                },
                {
                    "indexed": false,
                    "internalType": "uint256",
                    "name": "duration",
                    "type": "uint256"
                },
                {
                    "indexed": false,
                    "internalType": "uint256",
                    "name": "endTime",
                    "type": "uint256"
                },
                {
                    "indexed": false,
                    "internalType": "uint256",
                    "name": "amount",
                    "type": "uint256"
                }
            ],
            "name": "CreateRound",
            "type": "event"
        },
        {
            "anonymous": false,
            "inputs": [
                {
                    "indexed": false,
                    "internalType": "uint256",
                    "name": "tokenId",
                    "type": "uint256"
                },
                {
                    "indexed": false,
                    "internalType": "address",
                    "name": "sender",
                    "type": "address"
                }
            ],
            "name": "DepositERC721",
            "type": "event"
        },
        {
            "anonymous": false,
            "inputs": [
                {
                    "indexed": false,
                    "internalType": "uint256",
                    "name": "roundIndex",
                    "type": "uint256"
                },
                {
                    "indexed": false,
                    "internalType": "uint256",
                    "name": "amount",
                    "type": "uint256"
                }
            ],
            "name": "DepositFunds",
            "type": "event"
        },
        {
            "anonymous": false,
            "inputs": [
                {
                    "indexed": true,
                    "internalType": "address",
                    "name": "previousOwner",
                    "type": "address"
                },
                {
                    "indexed": true,
                    "internalType": "address",
                    "name": "newOwner",
                    "type": "address"
                }
            ],
            "name": "OwnershipTransferred",
            "type": "event"
        },
        {
            "anonymous": false,
            "inputs": [
                {
                    "indexed": true,
                    "internalType": "bytes32",
                    "name": "role",
                    "type": "bytes32"
                },
                {
                    "indexed": true,
                    "internalType": "bytes32",
                    "name": "previousAdminRole",
                    "type": "bytes32"
                },
                {
                    "indexed": true,
                    "internalType": "bytes32",
                    "name": "newAdminRole",
                    "type": "bytes32"
                }
            ],
            "name": "RoleAdminChanged",
            "type": "event"
        },
        {
            "anonymous": false,
            "inputs": [
                {
                    "indexed": true,
                    "internalType": "bytes32",
                    "name": "role",
                    "type": "bytes32"
                },
                {
                    "indexed": true,
                    "internalType": "address",
                    "name": "account",
                    "type": "address"
                },
                {
                    "indexed": true,
                    "internalType": "address",
                    "name": "sender",
                    "type": "address"
                }
            ],
            "name": "RoleGranted",
            "type": "event"
        },
        {
            "anonymous": false,
            "inputs": [
                {
                    "indexed": true,
                    "internalType": "bytes32",
                    "name": "role",
                    "type": "bytes32"
                },
                {
                    "indexed": true,
                    "internalType": "address",
                    "name": "account",
                    "type": "address"
                },
                {
                    "indexed": true,
                    "internalType": "address",
                    "name": "sender",
                    "type": "address"
                }
            ],
            "name": "RoleRevoked",
            "type": "event"
        },
        {
            "anonymous": false,
            "inputs": [
                {
                    "indexed": false,
                    "internalType": "uint256",
                    "name": "startTime",
                    "type": "uint256"
                },
                {
                    "indexed": false,
                    "internalType": "uint256",
                    "name": "duration",
                    "type": "uint256"
                },
                {
                    "indexed": false,
                    "internalType": "uint256",
                    "name": "endTime",
                    "type": "uint256"
                },
                {
                    "indexed": false,
                    "internalType": "uint256",
                    "name": "amount",
                    "type": "uint256"
                }
            ],
            "name": "UpdateRound",
            "type": "event"
        },
        {
            "anonymous": false,
            "inputs": [
                {
                    "indexed": false,
                    "internalType": "uint256",
                    "name": "tokenId",
                    "type": "uint256"
                },
                {
                    "indexed": false,
                    "internalType": "address",
                    "name": "sender",
                    "type": "address"
                }
            ],
            "name": "WithdrawERC721",
            "type": "event"
        },
        {
            "inputs": [],
            "name": "DEFAULT_ADMIN_ROLE",
            "outputs": [
                {
                    "internalType": "bytes32",
                    "name": "",
                    "type": "bytes32"
                }
            ],
            "stateMutability": "view",
            "type": "function"
        },
        {
            "inputs": [
                {
                    "internalType": "uint256",
                    "name": "roundIndex_",
                    "type": "uint256"
                }
            ],
            "name": "claimForRound",
            "outputs": [],
            "stateMutability": "nonpayable",
            "type": "function"
        },
        {
            "inputs": [
                {
                    "internalType": "uint256",
                    "name": "roundIndex_",
                    "type": "uint256"
                },
                {
                    "internalType": "uint256",
                    "name": "tokenId_",
                    "type": "uint256"
                }
            ],
            "name": "claimForRoundByToken",
            "outputs": [],
            "stateMutability": "nonpayable",
            "type": "function"
        },
        {
            "inputs": [
                {
                    "internalType": "uint256",
                    "name": "",
                    "type": "uint256"
                },
                {
                    "internalType": "uint256",
                    "name": "",
                    "type": "uint256"
                }
            ],
            "name": "claimed",
            "outputs": [
                {
                    "internalType": "uint256",
                    "name": "",
                    "type": "uint256"
                }
            ],
            "stateMutability": "view",
            "type": "function"
        },
        {
            "inputs": [
                {
                    "internalType": "uint256",
                    "name": "startTime_",
                    "type": "uint256"
                },
                {
                    "internalType": "uint256",
                    "name": "duration_",
                    "type": "uint256"
                }
            ],
            "name": "createRound",
            "outputs": [],
            "stateMutability": "nonpayable",
            "type": "function"
        },
        {
            "inputs": [
                {
                    "internalType": "uint256[]",
                    "name": "_tokenIds",
                    "type": "uint256[]"
                }
            ],
            "name": "deposit",
            "outputs": [],
            "stateMutability": "nonpayable",
            "type": "function"
        },
        {
            "inputs": [
                {
                    "internalType": "uint256",
                    "name": "roundIndex_",
                    "type": "uint256"
                },
                {
                    "internalType": "uint256",
                    "name": "amount_",
                    "type": "uint256"
                }
            ],
            "name": "depositFunds",
            "outputs": [],
            "stateMutability": "payable",
            "type": "function"
        },
        {
            "inputs": [
                {
                    "internalType": "uint256",
                    "name": "",
                    "type": "uint256"
                }
            ],
            "name": "depositTime",
            "outputs": [
                {
                    "internalType": "uint256",
                    "name": "",
                    "type": "uint256"
                }
            ],
            "stateMutability": "view",
            "type": "function"
        },
        {
            "inputs": [
                {
                    "internalType": "uint256",
                    "name": "roundIndex_",
                    "type": "uint256"
                },
                {
                    "internalType": "uint256",
                    "name": "tokenId_",
                    "type": "uint256"
                }
            ],
            "name": "durationForRound",
            "outputs": [
                {
                    "internalType": "uint256",
                    "name": "",
                    "type": "uint256"
                }
            ],
            "stateMutability": "view",
            "type": "function"
        },
        {
            "inputs": [
                {
                    "internalType": "bytes32",
                    "name": "role",
                    "type": "bytes32"
                }
            ],
            "name": "getRoleAdmin",
            "outputs": [
                {
                    "internalType": "bytes32",
                    "name": "",
                    "type": "bytes32"
                }
            ],
            "stateMutability": "view",
            "type": "function"
        },
        {
            "inputs": [],
            "name": "getStakers",
            "outputs": [
                {
                    "internalType": "address[]",
                    "name": "",
                    "type": "address[]"
                }
            ],
            "stateMutability": "view",
            "type": "function"
        },
        {
            "inputs": [],
            "name": "getTokens",
            "outputs": [
                {
                    "internalType": "uint256[]",
                    "name": "",
                    "type": "uint256[]"
                }
            ],
            "stateMutability": "view",
            "type": "function"
        },
        {
            "inputs": [
                {
                    "internalType": "address",
                    "name": "address_",
                    "type": "address"
                }
            ],
            "name": "getTokensByAddress",
            "outputs": [
                {
                    "internalType": "uint256[]",
                    "name": "",
                    "type": "uint256[]"
                }
            ],
            "stateMutability": "view",
            "type": "function"
        },
        {
            "inputs": [
                {
                    "internalType": "bytes32",
                    "name": "role",
                    "type": "bytes32"
                },
                {
                    "internalType": "address",
                    "name": "account",
                    "type": "address"
                }
            ],
            "name": "grantRole",
            "outputs": [],
            "stateMutability": "nonpayable",
            "type": "function"
        },
        {
            "inputs": [
                {
                    "internalType": "bytes32",
                    "name": "role",
                    "type": "bytes32"
                },
                {
                    "internalType": "address",
                    "name": "account",
                    "type": "address"
                }
            ],
            "name": "hasRole",
            "outputs": [
                {
                    "internalType": "bool",
                    "name": "",
                    "type": "bool"
                }
            ],
            "stateMutability": "view",
            "type": "function"
        },
        {
            "inputs": [],
            "name": "nbRounds",
            "outputs": [
                {
                    "internalType": "uint256",
                    "name": "",
                    "type": "uint256"
                }
            ],
            "stateMutability": "view",
            "type": "function"
        },
        {
            "inputs": [],
            "name": "nftCollection",
            "outputs": [
                {
                    "internalType": "contract IERC721",
                    "name": "",
                    "type": "address"
                }
            ],
            "stateMutability": "view",
            "type": "function"
        },
        {
            "inputs": [],
            "name": "owner",
            "outputs": [
                {
                    "internalType": "address",
                    "name": "",
                    "type": "address"
                }
            ],
            "stateMutability": "view",
            "type": "function"
        },
        {
            "inputs": [],
            "name": "renounceOwnership",
            "outputs": [],
            "stateMutability": "nonpayable",
            "type": "function"
        },
        {
            "inputs": [
                {
                    "internalType": "bytes32",
                    "name": "role",
                    "type": "bytes32"
                },
                {
                    "internalType": "address",
                    "name": "account",
                    "type": "address"
                }
            ],
            "name": "renounceRole",
            "outputs": [],
            "stateMutability": "nonpayable",
            "type": "function"
        },
        {
            "inputs": [
                {
                    "internalType": "bytes32",
                    "name": "role",
                    "type": "bytes32"
                },
                {
                    "internalType": "address",
                    "name": "account",
                    "type": "address"
                }
            ],
            "name": "revokeRole",
            "outputs": [],
            "stateMutability": "nonpayable",
            "type": "function"
        },
        {
            "inputs": [
                {
                    "internalType": "uint256",
                    "name": "roundIndex_",
                    "type": "uint256"
                },
                {
                    "internalType": "uint256",
                    "name": "tokenId_",
                    "type": "uint256"
                }
            ],
            "name": "rewards",
            "outputs": [
                {
                    "internalType": "uint256",
                    "name": "",
                    "type": "uint256"
                }
            ],
            "stateMutability": "view",
            "type": "function"
        },
        {
            "inputs": [
                {
                    "internalType": "uint256",
                    "name": "",
                    "type": "uint256"
                }
            ],
            "name": "rounds",
            "outputs": [
                {
                    "internalType": "uint256",
                    "name": "startTime",
                    "type": "uint256"
                },
                {
                    "internalType": "uint256",
                    "name": "duration",
                    "type": "uint256"
                },
                {
                    "internalType": "uint256",
                    "name": "endTime",
                    "type": "uint256"
                },
                {
                    "internalType": "uint256",
                    "name": "amount",
                    "type": "uint256"
                }
            ],
            "stateMutability": "view",
            "type": "function"
        },
        {
            "inputs": [
                {
                    "internalType": "uint256",
                    "name": "",
                    "type": "uint256"
                }
            ],
            "name": "stakerAddress",
            "outputs": [
                {
                    "internalType": "address",
                    "name": "",
                    "type": "address"
                }
            ],
            "stateMutability": "view",
            "type": "function"
        },
        {
            "inputs": [
                {
                    "internalType": "uint256",
                    "name": "",
                    "type": "uint256"
                }
            ],
            "name": "stakersArray",
            "outputs": [
                {
                    "internalType": "address",
                    "name": "",
                    "type": "address"
                }
            ],
            "stateMutability": "view",
            "type": "function"
        },
        {
            "inputs": [
                {
                    "internalType": "bytes4",
                    "name": "interfaceId",
                    "type": "bytes4"
                }
            ],
            "name": "supportsInterface",
            "outputs": [
                {
                    "internalType": "bool",
                    "name": "",
                    "type": "bool"
                }
            ],
            "stateMutability": "view",
            "type": "function"
        },
        {
            "inputs": [
                {
                    "internalType": "uint256",
                    "name": "",
                    "type": "uint256"
                }
            ],
            "name": "tokensArray",
            "outputs": [
                {
                    "internalType": "uint256",
                    "name": "",
                    "type": "uint256"
                }
            ],
            "stateMutability": "view",
            "type": "function"
        },
        {
            "inputs": [
                {
                    "internalType": "address",
                    "name": "",
                    "type": "address"
                },
                {
                    "internalType": "uint256",
                    "name": "",
                    "type": "uint256"
                }
            ],
            "name": "tokensByAddress",
            "outputs": [
                {
                    "internalType": "uint256",
                    "name": "",
                    "type": "uint256"
                }
            ],
            "stateMutability": "view",
            "type": "function"
        },
        {
            "inputs": [
                {
                    "internalType": "uint256",
                    "name": "roundIndex_",
                    "type": "uint256"
                }
            ],
            "name": "tokensForRound",
            "outputs": [
                {
                    "internalType": "uint256[]",
                    "name": "",
                    "type": "uint256[]"
                },
                {
                    "internalType": "bool[]",
                    "name": "",
                    "type": "bool[]"
                }
            ],
            "stateMutability": "view",
            "type": "function"
        },
        {
            "inputs": [
                {
                    "internalType": "address",
                    "name": "newOwner",
                    "type": "address"
                }
            ],
            "name": "transferOwnership",
            "outputs": [],
            "stateMutability": "nonpayable",
            "type": "function"
        },
        {
            "inputs": [
                {
                    "internalType": "uint256",
                    "name": "roundIndex_",
                    "type": "uint256"
                },
                {
                    "internalType": "uint256",
                    "name": "startTime_",
                    "type": "uint256"
                },
                {
                    "internalType": "uint256",
                    "name": "duration_",
                    "type": "uint256"
                }
            ],
            "name": "updateRound",
            "outputs": [],
            "stateMutability": "nonpayable",
            "type": "function"
        },
        {
            "inputs": [
                {
                    "internalType": "uint256",
                    "name": "roundIndex_",
                    "type": "uint256"
                }
            ],
            "name": "weightedAverageForRound",
            "outputs": [
                {
                    "internalType": "uint256[]",
                    "name": "",
                    "type": "uint256[]"
                }
            ],
            "stateMutability": "view",
            "type": "function"
        },
        {
            "inputs": [
                {
                    "internalType": "uint256[]",
                    "name": "_tokenIds",
                    "type": "uint256[]"
                }
            ],
            "name": "withdraw",
            "outputs": [],
            "stateMutability": "nonpayable",
            "type": "function"
        }
    ],
    "bytecode": "0x60806040523480156200001157600080fd5b5060405162002cac38038062002cac8339810160408190526200003491620001cf565b6200003f33620000f6565b60016002556001600160a01b038116620000b55760405162461bcd60e51b815260206004820152602d60248201527f4552433732315374616b696e673a204552433732312063616e206e6f7420626560448201526c2061646472657373207a65726f60981b606482015260840160405180910390fd5b600380546001600160a01b0319166001600160a01b038316179055620000ef6000620000e96000546001600160a01b031690565b62000146565b5062000201565b600080546001600160a01b038381166001600160a01b0319831681178455604051919092169283917f8be0079c531659141344cd1fd0a4f28419497f9722a3daafe3b4186f6b6457e09190a35050565b60008281526001602090815260408083206001600160a01b038516845290915290205460ff16620001cb5760008281526001602081815260408084206001600160a01b0386168086529252808420805460ff19169093179092559051339285917f2f8788117e7eff1d82e926ec794901d17c78024a50270940304540a733656f0d9190a45b5050565b600060208284031215620001e257600080fd5b81516001600160a01b0381168114620001fa57600080fd5b9392505050565b612a9b80620002116000396000f3fe6080604052600436106101ee5760003560e01c80638c65c81f1161010d578063aa6ca808116100a0578063d547741f1161006f578063d547741f14610609578063e6abc78914610629578063ec7969081461063e578063f2fde38b1461065e578063f52e51331461067e57600080fd5b8063aa6ca80814610594578063accf3f0f146105a9578063ba27d56f146105c9578063c6e1e732146105e957600080fd5b806394067045116100dc57806394067045146104f1578063983d95ce14610527578063a217fddf14610547578063a54ab4571461055c57600080fd5b80638c65c81f146104455780638d36a10d146104855780638da5cb5b146104b357806391d14854146104d157600080fd5b806343352d611161018557806361638ed51161015457806361638ed5146103dd5780636588103b146103f0578063715018a614610410578063848ee75f1461042557600080fd5b806343352d61146103435780635357e91614610365578063598b8e711461039d5780636134ad86146103bd57600080fd5b80632f2ff15d116101c15780632f2ff15d146102b657806336568abe146102d65780633e7e366e146102f65780633ff2fa711461031657600080fd5b806301ffc9a7146101f357806307ca3645146102285780630dd0836d14610255578063248a9ca314610277575b600080fd5b3480156101ff57600080fd5b5061021361020e366004612534565b61069e565b60405190151581526020015b60405180910390f35b34801561023457600080fd5b50610248610243366004612573565b6106d5565b60405161021f91906125cb565b34801561026157600080fd5b506102756102703660046125de565b610741565b005b34801561028357600080fd5b506102a86102923660046125de565b6000908152600160208190526040909120015490565b60405190815260200161021f565b3480156102c257600080fd5b506102756102d13660046125f7565b610818565b3480156102e257600080fd5b506102756102f13660046125f7565b610843565b34801561030257600080fd5b506102a8610311366004612627565b6108c1565b34801561032257600080fd5b506102a86103313660046125de565b60066020526000908152604090205481565b34801561034f57600080fd5b50610358610a60565b60405161021f9190612649565b34801561037157600080fd5b506103856103803660046125de565b610ac2565b6040516001600160a01b03909116815260200161021f565b3480156103a957600080fd5b506102756103b8366004612696565b610aec565b3480156103c957600080fd5b506102486103d83660046125de565b610d93565b6102756103eb366004612627565b610f82565b3480156103fc57600080fd5b50600354610385906001600160a01b031681565b34801561041c57600080fd5b506102756110ea565b34801561043157600080fd5b50610275610440366004612627565b6110fe565b34801561045157600080fd5b506104656104603660046125de565b61124e565b60408051948552602085019390935291830152606082015260800161021f565b34801561049157600080fd5b506104a56104a03660046125de565b611288565b60405161021f92919061270b565b3480156104bf57600080fd5b506000546001600160a01b0316610385565b3480156104dd57600080fd5b506102136104ec3660046125f7565b611407565b3480156104fd57600080fd5b5061038561050c3660046125de565b6005602052600090815260409020546001600160a01b031681565b34801561053357600080fd5b50610275610542366004612696565b611432565b34801561055357600080fd5b506102a8600081565b34801561056857600080fd5b506102a8610577366004612627565b600860209081526000928352604080842090915290825290205481565b3480156105a057600080fd5b50610248611635565b3480156105b557600080fd5b506102a86105c4366004612627565b61168c565b3480156105d557600080fd5b506102a86105e4366004612764565b611799565b3480156105f557600080fd5b50610275610604366004612790565b6117ca565b34801561061557600080fd5b506102756106243660046125f7565b611a12565b34801561063557600080fd5b506004546102a8565b34801561064a57600080fd5b506102a86106593660046125de565b611a38565b34801561066a57600080fd5b50610275610679366004612573565b611a59565b34801561068a57600080fd5b50610275610699366004612627565b611ad2565b60006001600160e01b03198216637965db0b60e01b14806106cf57506301ffc9a760e01b6001600160e01b03198316145b92915050565b6001600160a01b03811660009081526007602090815260409182902080548351818402810184019094528084526060939283018282801561073557602002820191906000526020600020905b815481526020019060010190808311610721575b50505050509050919050565b6004548190811061076d5760405162461bcd60e51b8152600401610764906127bc565b60405180910390fd5b336000908152600760209081526040808320805482518185028101850190935280835291929091908301828280156107c457602002820191906000526020600020905b8154815260200190600101908083116107b0575b5050505050905060005b81518110156108125760008282815181106107eb576107eb6127fe565b602002602001015190506107ff8582611ad2565b508061080a8161282a565b9150506107ce565b50505050565b6000828152600160208190526040909120015461083481611cab565b61083e8383611cb5565b505050565b6001600160a01b03811633146108b35760405162461bcd60e51b815260206004820152602f60248201527f416363657373436f6e74726f6c3a2063616e206f6e6c792072656e6f756e636560448201526e103937b632b9903337b91039b2b63360891b6064820152608401610764565b6108bd8282611d20565b5050565b600454600090839081106108e75760405162461bcd60e51b8152600401610764906127bc565b60008381526005602052604090205483906001600160a01b031661091d5760405162461bcd60e51b815260040161076490612843565b600060048681548110610932576109326127fe565b90600052602060002090600402016040518060800160405290816000820154815260200160018201548152602001600282015481526020016003820154815250509050806060015160000361098b576000935050610a58565b600061099687610d93565b905060005b600a54811015610a50576000600a82815481106109ba576109ba6127fe565b90600052602060002001549050878103610a3d5760008981526008602090815260408083208b845290915290205460608501518451670de0b6b3a76400009190869086908110610a0c57610a0c6127fe565b6020026020010151610a1e9190612885565b610a28919061289c565b610a3291906128be565b965050505050610a58565b5080610a488161282a565b91505061099b565b506000945050505b505092915050565b60606009805480602002602001604051908101604052809291908181526020018280548015610ab857602002820191906000526020600020905b81546001600160a01b03168152600190910190602001808311610a9a575b5050505050905090565b60098181548110610ad257600080fd5b6000918252602090912001546001600160a01b0316905081565b6002805403610b3d5760405162461bcd60e51b815260206004820152601f60248201527f5265656e7472616e637947756172643a207265656e7472616e742063616c6c006044820152606401610764565b600280558060005b81811015610d88576000848483818110610b6157610b616127fe565b6003546040516331a9108f60e11b8152602092909202939093013560048201819052935033926001600160a01b03169150636352211e90602401602060405180830381865afa158015610bb8573d6000803e3d6000fd5b505050506040513d601f19601f82011682018060405250810190610bdc91906128d1565b6001600160a01b031614610c4c5760405162461bcd60e51b815260206004820152603160248201527f4552433732315374616b696e673a2063616e2774206465706f73697420746f6b60448201527032b739903cb7ba903237b713ba1037bbb760791b6064820152608401610764565b6003546040516323b872dd60e01b8152336004820152306024820152604481018390526001600160a01b03909116906323b872dd90606401600060405180830381600087803b158015610c9e57600080fd5b505af1158015610cb2573d6000803e3d6000fd5b505050600082815260056020908152604080832080546001600160a01b03191633908117909155600683528184204290558084526007835290832080546001810182559084529190922001839055610d0a9150611d87565b600a80546001810182556000919091527fc65a7bb8d6351c1cf70c95a316cc6a92839c986682d98bc35f958f4883f9d2a801819055604080518281523360208201527f3b71b6458b8b8b810b3254a0949e5eb0a1d2e94d81016898eed6c87204407348910160405180910390a150610d818161282a565b9050610b45565b505060016002555050565b60045460609082908110610db95760405162461bcd60e51b8152600401610764906127bc565b600a5460009067ffffffffffffffff811115610dd757610dd76128ee565b604051908082528060200260200182016040528015610e00578160200160208202803683370190505b509050600060048581548110610e1857610e186127fe565b906000526020600020906004020160405180608001604052908160008201548152602001600182015481526020016002820154815260200160038201548152505090504281600001511015610f7a576000805b600a54811015610f03576000600a8281548110610e8a57610e8a6127fe565b90600052602060002001549050836040015160066000838152602001908152602001600020541015610ef0576000610ec2898361168c565b905080868481518110610ed757610ed76127fe565b6020908102919091010152610eec8185612904565b9350505b5080610efb8161282a565b915050610e6b565b5060005b8351811015610f775781848281518110610f2357610f236127fe565b6020026020010151670de0b6b3a7640000610f3e9190612885565b610f48919061289c565b848281518110610f5a57610f5a6127fe565b602090810291909101015280610f6f8161282a565b915050610f07565b50505b509392505050565b6000610f8d81611cab565b6004548310610fae5760405162461bcd60e51b8152600401610764906127bc565b600034116110085760405162461bcd60e51b815260206004820152602160248201527f4552433237315374616b696e673a204d75737420696e636c7564652066756e646044820152607360f81b6064820152608401610764565b3482146110675760405162461bcd60e51b815260206004820152602760248201527f4552433237315374616b696e673a2046756e647320646f6e2774206d6174636860448201526608185b5bdd5b9d60ca1b6064820152608401610764565b60006004848154811061107c5761107c6127fe565b90600052602060002090600402019050348160030160008282546110a09190612904565b909155505060038101546040805186815260208101929092527fc30d09038cdea01854d3b58940393d97d881e83f40ddc3a8225f32e76b584b14910160405180910390a150505050565b6110f2611e34565b6110fc6000611e8e565b565b600061110981611cab565b60006111158385612904565b9050611122848483611ede565b60408051608081018252858152602081018581528183018481526000606084018181526004805460018101825592819052855192027f8a35acfbc15ff81a39ae7d344fd709f28e8600b4aa8c65c6b64bfe7fe36bd19b810183905593517f8a35acfbc15ff81a39ae7d344fd709f28e8600b4aa8c65c6b64bfe7fe36bd19c850181905592517f8a35acfbc15ff81a39ae7d344fd709f28e8600b4aa8c65c6b64bfe7fe36bd19d850181905590517f8a35acfbc15ff81a39ae7d344fd709f28e8600b4aa8c65c6b64bfe7fe36bd19e909401849055945193947fa0fcadbdb2410f3788118d67a694a47369fec2221d6639ac9b0d5743e066c4739461123f949293929093845260208401929092526040830152606082015260800190565b60405180910390a15050505050565b6004818154811061125e57600080fd5b60009182526020909120600490910201805460018201546002830154600390930154919350919084565b6060808260048054905081106112b05760405162461bcd60e51b8152600401610764906127bc565b600a5460009067ffffffffffffffff8111156112ce576112ce6128ee565b6040519080825280602002602001820160405280156112f7578160200160208202803683370190505b50905060006004868154811061130f5761130f6127fe565b906000526020600020906004020160020154905060005b600a548110156113a5576000600a8281548110611345576113456127fe565b906000526020600020015490508260066000838152602001908152602001600020541015611392576001848381518110611381576113816127fe565b911515602092830291909101909101525b508061139d8161282a565b915050611326565b50600a82818054806020026020016040519081016040528092919081815260200182805480156113f457602002820191906000526020600020905b8154815260200190600101908083116113e0575b5050505050915094509450505050915091565b60009182526001602090815260408084206001600160a01b0393909316845291905290205460ff1690565b60028054036114835760405162461bcd60e51b815260206004820152601f60248201527f5265656e7472616e637947756172643a207265656e7472616e742063616c6c006044820152606401610764565b600280558060005b81811015610d885760008484838181106114a7576114a76127fe565b6020908102929092013560008181526005909352604090922054919250506001600160a01b03163381146115395760405162461bcd60e51b815260206004820152603360248201527f4552433732315374616b696e673a2063616e27742077697468647261772061206044820152723a37b5b2b7103cb7ba903237b713ba1037bbb760691b6064820152608401610764565b6115433383611f70565b61154c8261203a565b611555336120ef565b600082815260066020908152604080832083905560059091529081902080546001600160a01b031916905560035490516323b872dd60e01b8152306004820152336024820152604481018490526001600160a01b03909116906323b872dd90606401600060405180830381600087803b1580156115d157600080fd5b505af11580156115e5573d6000803e3d6000fd5b5050604080518581523360208201527fa6f0d40ea23cee9ff52d95c28e88096a93534c440da2e29b2fa2e24377c57d73935001905060405180910390a150508061162e9061282a565b905061148b565b6060600a805480602002602001604051908101604052809291908181526020018280548015610ab857602002820191906000526020600020905b81548152602001906001019080831161166f575050505050905090565b600454600090839081106116b25760405162461bcd60e51b8152600401610764906127bc565b60008381526005602052604090205483906001600160a01b03166116e85760405162461bcd60e51b815260040161076490612843565b6000600486815481106116fd576116fd6127fe565b6000918252602080832060408051608081018252600490940290910180548452600181015484840152600281015484830152600301546060840152888452600690915282205481519193509190421061178e57825182101561175e57825191505b42836040015110156117815781836040015161177a91906128be565b905061178e565b61178b82426128be565b90505b979650505050505050565b600760205281600052604060002081815481106117b557600080fd5b90600052602060002001600091509150505481565b600454839081106117ed5760405162461bcd60e51b8152600401610764906127bc565b60006117f881611cab565b8415611885576000600461180d6001886128be565b8154811061181d5761181d6127fe565b90600052602060002090600402016040518060800160405290816000820154815260200160018201548152602001600282015481526020016003820154815250509050806040015185116118835760405162461bcd60e51b815260040161076490612917565b505b60006118918486612904565b6004549091506118a3906001906128be565b86101561198757600060046118b9886001612904565b815481106118c9576118c96127fe565b90600052602060002090600402016040518060800160405290816000820154815260200160018201548152602001600282015481526020016003820154815250509050806000015182106119855760405162461bcd60e51b815260206004820152603b60248201527f4552433732315374616b696e673a2063616e277420656e6420726f756e64206160448201527f66746572206e65787420726f756e6420686173207374617274656400000000006064820152608401610764565b505b60006004878154811061199c5761199c6127fe565b600091825260209182902060049091020187815560018101879055600281018490556003810154604080518a81529384018990528301859052606083015291507f9904c897853ce894819efc49991d212b0d012e61c0eef40c117ef540db3d62a09060800160405180910390a150505050505050565b60008281526001602081905260409091200154611a2e81611cab565b61083e8383611d20565b600a8181548110611a4857600080fd5b600091825260209091200154905081565b611a61611e34565b6001600160a01b038116611ac65760405162461bcd60e51b815260206004820152602660248201527f4f776e61626c653a206e6577206f776e657220697320746865207a65726f206160448201526564647265737360d01b6064820152608401610764565b611acf81611e8e565b50565b60045482908110611af55760405162461bcd60e51b8152600401610764906127bc565b60008281526005602052604090205482906001600160a01b0316611b2b5760405162461bcd60e51b815260040161076490612843565b600060048581548110611b4057611b406127fe565b600091825260208083206040805160808101825260049094029091018054845260018101548484015260028101548483015260030154606084015287845260059091528220549092506001600160a01b031690611b9d87876108c1565b9050336001600160a01b03831614611c0c5760405162461bcd60e51b815260206004820152602c60248201527f4552433732315374616b696e673a2073656e646572206973206e6f742074686560448201526b103a37b5b2b71037bbb732b960a11b6064820152608401610764565b82604001514211611c6a5760405162461bcd60e51b815260206004820152602260248201527f4552433732315374616b696e673a20726f756e6420686173206e6f7420656e64604482015261195960f21b6064820152608401610764565b611c748282612214565b600087815260086020908152604080832089845290915281208054839290611c9d908490612904565b909155505050505050505050565b611acf813361232d565b611cbf8282611407565b6108bd5760008281526001602081815260408084206001600160a01b0386168086529252808420805460ff19169093179092559051339285917f2f8788117e7eff1d82e926ec794901d17c78024a50270940304540a733656f0d9190a45050565b611d2a8282611407565b156108bd5760008281526001602090815260408083206001600160a01b0385168085529252808320805460ff1916905551339285917ff6391f5c32d9c69d2a47ea670b442974b53935d1edc7fd64eb21e047a839171b9190a45050565b60005b600954811015611de157816001600160a01b031660098281548110611db157611db16127fe565b6000918252602090912001546001600160a01b031603611dcf575050565b80611dd98161282a565b915050611d8a565b50600980546001810182556000919091527f6e1540171b6c0c960b71a7020d9f60077f6af931a8bbf590da0223dacf75c7af0180546001600160a01b0319166001600160a01b0392909216919091179055565b6000546001600160a01b031633146110fc5760405162461bcd60e51b815260206004820181905260248201527f4f776e61626c653a2063616c6c6572206973206e6f7420746865206f776e65726044820152606401610764565b600080546001600160a01b038381166001600160a01b0319831681178455604051919092169283917f8be0079c531659141344cd1fd0a4f28419497f9722a3daafe3b4186f6b6457e09190a35050565b6004541561083e576004805460009190611efa906001906128be565b81548110611f0a57611f0a6127fe565b90600052602060002090600402016040518060800160405290816000820154815260200160018201548152602001600282015481526020016003820154815250509050806040015184116108125760405162461bcd60e51b815260040161076490612917565b6001600160a01b0382166000908152600760205260408120905b81548110156108125782828281548110611fa657611fa66127fe565b9060005260206000200154036120285781548290611fc6906001906128be565b81548110611fd657611fd66127fe565b9060005260206000200154828281548110611ff357611ff36127fe565b9060005260206000200181905550818054806120115761201161296c565b600190038181906000526020600020016000905590555b806120328161282a565b915050611f8a565b60005b600a548110156108bd5781600a828154811061205b5761205b6127fe565b9060005260206000200154036120dd57600a805461207b906001906128be565b8154811061208b5761208b6127fe565b9060005260206000200154600a82815481106120a9576120a96127fe565b600091825260209091200155600a8054806120c6576120c661296c565b600190038181906000526020600020016000905590555b806120e78161282a565b91505061203d565b6001600160a01b038116600090815260076020526040902054156121105750565b60005b6009548110156108bd57816001600160a01b03166009828154811061213a5761213a6127fe565b6000918252602090912001546001600160a01b0316036122025760098054612164906001906128be565b81548110612174576121746127fe565b600091825260209091200154600980546001600160a01b0390921691839081106121a0576121a06127fe565b9060005260206000200160006101000a8154816001600160a01b0302191690836001600160a01b0316021790555060098054806121df576121df61296c565b600082815260209020810160001990810180546001600160a01b03191690550190555b8061220c8161282a565b915050612113565b804710156122645760405162461bcd60e51b815260206004820152601d60248201527f416464726573733a20696e73756666696369656e742062616c616e63650000006044820152606401610764565b6000826001600160a01b03168260405160006040518083038185875af1925050503d80600081146122b1576040519150601f19603f3d011682016040523d82523d6000602084013e6122b6565b606091505b505090508061083e5760405162461bcd60e51b815260206004820152603a60248201527f416464726573733a20756e61626c6520746f2073656e642076616c75652c207260448201527f6563697069656e74206d617920686176652072657665727465640000000000006064820152608401610764565b6123378282611407565b6108bd5761234f816001600160a01b03166014612391565b61235a836020612391565b60405160200161236b9291906129a6565b60408051601f198184030181529082905262461bcd60e51b825261076491600401612a1b565b606060006123a0836002612885565b6123ab906002612904565b67ffffffffffffffff8111156123c3576123c36128ee565b6040519080825280601f01601f1916602001820160405280156123ed576020820181803683370190505b509050600360fc1b81600081518110612408576124086127fe565b60200101906001600160f81b031916908160001a905350600f60fb1b81600181518110612437576124376127fe565b60200101906001600160f81b031916908160001a905350600061245b846002612885565b612466906001612904565b90505b60018111156124de576f181899199a1a9b1b9c1cb0b131b232b360811b85600f166010811061249a5761249a6127fe565b1a60f81b8282815181106124b0576124b06127fe565b60200101906001600160f81b031916908160001a90535060049490941c936124d781612a4e565b9050612469565b50831561252d5760405162461bcd60e51b815260206004820181905260248201527f537472696e67733a20686578206c656e67746820696e73756666696369656e746044820152606401610764565b9392505050565b60006020828403121561254657600080fd5b81356001600160e01b03198116811461252d57600080fd5b6001600160a01b0381168114611acf57600080fd5b60006020828403121561258557600080fd5b813561252d8161255e565b600081518084526020808501945080840160005b838110156125c0578151875295820195908201906001016125a4565b509495945050505050565b60208152600061252d6020830184612590565b6000602082840312156125f057600080fd5b5035919050565b6000806040838503121561260a57600080fd5b82359150602083013561261c8161255e565b809150509250929050565b6000806040838503121561263a57600080fd5b50508035926020909101359150565b6020808252825182820181905260009190848201906040850190845b8181101561268a5783516001600160a01b031683529284019291840191600101612665565b50909695505050505050565b600080602083850312156126a957600080fd5b823567ffffffffffffffff808211156126c157600080fd5b818501915085601f8301126126d557600080fd5b8135818111156126e457600080fd5b8660208260051b85010111156126f957600080fd5b60209290920196919550909350505050565b60408152600061271e6040830185612590565b82810360208481019190915284518083528582019282019060005b81811015612757578451151583529383019391830191600101612739565b5090979650505050505050565b6000806040838503121561277757600080fd5b82356127828161255e565b946020939093013593505050565b6000806000606084860312156127a557600080fd5b505081359360208301359350604090920135919050565b60208082526022908201527f4552433237315374616b696e673a20726f756e6420646f65736e2774206578696040820152611cdd60f21b606082015260800190565b634e487b7160e01b600052603260045260246000fd5b634e487b7160e01b600052601160045260246000fd5b60006001820161283c5761283c612814565b5060010190565b60208082526022908201527f4552433237315374616b696e673a20746f6b656e206973206e6f74207374616b604082015261195960f21b606082015260800190565b80820281158282048414176106cf576106cf612814565b6000826128b957634e487b7160e01b600052601260045260246000fd5b500490565b818103818111156106cf576106cf612814565b6000602082840312156128e357600080fd5b815161252d8161255e565b634e487b7160e01b600052604160045260246000fd5b808201808211156106cf576106cf612814565b60208082526035908201527f4552433732315374616b696e673a2063616e277420737461727420726f756e64604082015274206265666f72652070726576696f757320656e647360581b606082015260800190565b634e487b7160e01b600052603160045260246000fd5b60005b8381101561299d578181015183820152602001612985565b50506000910152565b7f416363657373436f6e74726f6c3a206163636f756e74200000000000000000008152600083516129de816017850160208801612982565b7001034b99036b4b9b9b4b733903937b6329607d1b6017918401918201528351612a0f816028840160208801612982565b01602801949350505050565b6020815260008251806020840152612a3a816040850160208701612982565b601f01601f19169190910160400192915050565b600081612a5d57612a5d612814565b50600019019056fea264697066735822122038e1f7d867ad8923b07c1d33c9f813c82190793c5f0b44f99a1f4beacf825fd564736f6c63430008110033",
    "linkReferences": {},
    "deployedLinkReferences": {}
}