{
  "_format": "hh-sol-artifact-1",
  "contractName": "ERC721StakingV2",
  "sourceName": "contracts/ERC721StakingV2.sol",
  "abi": [
    {
      "inputs": [
        {
          "internalType": "address",
          "name": "nftAddress_",
          "type": "address"
        }
      ],
      "stateMutability": "nonpayable",
      "type": "constructor"
    },
    {
      "anonymous": false,
      "inputs": [
        {
          "indexed": false,
          "internalType": "address",
          "name": "delegator",
          "type": "address"
        },
        {
          "indexed": false,
          "internalType": "uint256",
          "name": "roundIndex",
          "type": "uint256"
        },
        {
          "indexed": false,
          "internalType": "uint256",
          "name": "tokenId",
          "type": "uint256"
        },
        {
          "indexed": false,
          "internalType": "uint256",
          "name": "amount",
          "type": "uint256"
        }
      ],
      "name": "Claim",
      "type": "event"
    },
    {
      "anonymous": false,
      "inputs": [
        {
          "indexed": false,
          "internalType": "address",
          "name": "delegator",
          "type": "address"
        },
        {
          "indexed": false,
          "internalType": "uint256",
          "name": "roundIndex",
          "type": "uint256"
        },
        {
          "indexed": false,
          "internalType": "uint256",
          "name": "amount",
          "type": "uint256"
        }
      ],
      "name": "ClaimRound",
      "type": "event"
    },
    {
      "anonymous": false,
      "inputs": [
        {
          "indexed": false,
          "internalType": "uint256",
          "name": "startTime",
          "type": "uint256"
        },
        {
          "indexed": false,
          "internalType": "uint256",
          "name": "duration",
          "type": "uint256"
        },
        {
          "indexed": false,
          "internalType": "uint256",
          "name": "endTime",
          "type": "uint256"
        },
        {
          "indexed": false,
          "internalType": "uint256",
          "name": "amountAllocated",
          "type": "uint256"
        },
        {
          "indexed": false,
          "internalType": "uint256",
          "name": "amountClaimed",
          "type": "uint256"
        }
      ],
      "name": "CreateRound",
      "type": "event"
    },
    {
      "anonymous": false,
      "inputs": [
        {
          "indexed": false,
          "internalType": "uint256",
          "name": "tokenId",
          "type": "uint256"
        },
        {
          "indexed": false,
          "internalType": "uint256",
          "name": "depositTime",
          "type": "uint256"
        },
        {
          "indexed": false,
          "internalType": "uint256",
          "name": "withdrawlTime",
          "type": "uint256"
        },
        {
          "indexed": false,
          "internalType": "address",
          "name": "delegator",
          "type": "address"
        }
      ],
      "name": "DepositERC721",
      "type": "event"
    },
    {
      "anonymous": false,
      "inputs": [
        {
          "indexed": false,
          "internalType": "uint256",
          "name": "roundIndex",
          "type": "uint256"
        },
        {
          "indexed": false,
          "internalType": "uint256",
          "name": "amount",
          "type": "uint256"
        }
      ],
      "name": "DepositFunds",
      "type": "event"
    },
    {
      "anonymous": false,
      "inputs": [
        {
          "indexed": false,
          "internalType": "uint256",
          "name": "amount",
          "type": "uint256"
        }
      ],
      "name": "RescuedETH",
      "type": "event"
    },
    {
      "anonymous": false,
      "inputs": [
        {
          "indexed": true,
          "internalType": "bytes32",
          "name": "role",
          "type": "bytes32"
        },
        {
          "indexed": true,
          "internalType": "bytes32",
          "name": "previousAdminRole",
          "type": "bytes32"
        },
        {
          "indexed": true,
          "internalType": "bytes32",
          "name": "newAdminRole",
          "type": "bytes32"
        }
      ],
      "name": "RoleAdminChanged",
      "type": "event"
    },
    {
      "anonymous": false,
      "inputs": [
        {
          "indexed": true,
          "internalType": "bytes32",
          "name": "role",
          "type": "bytes32"
        },
        {
          "indexed": true,
          "internalType": "address",
          "name": "account",
          "type": "address"
        },
        {
          "indexed": true,
          "internalType": "address",
          "name": "sender",
          "type": "address"
        }
      ],
      "name": "RoleGranted",
      "type": "event"
    },
    {
      "anonymous": false,
      "inputs": [
        {
          "indexed": true,
          "internalType": "bytes32",
          "name": "role",
          "type": "bytes32"
        },
        {
          "indexed": true,
          "internalType": "address",
          "name": "account",
          "type": "address"
        },
        {
          "indexed": true,
          "internalType": "address",
          "name": "sender",
          "type": "address"
        }
      ],
      "name": "RoleRevoked",
      "type": "event"
    },
    {
      "anonymous": false,
      "inputs": [
        {
          "indexed": false,
          "internalType": "uint256",
          "name": "startTime",
          "type": "uint256"
        },
        {
          "indexed": false,
          "internalType": "uint256",
          "name": "duration",
          "type": "uint256"
        },
        {
          "indexed": false,
          "internalType": "uint256",
          "name": "endTime",
          "type": "uint256"
        },
        {
          "indexed": false,
          "internalType": "uint256",
          "name": "amountAllocated",
          "type": "uint256"
        },
        {
          "indexed": false,
          "internalType": "uint256",
          "name": "amountClaimed",
          "type": "uint256"
        }
      ],
      "name": "UpdateRound",
      "type": "event"
    },
    {
      "anonymous": false,
      "inputs": [
        {
          "indexed": false,
          "internalType": "uint256",
          "name": "tokenId",
          "type": "uint256"
        },
        {
          "indexed": false,
          "internalType": "uint256",
          "name": "depositTime",
          "type": "uint256"
        },
        {
          "indexed": false,
          "internalType": "uint256",
          "name": "withdrawlTime",
          "type": "uint256"
        },
        {
          "indexed": false,
          "internalType": "address",
          "name": "delegator",
          "type": "address"
        }
      ],
      "name": "WithdrawERC721",
      "type": "event"
    },
    {
      "inputs": [],
      "name": "DEFAULT_ADMIN_ROLE",
      "outputs": [
        {
          "internalType": "bytes32",
          "name": "",
          "type": "bytes32"
        }
      ],
      "stateMutability": "view",
      "type": "function"
    },
    {
      "inputs": [
        {
          "internalType": "uint256",
          "name": "roundIndex_",
          "type": "uint256"
        }
      ],
      "name": "claimForRound",
      "outputs": [],
      "stateMutability": "nonpayable",
      "type": "function"
    },
    {
      "inputs": [
        {
          "internalType": "uint256",
          "name": "roundIndex_",
          "type": "uint256"
        },
        {
          "internalType": "uint256",
          "name": "tokenId_",
          "type": "uint256"
        }
      ],
      "name": "claimForRoundByToken",
      "outputs": [],
      "stateMutability": "nonpayable",
      "type": "function"
    },
    {
      "inputs": [],
      "name": "countActiveDeposits",
      "outputs": [
        {
          "internalType": "uint256",
          "name": "",
          "type": "uint256"
        }
      ],
      "stateMutability": "view",
      "type": "function"
    },
    {
      "inputs": [],
      "name": "countAllDeposits",
      "outputs": [
        {
          "internalType": "uint256",
          "name": "",
          "type": "uint256"
        }
      ],
      "stateMutability": "view",
      "type": "function"
    },
    {
      "inputs": [
        {
          "internalType": "uint256",
          "name": "roundIndex",
          "type": "uint256"
        }
      ],
      "name": "countDepositsForRound",
      "outputs": [
        {
          "internalType": "uint256",
          "name": "",
          "type": "uint256"
        }
      ],
      "stateMutability": "view",
      "type": "function"
    },
    {
      "inputs": [
        {
          "internalType": "uint256",
          "name": "roundIndex",
          "type": "uint256"
        },
        {
          "internalType": "address",
          "name": "address_",
          "type": "address"
        }
      ],
      "name": "countDepositsForRoundByAddress",
      "outputs": [
        {
          "internalType": "uint256",
          "name": "",
          "type": "uint256"
        }
      ],
      "stateMutability": "view",
      "type": "function"
    },
    {
      "inputs": [],
      "name": "countWithdrawnDeposits",
      "outputs": [
        {
          "internalType": "uint256",
          "name": "",
          "type": "uint256"
        }
      ],
      "stateMutability": "view",
      "type": "function"
    },
    {
      "inputs": [
        {
          "internalType": "uint256",
          "name": "startTime_",
          "type": "uint256"
        },
        {
          "internalType": "uint256",
          "name": "duration_",
          "type": "uint256"
        }
      ],
      "name": "createRound",
      "outputs": [],
      "stateMutability": "nonpayable",
      "type": "function"
    },
    {
      "inputs": [
        {
          "internalType": "uint256",
          "name": "roundIndex_",
          "type": "uint256"
        },
        {
          "internalType": "uint256",
          "name": "amount_",
          "type": "uint256"
        }
      ],
      "name": "depositFunds",
      "outputs": [],
      "stateMutability": "payable",
      "type": "function"
    },
    {
      "inputs": [
        {
          "internalType": "uint256",
          "name": "roundIndex",
          "type": "uint256"
        }
      ],
      "name": "depositIndexesForRound",
      "outputs": [
        {
          "internalType": "uint256[]",
          "name": "",
          "type": "uint256[]"
        }
      ],
      "stateMutability": "view",
      "type": "function"
    },
    {
      "inputs": [
        {
          "internalType": "uint256",
          "name": "roundIndex",
          "type": "uint256"
        },
        {
          "internalType": "address",
          "name": "address_",
          "type": "address"
        }
      ],
      "name": "depositIndexesForRoundByAddress",
      "outputs": [
        {
          "internalType": "uint256[]",
          "name": "",
          "type": "uint256[]"
        }
      ],
      "stateMutability": "view",
      "type": "function"
    },
    {
      "inputs": [
        {
          "internalType": "uint256[]",
          "name": "_tokenIds",
          "type": "uint256[]"
        }
      ],
      "name": "depositNFT",
      "outputs": [],
      "stateMutability": "nonpayable",
      "type": "function"
    },
    {
      "inputs": [
        {
          "internalType": "address",
          "name": "address_",
          "type": "address"
        }
      ],
      "name": "depositedTokenIdsForAddress",
      "outputs": [
        {
          "internalType": "uint256[]",
          "name": "",
          "type": "uint256[]"
        }
      ],
      "stateMutability": "view",
      "type": "function"
    },
    {
      "inputs": [
        {
          "internalType": "uint256",
          "name": "",
          "type": "uint256"
        }
      ],
      "name": "deposits",
      "outputs": [
        {
          "internalType": "uint256",
          "name": "tokenId",
          "type": "uint256"
        },
        {
          "internalType": "uint256",
          "name": "depositTime",
          "type": "uint256"
        },
        {
          "internalType": "uint256",
          "name": "withdrawlTime",
          "type": "uint256"
        },
        {
          "internalType": "address",
          "name": "delegator",
          "type": "address"
        }
      ],
      "stateMutability": "view",
      "type": "function"
    },
    {
      "inputs": [
        {
          "internalType": "uint256",
          "name": "roundIndex",
          "type": "uint256"
        },
        {
          "internalType": "address",
          "name": "address_",
          "type": "address"
        }
      ],
      "name": "ethAllocForRoundByAddress",
      "outputs": [
        {
          "internalType": "uint256",
          "name": "",
          "type": "uint256"
        }
      ],
      "stateMutability": "view",
      "type": "function"
    },
    {
      "inputs": [
        {
          "internalType": "uint256",
          "name": "roundIndex",
          "type": "uint256"
        },
        {
          "internalType": "uint256",
          "name": "tokenId",
          "type": "uint256"
        }
      ],
      "name": "ethAllocForRoundByToken",
      "outputs": [
        {
          "internalType": "uint256",
          "name": "",
          "type": "uint256"
        }
      ],
      "stateMutability": "view",
      "type": "function"
    },
    {
      "inputs": [
        {
          "internalType": "uint256",
          "name": "roundIndex",
          "type": "uint256"
        },
        {
          "internalType": "address",
          "name": "address_",
          "type": "address"
        }
      ],
      "name": "ethClaimedForRoundByAddress",
      "outputs": [
        {
          "internalType": "uint256",
          "name": "",
          "type": "uint256"
        }
      ],
      "stateMutability": "view",
      "type": "function"
    },
    {
      "inputs": [
        {
          "internalType": "uint256",
          "name": "roundIndex",
          "type": "uint256"
        },
        {
          "internalType": "uint256",
          "name": "tokenId",
          "type": "uint256"
        }
      ],
      "name": "ethClaimedForRoundByToken",
      "outputs": [
        {
          "internalType": "uint256",
          "name": "",
          "type": "uint256"
        }
      ],
      "stateMutability": "view",
      "type": "function"
    },
    {
      "inputs": [
        {
          "internalType": "uint256",
          "name": "roundIndex",
          "type": "uint256"
        },
        {
          "internalType": "address",
          "name": "address_",
          "type": "address"
        }
      ],
      "name": "ethUnclaimedForRoundByAddress",
      "outputs": [
        {
          "internalType": "uint256",
          "name": "",
          "type": "uint256"
        }
      ],
      "stateMutability": "view",
      "type": "function"
    },
    {
      "inputs": [
        {
          "internalType": "uint256",
          "name": "roundIndex",
          "type": "uint256"
        },
        {
          "internalType": "uint256",
          "name": "tokenId",
          "type": "uint256"
        }
      ],
      "name": "ethUnclaimedForRoundByToken",
      "outputs": [
        {
          "internalType": "uint256",
          "name": "",
          "type": "uint256"
        }
      ],
      "stateMutability": "view",
      "type": "function"
    },
    {
      "inputs": [
        {
          "internalType": "bytes32",
          "name": "role",
          "type": "bytes32"
        }
      ],
      "name": "getRoleAdmin",
      "outputs": [
        {
          "internalType": "bytes32",
          "name": "",
          "type": "bytes32"
        }
      ],
      "stateMutability": "view",
      "type": "function"
    },
    {
      "inputs": [
        {
          "internalType": "bytes32",
          "name": "role",
          "type": "bytes32"
        },
        {
          "internalType": "address",
          "name": "account",
          "type": "address"
        }
      ],
      "name": "grantRole",
      "outputs": [],
      "stateMutability": "nonpayable",
      "type": "function"
    },
    {
      "inputs": [
        {
          "internalType": "bytes32",
          "name": "role",
          "type": "bytes32"
        },
        {
          "internalType": "address",
          "name": "account",
          "type": "address"
        }
      ],
      "name": "hasRole",
      "outputs": [
        {
          "internalType": "bool",
          "name": "",
          "type": "bool"
        }
      ],
      "stateMutability": "view",
      "type": "function"
    },
    {
      "inputs": [
        {
          "internalType": "uint256",
          "name": "tokenId",
          "type": "uint256"
        }
      ],
      "name": "latestActiveDepositForTokenId",
      "outputs": [
        {
          "internalType": "uint256",
          "name": "index",
          "type": "uint256"
        }
      ],
      "stateMutability": "view",
      "type": "function"
    },
    {
      "inputs": [],
      "name": "nbRounds",
      "outputs": [
        {
          "internalType": "uint256",
          "name": "",
          "type": "uint256"
        }
      ],
      "stateMutability": "view",
      "type": "function"
    },
    {
      "inputs": [],
      "name": "nftCollection",
      "outputs": [
        {
          "internalType": "contract IERC721",
          "name": "",
          "type": "address"
        }
      ],
      "stateMutability": "view",
      "type": "function"
    },
    {
      "inputs": [
        {
          "internalType": "bytes32",
          "name": "role",
          "type": "bytes32"
        },
        {
          "internalType": "address",
          "name": "account",
          "type": "address"
        }
      ],
      "name": "renounceRole",
      "outputs": [],
      "stateMutability": "nonpayable",
      "type": "function"
    },
    {
      "inputs": [
        {
          "internalType": "uint256",
          "name": "amount",
          "type": "uint256"
        }
      ],
      "name": "rescueETH",
      "outputs": [],
      "stateMutability": "nonpayable",
      "type": "function"
    },
    {
      "inputs": [
        {
          "internalType": "bytes32",
          "name": "role",
          "type": "bytes32"
        },
        {
          "internalType": "address",
          "name": "account",
          "type": "address"
        }
      ],
      "name": "revokeRole",
      "outputs": [],
      "stateMutability": "nonpayable",
      "type": "function"
    },
    {
      "inputs": [
        {
          "internalType": "uint256",
          "name": "",
          "type": "uint256"
        }
      ],
      "name": "rounds",
      "outputs": [
        {
          "internalType": "uint256",
          "name": "startTime",
          "type": "uint256"
        },
        {
          "internalType": "uint256",
          "name": "duration",
          "type": "uint256"
        },
        {
          "internalType": "uint256",
          "name": "endTime",
          "type": "uint256"
        },
        {
          "internalType": "uint256",
          "name": "amountAllocated",
          "type": "uint256"
        },
        {
          "internalType": "uint256",
          "name": "amountClaimed",
          "type": "uint256"
        }
      ],
      "stateMutability": "view",
      "type": "function"
    },
    {
      "inputs": [
        {
          "internalType": "bytes4",
          "name": "interfaceId",
          "type": "bytes4"
        }
      ],
      "name": "supportsInterface",
      "outputs": [
        {
          "internalType": "bool",
          "name": "",
          "type": "bool"
        }
      ],
      "stateMutability": "view",
      "type": "function"
    },
    {
      "inputs": [
        {
          "internalType": "uint256",
          "name": "roundIndex_",
          "type": "uint256"
        },
        {
          "internalType": "uint256",
          "name": "startTime_",
          "type": "uint256"
        },
        {
          "internalType": "uint256",
          "name": "duration_",
          "type": "uint256"
        }
      ],
      "name": "updateRound",
      "outputs": [],
      "stateMutability": "nonpayable",
      "type": "function"
    },
    {
      "inputs": [
        {
          "internalType": "uint256",
          "name": "roundIndex",
          "type": "uint256"
        },
        {
          "internalType": "uint256",
          "name": "depositIndex",
          "type": "uint256"
        }
      ],
      "name": "weightedAverageForDeposit",
      "outputs": [
        {
          "internalType": "uint256",
          "name": "",
          "type": "uint256"
        }
      ],
      "stateMutability": "view",
      "type": "function"
    },
    {
      "inputs": [
        {
          "internalType": "uint256",
          "name": "roundIndex",
          "type": "uint256"
        },
        {
          "internalType": "address",
          "name": "address_",
          "type": "address"
        }
      ],
      "name": "weightedAverageForRoundByAddress",
      "outputs": [
        {
          "internalType": "uint256",
          "name": "",
          "type": "uint256"
        }
      ],
      "stateMutability": "view",
      "type": "function"
    },
    {
      "inputs": [
        {
          "internalType": "uint256",
          "name": "roundIndex",
          "type": "uint256"
        },
        {
          "internalType": "uint256",
          "name": "tokenId",
          "type": "uint256"
        }
      ],
      "name": "weightedAverageForToken",
      "outputs": [
        {
          "internalType": "uint256",
          "name": "",
          "type": "uint256"
        }
      ],
      "stateMutability": "view",
      "type": "function"
    },
    {
      "inputs": [
        {
          "internalType": "uint256[]",
          "name": "_tokenIds",
          "type": "uint256[]"
        }
      ],
      "name": "withdrawNFT",
      "outputs": [],
      "stateMutability": "nonpayable",
      "type": "function"
    },
    {
      "stateMutability": "payable",
      "type": "receive"
    }
  ],
  "bytecode": "0x60806040526000196003553480156200001757600080fd5b5060405162002ff038038062002ff08339810160408190526200003a9162000184565b62000047600033620000e3565b60016002556001600160a01b038116620000bd5760405162461bcd60e51b815260206004820152602d60248201527f4552433732315374616b696e673a204552433732312063616e206e6f7420626560448201526c2061646472657373207a65726f60981b606482015260840160405180910390fd5b600480546001600160a01b0319166001600160a01b0392909216919091179055620001b6565b6000828152602081815260408083206001600160a01b038516845290915290205460ff1662000180576000828152602081815260408083206001600160a01b03851684529091529020805460ff191660011790556200013f3390565b6001600160a01b0316816001600160a01b0316837f2f8788117e7eff1d82e926ec794901d17c78024a50270940304540a733656f0d60405160405180910390a45b5050565b6000602082840312156200019757600080fd5b81516001600160a01b0381168114620001af57600080fd5b9392505050565b612e2a80620001c66000396000f3fe60806040526004361061021e5760003560e01c80638c65c81f11610123578063b883457c116100ab578063ecf0a76b1161006f578063ecf0a76b146106b4578063f2f8ffa6146106c9578063f52e5133146106e9578063f8f50ac614610709578063fd7a04e41461072957600080fd5b8063b883457c1461061f578063c6e1e7321461063f578063c9a540fd1461065f578063d547741f1461067f578063e6abc7891461069f57600080fd5b8063a217fddf116100f2578063a217fddf1461056c578063ad42ac5414610581578063aedc625d14610596578063b02c43d0146105b6578063b5a86365146105ff57600080fd5b80638c65c81f146104c457806391d148541461050c5780639e252f001461052c578063a1215c3b1461054c57600080fd5b8063443c4b67116101a65780635dae6d4e116101755780635dae6d4e1461040157806361638ed5146104395780636588103b1461044c578063848ee75f1461048457806384e6dd95146104a457600080fd5b8063443c4b67146103815780634b0b3dc7146103a157806353244cf5146103c15780635507219f146103e157600080fd5b8063248a9ca3116101ed578063248a9ca3146102cf5780632f2ff15d146102ff57806334610ee61461031f57806336568abe1461034c57806341e13d271461036c57600080fd5b806301ffc9a71461022a57806308d2f28c1461025f5780630a72298e1461028d5780630dd0836d146102af57600080fd5b3661022557005b600080fd5b34801561023657600080fd5b5061024a6102453660046129b6565b610749565b60405190151581526020015b60405180910390f35b34801561026b57600080fd5b5061027f61027a3660046129e0565b610780565b604051908152602001610256565b34801561029957600080fd5b506102ad6102a8366004612a02565b6107de565b005b3480156102bb57600080fd5b506102ad6102ca366004612a77565b610b1b565b3480156102db57600080fd5b5061027f6102ea366004612a77565b60009081526020819052604090206001015490565b34801561030b57600080fd5b506102ad61031a366004612aa5565b610ce0565b34801561032b57600080fd5b5061033f61033a366004612aa5565b610d0a565b6040516102569190612ad5565b34801561035857600080fd5b506102ad610367366004612aa5565b610eb6565b34801561037857600080fd5b5061027f610f34565b34801561038d57600080fd5b5061027f61039c3660046129e0565b610f77565b3480156103ad57600080fd5b506102ad6103bc366004612a02565b6110db565b3480156103cd57600080fd5b5061027f6103dc366004612aa5565b6112eb565b3480156103ed57600080fd5b5061027f6103fc366004612aa5565b6113b7565b34801561040d57600080fd5b5061027f61041c3660046129e0565b600091825260066020908152604080842092845291905290205490565b6102ad6104473660046129e0565b611452565b34801561045857600080fd5b5060045461046c906001600160a01b031681565b6040516001600160a01b039091168152602001610256565b34801561049057600080fd5b506102ad61049f3660046129e0565b6115b1565b3480156104b057600080fd5b5061027f6104bf366004612aa5565b611736565b3480156104d057600080fd5b506104e46104df366004612a77565b6117ff565b604080519586526020860194909452928401919091526060830152608082015260a001610256565b34801561051857600080fd5b5061024a610527366004612aa5565b611840565b34801561053857600080fd5b506102ad610547366004612a77565b611869565b34801561055857600080fd5b5061027f610567366004612a77565b6118b5565b34801561057857600080fd5b5061027f600081565b34801561058d57600080fd5b5061027f6118c7565b3480156105a257600080fd5b5061027f6105b1366004612aa5565b611903565b3480156105c257600080fd5b506105d66105d1366004612a77565b611917565b604080519485526020850193909352918301526001600160a01b03166060820152608001610256565b34801561060b57600080fd5b5061027f61061a3660046129e0565b61195a565b34801561062b57600080fd5b5061033f61063a366004612a77565b61198e565b34801561064b57600080fd5b506102ad61065a366004612b19565b611b85565b34801561066b57600080fd5b5061027f61067a366004612a77565b611dea565b34801561068b57600080fd5b506102ad61069a366004612aa5565b611e55565b3480156106ab57600080fd5b5060015461027f565b3480156106c057600080fd5b5060055461027f565b3480156106d557600080fd5b5061027f6106e4366004612aa5565b611e7a565b3480156106f557600080fd5b506102ad6107043660046129e0565b611f08565b34801561071557600080fd5b5061027f6107243660046129e0565b612149565b34801561073557600080fd5b5061033f610744366004612b45565b612288565b60006001600160e01b03198216637965db0b60e01b148061077a57506301ffc9a760e01b6001600160e01b03198316145b92915050565b6000806001848154811061079657610796612b62565b906000526020600020906005020160030154905060006107b68585612149565b9050670de0b6b3a76400006107cb8284612b8e565b6107d59190612ba5565b95945050505050565b60028054036108345760405162461bcd60e51b815260206004820152601f60248201527f5265656e7472616e637947756172643a207265656e7472616e742063616c6c0060448201526064015b60405180910390fd5b600280558060005b81811015610b1057600084848381811061085857610858612b62565b600480546040516331a9108f60e11b81526020939093029490940135908201819052935033926001600160a01b03169150636352211e90602401602060405180830381865afa1580156108af573d6000803e3d6000fd5b505050506040513d601f19601f820116820180604052508101906108d39190612bc7565b6001600160a01b0316146109435760405162461bcd60e51b815260206004820152603160248201527f4552433732315374616b696e673a2063616e2774206465706f73697420746f6b60448201527032b739903cb7ba903237b713ba1037bbb760791b606482015260840161082b565b600480546040516323b872dd60e01b81523392810192909252306024830152604482018390526001600160a01b0316906323b872dd90606401600060405180830381600087803b15801561099657600080fd5b505af11580156109aa573d6000803e3d6000fd5b5050604080516080810182528481524260208201908152600354828401908152336060840190815260058054600181018255600091909152845160049091027f036b6384b5eca791c62761152d0c79bb0604c104a5fb6f4eb0703f3154bb3db0810182905593517f036b6384b5eca791c62761152d0c79bb0604c104a5fb6f4eb0703f3154bb3db1850181905592517f036b6384b5eca791c62761152d0c79bb0604c104a5fb6f4eb0703f3154bb3db2850181905591517f036b6384b5eca791c62761152d0c79bb0604c104a5fb6f4eb0703f3154bb3db390940180546001600160a01b0386166001600160a01b031990911617905594519396507fcfd579a296da4e913937c635021a19c3cc9b7c947763b20c9ec33b37d8c8dbce9550610af5949391929091938452602084019290925260408301526001600160a01b0316606082015260800190565b60405180910390a1505080610b0990612be4565b905061083c565b505060016002555050565b600060018281548110610b3057610b30612b62565b9060005260206000209060050201905080600201544211610b635760405162461bcd60e51b815260040161082b90612bfd565b6000610b6f8333610d0a565b90506000805b8251811015610c8d576000838281518110610b9257610b92612b62565b60200260200101519050600060058281548110610bb157610bb1612b62565b6000918252602091829020604080516080810182526004909302909101805483526001810154938301939093526002830154908201526003909101546001600160a01b0316606082018190529091503314610c0b57600080fd5b6000610c1b88836000015161195a565b600089815260066020908152604080832086518452909152812080549293508392909190610c4a908490612c3f565b9250508190555080876004016000828254610c659190612c3f565b90915550610c7590508186612c3f565b94505050508080610c8590612be4565b915050610b75565b50610c983382612415565b60408051338152602081018690529081018290527ffe40676cc8b72f39e6dd6a87a278f3c5a80e8092ba4ff4da20ca47079de3003f906060015b60405180910390a150505050565b600082815260208190526040902060010154610cfb8161252e565b610d05838361253b565b505050565b60606000610d178461198e565b604080516000808252602082019092529192505b8251811015610ead576000838281518110610d4857610d48612b62565b60200260200101519050600060058281548110610d6757610d67612b62565b6000918252602091829020604080516080810182526004909302909101805483526001810154938301939093526002830154908201526003909101546001600160a01b039081166060830181905291925088169003610e9857600084516001610dd09190612c3f565b67ffffffffffffffff811115610de857610de8612c52565b604051908082528060200260200182016040528015610e11578160200160208202803683370190505b50905060005b8551811015610e6957858181518110610e3257610e32612b62565b6020026020010151828281518110610e4c57610e4c612b62565b602090810291909101015280610e6181612be4565b915050610e17565b50828160018351610e7a9190612c68565b81518110610e8a57610e8a612b62565b602090810291909101015293505b50508080610ea590612be4565b915050610d2b565b50949350505050565b6001600160a01b0381163314610f265760405162461bcd60e51b815260206004820152602f60248201527f416363657373436f6e74726f6c3a2063616e206f6e6c792072656e6f756e636560448201526e103937b632b9903337b91039b2b63360891b606482015260840161082b565b610f3082826125bf565b5050565b600080805b600554811015610f7157610f4c81612624565b15610f5f5781610f5b81612be4565b9250505b80610f6981612be4565b915050610f39565b50919050565b600080610f838461198e565b9050600060018581548110610f9a57610f9a612b62565b90600052602060002090600502016040518060a001604052908160008201548152602001600182015481526020016002820154815260200160038201548152602001600482015481525050905060008060005b84518110156110b257600085828151811061100a5761100a612b62565b6020026020010151905060006005828154811061102957611029612b62565b60009182526020808320604080516080810182526004909402909101805484526001810154928401839052600281015484830152600301546001600160a01b031660608401528951908a0151929450611083929091612656565b905061108f8187612c3f565b955089830361109c578094505b50505080806110aa90612be4565b915050610fed565b50816110c682670de0b6b3a7640000612b8e565b6110d09190612ba5565b979650505050505050565b600280540361112c5760405162461bcd60e51b815260206004820152601f60248201527f5265656e7472616e637947756172643a207265656e7472616e742063616c6c00604482015260640161082b565b600280558060005b81811015610b1057600084848381811061115057611150612b62565b905060200201359050600061116482611dea565b905060006005828154811061117b5761117b612b62565b6000918252602090912060049091020160038101549091506001600160a01b031633146112065760405162461bcd60e51b815260206004820152603360248201527f4552433732315374616b696e673a2063616e27742077697468647261772061206044820152723a37b5b2b7103cb7ba903237b713ba1037bbb760691b606482015260840161082b565b426002820155600480546040516323b872dd60e01b81523092810192909252336024830152604482018590526001600160a01b0316906323b872dd90606401600060405180830381600087803b15801561125f57600080fd5b505af1158015611273573d6000803e3d6000fd5b50508254600184015460028501546003860154604080519485526020850193909352918301526001600160a01b031660608201527faad150bbac06daf436a0d721e85abf2c3455bff6e25ebe92eeab207caaff18029250608001905060405180910390a1505050806112e490612be4565b9050611134565b6000806112f88484610d0a565b90506000805b8251811015610ead57600083828151811061131b5761131b612b62565b6020026020010151905060006005828154811061133a5761133a612b62565b600091825260208083206040805160808101825260049094029091018054808552600182015493850193909352600281015491840191909152600301546001600160a01b03166060830152909250611393908a90612149565b905061139f8186612c3f565b945050505080806113af90612be4565b9150506112fe565b6000806113c48484610d0a565b90506000805b8251811015610ead5760008382815181106113e7576113e7612b62565b6020026020010151905060006005828154811061140657611406612b62565b600091825260208083206004909202909101548a835260068252604080842082855290925291205490915061143b9085612c3f565b93505050808061144a90612be4565b9150506113ca565b600061145d8161252e565b600154831061147e5760405162461bcd60e51b815260040161082b90612c7b565b600034116114d85760405162461bcd60e51b815260206004820152602160248201527f4552433237315374616b696e673a204d75737420696e636c7564652066756e646044820152607360f81b606482015260840161082b565b3482146115375760405162461bcd60e51b815260206004820152602760248201527f4552433237315374616b696e673a2046756e647320646f6e2774206d6174636860448201526608185b5bdd5b9d60ca1b606482015260840161082b565b60006001848154811061154c5761154c612b62565b90600052602060002090600502019050348160030160008282546115709190612c3f565b909155505060038101546040805186815260208101929092527fc30d09038cdea01854d3b58940393d97d881e83f40ddc3a8225f32e76b584b149101610cd2565b60006115bc8161252e565b60006115c88385612c3f565b90506115d384612676565b6040805160a08101825285815260208101858152818301848152600060608401818152608085018281526001805480820182559352855160059093027fb10e2d527612073b26eecdfd717e6a320cf44b4afac2b0732d9fcbe2b7fa0cf6810184905594517fb10e2d527612073b26eecdfd717e6a320cf44b4afac2b0732d9fcbe2b7fa0cf7860181905593517fb10e2d527612073b26eecdfd717e6a320cf44b4afac2b0732d9fcbe2b7fa0cf8860181905591517fb10e2d527612073b26eecdfd717e6a320cf44b4afac2b0732d9fcbe2b7fa0cf9860181905590517fb10e2d527612073b26eecdfd717e6a320cf44b4afac2b0732d9fcbe2b7fa0cfa909501859055955194957f519f8bffd327b774b2e6c104d83cdf5f1526d480d3acc25ccd8abae55e4f6272956117279593949390948552602085019390935260408401919091526060830152608082015260a00190565b60405180910390a15050505050565b6000806117438484610d0a565b90506000805b8251811015610ead57600083828151811061176657611766612b62565b6020026020010151905060006005828154811061178557611785612b62565b60009182526020918290206040805160808101825260049093029091018054808452600182015494840194909452600281015491830191909152600301546001600160a01b0316606082015291506117de908990610780565b6117e89085612c3f565b9350505080806117f790612be4565b915050611749565b6001818154811061180f57600080fd5b6000918252602090912060059091020180546001820154600283015460038401546004909401549294509092909185565b6000918252602082815260408084206001600160a01b0393909316845291905290205460ff1690565b60006118748161252e565b61187e3383612415565b6040518281527f103add520cfd30dd0ad5e069258f06d08bc373a5079338aacf71cd52aa2b969f9060200160405180910390a15050565b60006118c08261198e565b5192915050565b600080805b600554811015610f71576118df81612624565b6118f157816118ed81612be4565b9250505b806118fb81612be4565b9150506118cc565b600061190f8383610d0a565b519392505050565b6005818154811061192757600080fd5b6000918252602090912060049091020180546001820154600283015460039093015491935091906001600160a01b031684565b6000806119678484610780565b60008581526006602090815260408083208784529091529020549091506107d58183612c68565b60606000600183815481106119a5576119a5612b62565b600091825260208083206040805160a081018252600594909402909101805484526001810154848401526002810154848301526003810154606085015260040154608084015280518481529182019052909250905b600554811015611b7d57600060058281548110611a1957611a19612b62565b6000918252602091829020604080516080810182526004909302909101805483526001810154938301849052600281015483830152600301546001600160a01b031660608301528601519092501115611b6a57611a7582612624565b80611a8d5750611a8d81604001518560400151612711565b15611b6a57600083516001611aa29190612c3f565b67ffffffffffffffff811115611aba57611aba612c52565b604051908082528060200260200182016040528015611ae3578160200160208202803683370190505b50905060005b8451811015611b3b57848181518110611b0457611b04612b62565b6020026020010151828281518110611b1e57611b1e612b62565b602090810291909101015280611b3381612be4565b915050611ae9565b50828160018351611b4c9190612c68565b81518110611b5c57611b5c612b62565b602090810291909101015292505b5080611b7581612be4565b9150506119fa565b509392505050565b60015483908110611ba85760405162461bcd60e51b815260040161082b90612c7b565b6000611bb38161252e565b8415611c495760006001611bc78188612c68565b81548110611bd757611bd7612b62565b90600052602060002090600502016040518060a001604052908160008201548152602001600182015481526020016002820154815260200160038201548152602001600482015481525050905080604001518511611c475760405162461bcd60e51b815260040161082b90612cbd565b505b6000611c558486612c3f565b60018054919250611c6591612c68565b861015611d525760006001611c7a8882612c3f565b81548110611c8a57611c8a612b62565b90600052602060002090600502016040518060a001604052908160008201548152602001600182015481526020016002820154815260200160038201548152602001600482015481525050905080600001518210611d505760405162461bcd60e51b815260206004820152603a60248201527f526f756e64436f6e74726f6c3a2063616e277420656e6420726f756e6420616660448201527f746572206e65787420726f756e64206861732073746172746564000000000000606482015260840161082b565b505b600060018781548110611d6757611d67612b62565b6000918252602091829020600590910201878155600181018790556002810184905560038101546004820154604080518b81529485018a905284018690526060840191909152608083015291507f153be7fffad81a448dd72e351b477e835c58cd4a84a052a997ae5e31bdc5b6319060a00160405180910390a150505050505050565b6005546000908190611dfe90600190612c68565b90505b8260058281548110611e1557611e15612b62565b906000526020600020906004020160000154148015611e385750611e3881612624565b15611e435792915050565b80611e4d81612d11565b915050611e01565b600082815260208190526040902060010154611e708161252e565b610d0583836125bf565b600080611e878484610d0a565b90506000805b8251811015610ead576000838281518110611eaa57611eaa612b62565b60200260200101519050600060058281548110611ec957611ec9612b62565b9060005260206000209060040201600001549050611ee7888261195a565b611ef19085612c3f565b935050508080611f0090612be4565b915050611e8d565b600060018381548110611f1d57611f1d612b62565b9060005260206000209060050201905080600201544211611f505760405162461bcd60e51b815260040161082b90612bfd565b6000611f5c848461272a565b9050600060058281548110611f7357611f73612b62565b6000918252602091829020604080516080810182526004909302909101805483526001810154938301939093526002830154908201526003909101546001600160a01b03166060820181905290915033146120255760405162461bcd60e51b815260206004820152602c60248201527f4552433732315374616b696e673a2073656e646572206973206e6f742074686560448201526b103a37b5b2b71037bbb732b960a11b606482015260840161082b565b6000612031868661195a565b9050600081116120945760405162461bcd60e51b815260206004820152602860248201527f4552433732315374616b696e673a207468657265206973206e6f7468696e6720604482015267746f20636c61696d60c01b606482015260840161082b565b6120a2826060015182612415565b6000868152600660209081526040808320888452909152812080548392906120cb908490612c3f565b92505081905550808460040160008282546120e69190612c3f565b9091555050606082810151604080516001600160a01b0390921682526020820189905281018790529081018290527f45c072aa05b9853b5a993de7a28bc332ee01404a628cec1a23ce0f659f842ef19060800160405180910390a1505050505050565b6000806121558461198e565b905060006001858154811061216c5761216c612b62565b90600052602060002090600502016040518060a001604052908160008201548152602001600182015481526020016002820154815260200160038201548152602001600482015481525050905060008060005b84518110156110b25760008582815181106121dc576121dc612b62565b602002602001015190506000600582815481106121fb576121fb612b62565b60009182526020808320604080516080810182526004909402909101805484526001810154928401839052600281015484830152600301546001600160a01b031660608401528951908a0151929450612255929091612656565b90506122618187612c3f565b955089826000015103612272578094505b505050808061228090612be4565b9150506121bf565b604080516000808252602082019092526060915b60055481101561240e576000600582815481106122bb576122bb612b62565b6000918252602091829020604080516080810182526004909302909101805483526001810154938301939093526002830154908201526003909101546001600160a01b0390811660608301819052919250861690036123fb576003548160400151036123fb576000835160016123319190612c3f565b67ffffffffffffffff81111561234957612349612c52565b604051908082528060200260200182016040528015612372578160200160208202803683370190505b50905060005b84518110156123ca5784818151811061239357612393612b62565b60200260200101518282815181106123ad576123ad612b62565b6020908102919091010152806123c281612be4565b915050612378565b508151815182906123dd90600190612c68565b815181106123ed576123ed612b62565b602090810291909101015292505b508061240681612be4565b91505061229c565b5092915050565b804710156124655760405162461bcd60e51b815260206004820152601d60248201527f416464726573733a20696e73756666696369656e742062616c616e6365000000604482015260640161082b565b6000826001600160a01b03168260405160006040518083038185875af1925050503d80600081146124b2576040519150601f19603f3d011682016040523d82523d6000602084013e6124b7565b606091505b5050905080610d055760405162461bcd60e51b815260206004820152603a60248201527f416464726573733a20756e61626c6520746f2073656e642076616c75652c207260448201527f6563697069656e74206d61792068617665207265766572746564000000000000606482015260840161082b565b61253881336127b6565b50565b6125458282611840565b610f30576000828152602081815260408083206001600160a01b03851684529091529020805460ff1916600117905561257b3390565b6001600160a01b0316816001600160a01b0316837f2f8788117e7eff1d82e926ec794901d17c78024a50270940304540a733656f0d60405160405180910390a45050565b6125c98282611840565b15610f30576000828152602081815260408083206001600160a01b0385168085529252808320805460ff1916905551339285917ff6391f5c32d9c69d2a47ea670b442974b53935d1edc7fd64eb21e047a839171b9190a45050565b60006003546005838154811061263c5761263c612b62565b906000526020600020906004020160020154149050919050565b600083821015612664578391505b61266e8284612c68565b949350505050565b60015415612538576001805460009190612691908290612c68565b815481106126a1576126a1612b62565b90600052602060002090600502016040518060a001604052908160008201548152602001600182015481526020016002820154815260200160038201548152602001600482015481525050905080604001518211610f305760405162461bcd60e51b815260040161082b90612cbd565b60008183118015612723575060035483105b9392505050565b6000806127368461198e565b905060005b81518110156127aa57600082828151811061275857612758612b62565b60200260200101519050846005828154811061277657612776612b62565b9060005260206000209060040201600001540361279757925061077a915050565b50806127a281612be4565b91505061273b565b50506003549392505050565b6127c08282611840565b610f30576127d8816001600160a01b0316601461281a565b6127e383602061281a565b6040516020016127f4929190612d4c565b60408051601f198184030181529082905262461bcd60e51b825261082b91600401612dc1565b60606000612829836002612b8e565b612834906002612c3f565b67ffffffffffffffff81111561284c5761284c612c52565b6040519080825280601f01601f191660200182016040528015612876576020820181803683370190505b509050600360fc1b8160008151811061289157612891612b62565b60200101906001600160f81b031916908160001a905350600f60fb1b816001815181106128c0576128c0612b62565b60200101906001600160f81b031916908160001a90535060006128e4846002612b8e565b6128ef906001612c3f565b90505b6001811115612967576f181899199a1a9b1b9c1cb0b131b232b360811b85600f166010811061292357612923612b62565b1a60f81b82828151811061293957612939612b62565b60200101906001600160f81b031916908160001a90535060049490941c9361296081612d11565b90506128f2565b5083156127235760405162461bcd60e51b815260206004820181905260248201527f537472696e67733a20686578206c656e67746820696e73756666696369656e74604482015260640161082b565b6000602082840312156129c857600080fd5b81356001600160e01b03198116811461272357600080fd5b600080604083850312156129f357600080fd5b50508035926020909101359150565b60008060208385031215612a1557600080fd5b823567ffffffffffffffff80821115612a2d57600080fd5b818501915085601f830112612a4157600080fd5b813581811115612a5057600080fd5b8660208260051b8501011115612a6557600080fd5b60209290920196919550909350505050565b600060208284031215612a8957600080fd5b5035919050565b6001600160a01b038116811461253857600080fd5b60008060408385031215612ab857600080fd5b823591506020830135612aca81612a90565b809150509250929050565b6020808252825182820181905260009190848201906040850190845b81811015612b0d57835183529284019291840191600101612af1565b50909695505050505050565b600080600060608486031215612b2e57600080fd5b505081359360208301359350604090920135919050565b600060208284031215612b5757600080fd5b813561272381612a90565b634e487b7160e01b600052603260045260246000fd5b634e487b7160e01b600052601160045260246000fd5b808202811582820484141761077a5761077a612b78565b600082612bc257634e487b7160e01b600052601260045260246000fd5b500490565b600060208284031215612bd957600080fd5b815161272381612a90565b600060018201612bf657612bf6612b78565b5060010190565b60208082526022908201527f4552433732315374616b696e673a20726f756e6420686173206e6f7420656e64604082015261195960f21b606082015260800190565b8082018082111561077a5761077a612b78565b634e487b7160e01b600052604160045260246000fd5b8181038181111561077a5761077a612b78565b60208082526022908201527f4552433237315374616b696e673a20726f756e6420646f65736e2774206578696040820152611cdd60f21b606082015260800190565b60208082526034908201527f526f756e64436f6e74726f6c3a2063616e277420737461727420726f756e64206040820152736265666f72652070726576696f757320656e647360601b606082015260800190565b600081612d2057612d20612b78565b506000190190565b60005b83811015612d43578181015183820152602001612d2b565b50506000910152565b7f416363657373436f6e74726f6c3a206163636f756e7420000000000000000000815260008351612d84816017850160208801612d28565b7001034b99036b4b9b9b4b733903937b6329607d1b6017918401918201528351612db5816028840160208801612d28565b01602801949350505050565b6020815260008251806020840152612de0816040850160208701612d28565b601f01601f1916919091016040019291505056fea26469706673582212207db054e1ea55af79dae27e42de7b74f2241bd88add2b28207a360caca04d2bcf64736f6c63430008110033",
  "linkReferences": {},
  "deployedLinkReferences": {}
}