{
    "_format": "hh-sol-artifact-1",
    "contractName": "KMCToken",
    "sourceName": "contracts/KMCToken.sol",
    "abi": [
        {
            "inputs": [
                {
                    "internalType": "address payable",
                    "name": "_marketingAddress",
                    "type": "address"
                },
                {
                    "internalType": "address payable",
                    "name": "_projectAddress",
                    "type": "address"
                },
                {
                    "internalType": "address payable",
                    "name": "_teamAddress",
                    "type": "address"
                },
                {
                    "internalType": "address payable",
                    "name": "_routerAddress",
                    "type": "address"
                }
            ],
            "stateMutability": "nonpayable",
            "type": "constructor"
        },
        {
            "anonymous": false,
            "inputs": [
                {
                    "indexed": true,
                    "internalType": "address",
                    "name": "owner",
                    "type": "address"
                },
                {
                    "indexed": true,
                    "internalType": "address",
                    "name": "spender",
                    "type": "address"
                },
                {
                    "indexed": false,
                    "internalType": "uint256",
                    "name": "value",
                    "type": "uint256"
                }
            ],
            "name": "Approval",
            "type": "event"
        },
        {
            "anonymous": false,
            "inputs": [
                {
                    "indexed": true,
                    "internalType": "address",
                    "name": "previousOwner",
                    "type": "address"
                },
                {
                    "indexed": true,
                    "internalType": "address",
                    "name": "newOwner",
                    "type": "address"
                }
            ],
            "name": "OwnershipTransferred",
            "type": "event"
        },
        {
            "anonymous": false,
            "inputs": [
                {
                    "indexed": false,
                    "internalType": "address",
                    "name": "_address",
                    "type": "address"
                },
                {
                    "indexed": false,
                    "internalType": "uint256",
                    "name": "amount",
                    "type": "uint256"
                }
            ],
            "name": "RescuedERC20",
            "type": "event"
        },
        {
            "anonymous": false,
            "inputs": [
                {
                    "indexed": false,
                    "internalType": "uint256",
                    "name": "amount",
                    "type": "uint256"
                }
            ],
            "name": "RescuedETH",
            "type": "event"
        },
        {
            "anonymous": false,
            "inputs": [
                {
                    "indexed": true,
                    "internalType": "bytes32",
                    "name": "role",
                    "type": "bytes32"
                },
                {
                    "indexed": true,
                    "internalType": "bytes32",
                    "name": "previousAdminRole",
                    "type": "bytes32"
                },
                {
                    "indexed": true,
                    "internalType": "bytes32",
                    "name": "newAdminRole",
                    "type": "bytes32"
                }
            ],
            "name": "RoleAdminChanged",
            "type": "event"
        },
        {
            "anonymous": false,
            "inputs": [
                {
                    "indexed": true,
                    "internalType": "bytes32",
                    "name": "role",
                    "type": "bytes32"
                },
                {
                    "indexed": true,
                    "internalType": "address",
                    "name": "account",
                    "type": "address"
                },
                {
                    "indexed": true,
                    "internalType": "address",
                    "name": "sender",
                    "type": "address"
                }
            ],
            "name": "RoleGranted",
            "type": "event"
        },
        {
            "anonymous": false,
            "inputs": [
                {
                    "indexed": true,
                    "internalType": "bytes32",
                    "name": "role",
                    "type": "bytes32"
                },
                {
                    "indexed": true,
                    "internalType": "address",
                    "name": "account",
                    "type": "address"
                },
                {
                    "indexed": true,
                    "internalType": "address",
                    "name": "sender",
                    "type": "address"
                }
            ],
            "name": "RoleRevoked",
            "type": "event"
        },
        {
            "anonymous": false,
            "inputs": [
                {
                    "indexed": false,
                    "internalType": "uint256",
                    "name": "blocks",
                    "type": "uint256"
                }
            ],
            "name": "SetAntibotBlocks",
            "type": "event"
        },
        {
            "anonymous": false,
            "inputs": [
                {
                    "indexed": false,
                    "internalType": "uint256",
                    "name": "tax",
                    "type": "uint256"
                }
            ],
            "name": "SetAntibotTax",
            "type": "event"
        },
        {
            "anonymous": false,
            "inputs": [
                {
                    "components": [
                        {
                            "internalType": "uint256",
                            "name": "marketing",
                            "type": "uint256"
                        },
                        {
                            "internalType": "uint256",
                            "name": "project",
                            "type": "uint256"
                        },
                        {
                            "internalType": "uint256",
                            "name": "team",
                            "type": "uint256"
                        },
                        {
                            "internalType": "uint256",
                            "name": "liquidity",
                            "type": "uint256"
                        }
                    ],
                    "indexed": false,
                    "internalType": "struct KMCToken.Tax",
                    "name": "buyTax",
                    "type": "tuple"
                }
            ],
            "name": "SetBuyTax",
            "type": "event"
        },
        {
            "anonymous": false,
            "inputs": [
                {
                    "indexed": false,
                    "internalType": "address",
                    "name": "_address",
                    "type": "address"
                },
                {
                    "indexed": false,
                    "internalType": "bool",
                    "name": "value",
                    "type": "bool"
                }
            ],
            "name": "SetExcludeFromMaxBuy",
            "type": "event"
        },
        {
            "anonymous": false,
            "inputs": [
                {
                    "indexed": false,
                    "internalType": "address",
                    "name": "_address",
                    "type": "address"
                },
                {
                    "indexed": false,
                    "internalType": "bool",
                    "name": "value",
                    "type": "bool"
                }
            ],
            "name": "SetExcludeFromMaxHoldLimit",
            "type": "event"
        },
        {
            "anonymous": false,
            "inputs": [
                {
                    "indexed": false,
                    "internalType": "address",
                    "name": "_address",
                    "type": "address"
                },
                {
                    "indexed": false,
                    "internalType": "bool",
                    "name": "value",
                    "type": "bool"
                }
            ],
            "name": "SetExcludeFromMaxSell",
            "type": "event"
        },
        {
            "anonymous": false,
            "inputs": [
                {
                    "indexed": false,
                    "internalType": "address",
                    "name": "_address",
                    "type": "address"
                },
                {
                    "indexed": false,
                    "internalType": "bool",
                    "name": "value",
                    "type": "bool"
                }
            ],
            "name": "SetExcludeFromMaxW2W",
            "type": "event"
        },
        {
            "anonymous": false,
            "inputs": [
                {
                    "indexed": false,
                    "internalType": "address",
                    "name": "_address",
                    "type": "address"
                },
                {
                    "indexed": false,
                    "internalType": "bool",
                    "name": "value",
                    "type": "bool"
                }
            ],
            "name": "SetExcludeFromRestTime",
            "type": "event"
        },
        {
            "anonymous": false,
            "inputs": [
                {
                    "indexed": false,
                    "internalType": "address",
                    "name": "_address",
                    "type": "address"
                },
                {
                    "indexed": false,
                    "internalType": "bool",
                    "name": "value",
                    "type": "bool"
                }
            ],
            "name": "SetExcludeFromTax",
            "type": "event"
        },
        {
            "anonymous": false,
            "inputs": [
                {
                    "indexed": false,
                    "internalType": "address",
                    "name": "receiver",
                    "type": "address"
                }
            ],
            "name": "SetMarketingAddress",
            "type": "event"
        },
        {
            "anonymous": false,
            "inputs": [
                {
                    "indexed": false,
                    "internalType": "uint256",
                    "name": "amount",
                    "type": "uint256"
                }
            ],
            "name": "SetMaxBuy",
            "type": "event"
        },
        {
            "anonymous": false,
            "inputs": [
                {
                    "indexed": false,
                    "internalType": "uint256",
                    "name": "amount",
                    "type": "uint256"
                }
            ],
            "name": "SetMaxHoldLimit",
            "type": "event"
        },
        {
            "anonymous": false,
            "inputs": [
                {
                    "indexed": false,
                    "internalType": "uint256",
                    "name": "amount",
                    "type": "uint256"
                }
            ],
            "name": "SetMaxSell",
            "type": "event"
        },
        {
            "anonymous": false,
            "inputs": [
                {
                    "indexed": false,
                    "internalType": "uint256",
                    "name": "amount",
                    "type": "uint256"
                }
            ],
            "name": "SetMaxW2W",
            "type": "event"
        },
        {
            "anonymous": false,
            "inputs": [
                {
                    "indexed": false,
                    "internalType": "address",
                    "name": "_address",
                    "type": "address"
                }
            ],
            "name": "SetPairAddress",
            "type": "event"
        },
        {
            "anonymous": false,
            "inputs": [
                {
                    "indexed": false,
                    "internalType": "address",
                    "name": "receiver",
                    "type": "address"
                }
            ],
            "name": "SetProjectAddress",
            "type": "event"
        },
        {
            "anonymous": false,
            "inputs": [
                {
                    "indexed": false,
                    "internalType": "bool",
                    "name": "value",
                    "type": "bool"
                }
            ],
            "name": "SetProvidingLiquidity",
            "type": "event"
        },
        {
            "anonymous": false,
            "inputs": [
                {
                    "indexed": false,
                    "internalType": "uint256",
                    "name": "duration",
                    "type": "uint256"
                }
            ],
            "name": "SetRestTime",
            "type": "event"
        },
        {
            "anonymous": false,
            "inputs": [
                {
                    "indexed": false,
                    "internalType": "address",
                    "name": "receiver",
                    "type": "address"
                }
            ],
            "name": "SetRouterAddress",
            "type": "event"
        },
        {
            "anonymous": false,
            "inputs": [
                {
                    "components": [
                        {
                            "internalType": "uint256",
                            "name": "marketing",
                            "type": "uint256"
                        },
                        {
                            "internalType": "uint256",
                            "name": "project",
                            "type": "uint256"
                        },
                        {
                            "internalType": "uint256",
                            "name": "team",
                            "type": "uint256"
                        },
                        {
                            "internalType": "uint256",
                            "name": "liquidity",
                            "type": "uint256"
                        }
                    ],
                    "indexed": false,
                    "internalType": "struct KMCToken.Tax",
                    "name": "sellTax",
                    "type": "tuple"
                }
            ],
            "name": "SetSellTax",
            "type": "event"
        },
        {
            "anonymous": false,
            "inputs": [
                {
                    "indexed": false,
                    "internalType": "address",
                    "name": "receiver",
                    "type": "address"
                }
            ],
            "name": "SetTeamAddress",
            "type": "event"
        },
        {
            "anonymous": false,
            "inputs": [
                {
                    "indexed": false,
                    "internalType": "uint256",
                    "name": "amount",
                    "type": "uint256"
                }
            ],
            "name": "SetTokenLiquidityThreshold",
            "type": "event"
        },
        {
            "anonymous": false,
            "inputs": [],
            "name": "TradingEnabled",
            "type": "event"
        },
        {
            "anonymous": false,
            "inputs": [
                {
                    "indexed": true,
                    "internalType": "address",
                    "name": "from",
                    "type": "address"
                },
                {
                    "indexed": true,
                    "internalType": "address",
                    "name": "to",
                    "type": "address"
                },
                {
                    "indexed": false,
                    "internalType": "uint256",
                    "name": "value",
                    "type": "uint256"
                }
            ],
            "name": "Transfer",
            "type": "event"
        },
        {
            "inputs": [],
            "name": "DEFAULT_ADMIN_ROLE",
            "outputs": [
                {
                    "internalType": "bytes32",
                    "name": "",
                    "type": "bytes32"
                }
            ],
            "stateMutability": "view",
            "type": "function"
        },
        {
            "inputs": [
                {
                    "internalType": "address",
                    "name": "owner",
                    "type": "address"
                },
                {
                    "internalType": "address",
                    "name": "spender",
                    "type": "address"
                }
            ],
            "name": "allowance",
            "outputs": [
                {
                    "internalType": "uint256",
                    "name": "",
                    "type": "uint256"
                }
            ],
            "stateMutability": "view",
            "type": "function"
        },
        {
            "inputs": [],
            "name": "antibotBlocks",
            "outputs": [
                {
                    "internalType": "uint256",
                    "name": "",
                    "type": "uint256"
                }
            ],
            "stateMutability": "view",
            "type": "function"
        },
        {
            "inputs": [],
            "name": "antibotTax",
            "outputs": [
                {
                    "internalType": "uint256",
                    "name": "",
                    "type": "uint256"
                }
            ],
            "stateMutability": "view",
            "type": "function"
        },
        {
            "inputs": [
                {
                    "internalType": "address",
                    "name": "spender",
                    "type": "address"
                },
                {
                    "internalType": "uint256",
                    "name": "amount",
                    "type": "uint256"
                }
            ],
            "name": "approve",
            "outputs": [
                {
                    "internalType": "bool",
                    "name": "",
                    "type": "bool"
                }
            ],
            "stateMutability": "nonpayable",
            "type": "function"
        },
        {
            "inputs": [
                {
                    "internalType": "address",
                    "name": "account",
                    "type": "address"
                }
            ],
            "name": "balanceOf",
            "outputs": [
                {
                    "internalType": "uint256",
                    "name": "",
                    "type": "uint256"
                }
            ],
            "stateMutability": "view",
            "type": "function"
        },
        {
            "inputs": [
                {
                    "internalType": "address[]",
                    "name": "addressList",
                    "type": "address[]"
                },
                {
                    "internalType": "bool",
                    "name": "value",
                    "type": "bool"
                }
            ],
            "name": "bulkSetExcludeFromMaxBuy",
            "outputs": [],
            "stateMutability": "nonpayable",
            "type": "function"
        },
        {
            "inputs": [
                {
                    "internalType": "address[]",
                    "name": "addressList",
                    "type": "address[]"
                },
                {
                    "internalType": "bool",
                    "name": "value",
                    "type": "bool"
                }
            ],
            "name": "bulkSetExcludeFromMaxHoldLimit",
            "outputs": [],
            "stateMutability": "nonpayable",
            "type": "function"
        },
        {
            "inputs": [
                {
                    "internalType": "address[]",
                    "name": "addressList",
                    "type": "address[]"
                },
                {
                    "internalType": "bool",
                    "name": "value",
                    "type": "bool"
                }
            ],
            "name": "bulkSetExcludeFromMaxSell",
            "outputs": [],
            "stateMutability": "nonpayable",
            "type": "function"
        },
        {
            "inputs": [
                {
                    "internalType": "address[]",
                    "name": "addressList",
                    "type": "address[]"
                },
                {
                    "internalType": "bool",
                    "name": "value",
                    "type": "bool"
                }
            ],
            "name": "bulkSetExcludeFromMaxW2W",
            "outputs": [],
            "stateMutability": "nonpayable",
            "type": "function"
        },
        {
            "inputs": [
                {
                    "internalType": "address[]",
                    "name": "addressList",
                    "type": "address[]"
                },
                {
                    "internalType": "bool",
                    "name": "value",
                    "type": "bool"
                }
            ],
            "name": "bulkSetExcludeFromRestTime",
            "outputs": [],
            "stateMutability": "nonpayable",
            "type": "function"
        },
        {
            "inputs": [
                {
                    "internalType": "address[]",
                    "name": "addressList",
                    "type": "address[]"
                },
                {
                    "internalType": "bool",
                    "name": "value",
                    "type": "bool"
                }
            ],
            "name": "bulkSetExcludeFromTax",
            "outputs": [],
            "stateMutability": "nonpayable",
            "type": "function"
        },
        {
            "inputs": [
                {
                    "internalType": "uint256",
                    "name": "amount",
                    "type": "uint256"
                }
            ],
            "name": "burn",
            "outputs": [],
            "stateMutability": "nonpayable",
            "type": "function"
        },
        {
            "inputs": [],
            "name": "buyTax",
            "outputs": [
                {
                    "internalType": "uint256",
                    "name": "marketing",
                    "type": "uint256"
                },
                {
                    "internalType": "uint256",
                    "name": "project",
                    "type": "uint256"
                },
                {
                    "internalType": "uint256",
                    "name": "team",
                    "type": "uint256"
                },
                {
                    "internalType": "uint256",
                    "name": "liquidity",
                    "type": "uint256"
                }
            ],
            "stateMutability": "view",
            "type": "function"
        },
        {
            "inputs": [],
            "name": "decimals",
            "outputs": [
                {
                    "internalType": "uint8",
                    "name": "",
                    "type": "uint8"
                }
            ],
            "stateMutability": "view",
            "type": "function"
        },
        {
            "inputs": [
                {
                    "internalType": "address",
                    "name": "spender",
                    "type": "address"
                },
                {
                    "internalType": "uint256",
                    "name": "subtractedValue",
                    "type": "uint256"
                }
            ],
            "name": "decreaseAllowance",
            "outputs": [
                {
                    "internalType": "bool",
                    "name": "",
                    "type": "bool"
                }
            ],
            "stateMutability": "nonpayable",
            "type": "function"
        },
        {
            "inputs": [],
            "name": "enableTrading",
            "outputs": [],
            "stateMutability": "nonpayable",
            "type": "function"
        },
        {
            "inputs": [],
            "name": "genesisBlock",
            "outputs": [
                {
                    "internalType": "uint256",
                    "name": "",
                    "type": "uint256"
                }
            ],
            "stateMutability": "view",
            "type": "function"
        },
        {
            "inputs": [
                {
                    "internalType": "bytes32",
                    "name": "role",
                    "type": "bytes32"
                }
            ],
            "name": "getRoleAdmin",
            "outputs": [
                {
                    "internalType": "bytes32",
                    "name": "",
                    "type": "bytes32"
                }
            ],
            "stateMutability": "view",
            "type": "function"
        },
        {
            "inputs": [
                {
                    "internalType": "bytes32",
                    "name": "role",
                    "type": "bytes32"
                },
                {
                    "internalType": "address",
                    "name": "account",
                    "type": "address"
                }
            ],
            "name": "grantRole",
            "outputs": [],
            "stateMutability": "nonpayable",
            "type": "function"
        },
        {
            "inputs": [
                {
                    "internalType": "bytes32",
                    "name": "role",
                    "type": "bytes32"
                },
                {
                    "internalType": "address",
                    "name": "account",
                    "type": "address"
                }
            ],
            "name": "hasRole",
            "outputs": [
                {
                    "internalType": "bool",
                    "name": "",
                    "type": "bool"
                }
            ],
            "stateMutability": "view",
            "type": "function"
        },
        {
            "inputs": [
                {
                    "internalType": "address",
                    "name": "spender",
                    "type": "address"
                },
                {
                    "internalType": "uint256",
                    "name": "addedValue",
                    "type": "uint256"
                }
            ],
            "name": "increaseAllowance",
            "outputs": [
                {
                    "internalType": "bool",
                    "name": "",
                    "type": "bool"
                }
            ],
            "stateMutability": "nonpayable",
            "type": "function"
        },
        {
            "inputs": [
                {
                    "internalType": "address",
                    "name": "_address",
                    "type": "address"
                }
            ],
            "name": "isExcludedFromMaxBuy",
            "outputs": [
                {
                    "internalType": "bool",
                    "name": "",
                    "type": "bool"
                }
            ],
            "stateMutability": "view",
            "type": "function"
        },
        {
            "inputs": [
                {
                    "internalType": "address",
                    "name": "_address",
                    "type": "address"
                }
            ],
            "name": "isExcludedFromMaxHoldLimit",
            "outputs": [
                {
                    "internalType": "bool",
                    "name": "",
                    "type": "bool"
                }
            ],
            "stateMutability": "view",
            "type": "function"
        },
        {
            "inputs": [
                {
                    "internalType": "address",
                    "name": "_address",
                    "type": "address"
                }
            ],
            "name": "isExcludedFromMaxSell",
            "outputs": [
                {
                    "internalType": "bool",
                    "name": "",
                    "type": "bool"
                }
            ],
            "stateMutability": "view",
            "type": "function"
        },
        {
            "inputs": [
                {
                    "internalType": "address",
                    "name": "_address",
                    "type": "address"
                }
            ],
            "name": "isExcludedFromMaxW2W",
            "outputs": [
                {
                    "internalType": "bool",
                    "name": "",
                    "type": "bool"
                }
            ],
            "stateMutability": "view",
            "type": "function"
        },
        {
            "inputs": [
                {
                    "internalType": "address",
                    "name": "_address",
                    "type": "address"
                }
            ],
            "name": "isExcludedFromRestTime",
            "outputs": [
                {
                    "internalType": "bool",
                    "name": "",
                    "type": "bool"
                }
            ],
            "stateMutability": "view",
            "type": "function"
        },
        {
            "inputs": [
                {
                    "internalType": "address",
                    "name": "_address",
                    "type": "address"
                }
            ],
            "name": "isExcludedFromTax",
            "outputs": [
                {
                    "internalType": "bool",
                    "name": "",
                    "type": "bool"
                }
            ],
            "stateMutability": "view",
            "type": "function"
        },
        {
            "inputs": [],
            "name": "liquidityAddress",
            "outputs": [
                {
                    "internalType": "address payable",
                    "name": "",
                    "type": "address"
                }
            ],
            "stateMutability": "view",
            "type": "function"
        },
        {
            "inputs": [],
            "name": "marketingAddress",
            "outputs": [
                {
                    "internalType": "address payable",
                    "name": "",
                    "type": "address"
                }
            ],
            "stateMutability": "view",
            "type": "function"
        },
        {
            "inputs": [],
            "name": "maxBuy",
            "outputs": [
                {
                    "internalType": "uint256",
                    "name": "",
                    "type": "uint256"
                }
            ],
            "stateMutability": "view",
            "type": "function"
        },
        {
            "inputs": [],
            "name": "maxHoldLimit",
            "outputs": [
                {
                    "internalType": "uint256",
                    "name": "",
                    "type": "uint256"
                }
            ],
            "stateMutability": "view",
            "type": "function"
        },
        {
            "inputs": [],
            "name": "maxSell",
            "outputs": [
                {
                    "internalType": "uint256",
                    "name": "",
                    "type": "uint256"
                }
            ],
            "stateMutability": "view",
            "type": "function"
        },
        {
            "inputs": [],
            "name": "maxW2W",
            "outputs": [
                {
                    "internalType": "uint256",
                    "name": "",
                    "type": "uint256"
                }
            ],
            "stateMutability": "view",
            "type": "function"
        },
        {
            "inputs": [],
            "name": "name",
            "outputs": [
                {
                    "internalType": "string",
                    "name": "",
                    "type": "string"
                }
            ],
            "stateMutability": "view",
            "type": "function"
        },
        {
            "inputs": [],
            "name": "owner",
            "outputs": [
                {
                    "internalType": "address",
                    "name": "",
                    "type": "address"
                }
            ],
            "stateMutability": "view",
            "type": "function"
        },
        {
            "inputs": [],
            "name": "pairAddress",
            "outputs": [
                {
                    "internalType": "address",
                    "name": "",
                    "type": "address"
                }
            ],
            "stateMutability": "view",
            "type": "function"
        },
        {
            "inputs": [],
            "name": "projectAddress",
            "outputs": [
                {
                    "internalType": "address payable",
                    "name": "",
                    "type": "address"
                }
            ],
            "stateMutability": "view",
            "type": "function"
        },
        {
            "inputs": [],
            "name": "providingLiquidity",
            "outputs": [
                {
                    "internalType": "bool",
                    "name": "",
                    "type": "bool"
                }
            ],
            "stateMutability": "view",
            "type": "function"
        },
        {
            "inputs": [],
            "name": "renounceOwnership",
            "outputs": [],
            "stateMutability": "nonpayable",
            "type": "function"
        },
        {
            "inputs": [
                {
                    "internalType": "bytes32",
                    "name": "role",
                    "type": "bytes32"
                },
                {
                    "internalType": "address",
                    "name": "account",
                    "type": "address"
                }
            ],
            "name": "renounceRole",
            "outputs": [],
            "stateMutability": "nonpayable",
            "type": "function"
        },
        {
            "inputs": [
                {
                    "internalType": "address",
                    "name": "_address",
                    "type": "address"
                },
                {
                    "internalType": "uint256",
                    "name": "amount",
                    "type": "uint256"
                }
            ],
            "name": "rescueERC20",
            "outputs": [],
            "stateMutability": "nonpayable",
            "type": "function"
        },
        {
            "inputs": [
                {
                    "internalType": "uint256",
                    "name": "amount",
                    "type": "uint256"
                }
            ],
            "name": "rescueETH",
            "outputs": [],
            "stateMutability": "nonpayable",
            "type": "function"
        },
        {
            "inputs": [],
            "name": "restTime",
            "outputs": [
                {
                    "internalType": "uint256",
                    "name": "",
                    "type": "uint256"
                }
            ],
            "stateMutability": "view",
            "type": "function"
        },
        {
            "inputs": [
                {
                    "internalType": "bytes32",
                    "name": "role",
                    "type": "bytes32"
                },
                {
                    "internalType": "address",
                    "name": "account",
                    "type": "address"
                }
            ],
            "name": "revokeRole",
            "outputs": [],
            "stateMutability": "nonpayable",
            "type": "function"
        },
        {
            "inputs": [],
            "name": "routerAddress",
            "outputs": [
                {
                    "internalType": "address",
                    "name": "",
                    "type": "address"
                }
            ],
            "stateMutability": "view",
            "type": "function"
        },
        {
            "inputs": [],
            "name": "sellTax",
            "outputs": [
                {
                    "internalType": "uint256",
                    "name": "marketing",
                    "type": "uint256"
                },
                {
                    "internalType": "uint256",
                    "name": "project",
                    "type": "uint256"
                },
                {
                    "internalType": "uint256",
                    "name": "team",
                    "type": "uint256"
                },
                {
                    "internalType": "uint256",
                    "name": "liquidity",
                    "type": "uint256"
                }
            ],
            "stateMutability": "view",
            "type": "function"
        },
        {
            "inputs": [
                {
                    "internalType": "uint256",
                    "name": "blocks",
                    "type": "uint256"
                }
            ],
            "name": "setAntibotBlocks",
            "outputs": [],
            "stateMutability": "nonpayable",
            "type": "function"
        },
        {
            "inputs": [
                {
                    "internalType": "uint256",
                    "name": "tax",
                    "type": "uint256"
                }
            ],
            "name": "setAntibotTax",
            "outputs": [],
            "stateMutability": "nonpayable",
            "type": "function"
        },
        {
            "inputs": [
                {
                    "internalType": "uint256",
                    "name": "marketingTax",
                    "type": "uint256"
                },
                {
                    "internalType": "uint256",
                    "name": "projectTax",
                    "type": "uint256"
                },
                {
                    "internalType": "uint256",
                    "name": "teamTax",
                    "type": "uint256"
                },
                {
                    "internalType": "uint256",
                    "name": "liquidityTax",
                    "type": "uint256"
                }
            ],
            "name": "setBuyTax",
            "outputs": [],
            "stateMutability": "nonpayable",
            "type": "function"
        },
        {
            "inputs": [
                {
                    "internalType": "address",
                    "name": "_address",
                    "type": "address"
                },
                {
                    "internalType": "bool",
                    "name": "value",
                    "type": "bool"
                }
            ],
            "name": "setExcludeFromMaxBuy",
            "outputs": [],
            "stateMutability": "nonpayable",
            "type": "function"
        },
        {
            "inputs": [
                {
                    "internalType": "address",
                    "name": "_address",
                    "type": "address"
                },
                {
                    "internalType": "bool",
                    "name": "value",
                    "type": "bool"
                }
            ],
            "name": "setExcludeFromMaxHoldLimit",
            "outputs": [],
            "stateMutability": "nonpayable",
            "type": "function"
        },
        {
            "inputs": [
                {
                    "internalType": "address",
                    "name": "_address",
                    "type": "address"
                },
                {
                    "internalType": "bool",
                    "name": "value",
                    "type": "bool"
                }
            ],
            "name": "setExcludeFromMaxSell",
            "outputs": [],
            "stateMutability": "nonpayable",
            "type": "function"
        },
        {
            "inputs": [
                {
                    "internalType": "address",
                    "name": "_address",
                    "type": "address"
                },
                {
                    "internalType": "bool",
                    "name": "value",
                    "type": "bool"
                }
            ],
            "name": "setExcludeFromMaxW2W",
            "outputs": [],
            "stateMutability": "nonpayable",
            "type": "function"
        },
        {
            "inputs": [
                {
                    "internalType": "address",
                    "name": "_address",
                    "type": "address"
                },
                {
                    "internalType": "bool",
                    "name": "value",
                    "type": "bool"
                }
            ],
            "name": "setExcludeFromRestTime",
            "outputs": [],
            "stateMutability": "nonpayable",
            "type": "function"
        },
        {
            "inputs": [
                {
                    "internalType": "address",
                    "name": "_address",
                    "type": "address"
                },
                {
                    "internalType": "bool",
                    "name": "value",
                    "type": "bool"
                }
            ],
            "name": "setExcludeFromTax",
            "outputs": [],
            "stateMutability": "nonpayable",
            "type": "function"
        },
        {
            "inputs": [
                {
                    "internalType": "address payable",
                    "name": "_address",
                    "type": "address"
                }
            ],
            "name": "setMarketingAddress",
            "outputs": [],
            "stateMutability": "nonpayable",
            "type": "function"
        },
        {
            "inputs": [
                {
                    "internalType": "uint256",
                    "name": "_maxBuy",
                    "type": "uint256"
                }
            ],
            "name": "setMaxBuy",
            "outputs": [],
            "stateMutability": "nonpayable",
            "type": "function"
        },
        {
            "inputs": [
                {
                    "internalType": "uint256",
                    "name": "_maxHoldLimit",
                    "type": "uint256"
                }
            ],
            "name": "setMaxHoldLimit",
            "outputs": [],
            "stateMutability": "nonpayable",
            "type": "function"
        },
        {
            "inputs": [
                {
                    "internalType": "uint256",
                    "name": "_maxSell",
                    "type": "uint256"
                }
            ],
            "name": "setMaxSell",
            "outputs": [],
            "stateMutability": "nonpayable",
            "type": "function"
        },
        {
            "inputs": [
                {
                    "internalType": "uint256",
                    "name": "_maxW2W",
                    "type": "uint256"
                }
            ],
            "name": "setMaxW2W",
            "outputs": [],
            "stateMutability": "nonpayable",
            "type": "function"
        },
        {
            "inputs": [
                {
                    "internalType": "address",
                    "name": "_address",
                    "type": "address"
                }
            ],
            "name": "setPairAddress",
            "outputs": [],
            "stateMutability": "nonpayable",
            "type": "function"
        },
        {
            "inputs": [
                {
                    "internalType": "address payable",
                    "name": "_address",
                    "type": "address"
                }
            ],
            "name": "setProjectAddress",
            "outputs": [],
            "stateMutability": "nonpayable",
            "type": "function"
        },
        {
            "inputs": [
                {
                    "internalType": "bool",
                    "name": "value",
                    "type": "bool"
                }
            ],
            "name": "setProvidingLiquidity",
            "outputs": [],
            "stateMutability": "nonpayable",
            "type": "function"
        },
        {
            "inputs": [
                {
                    "internalType": "uint256",
                    "name": "duration",
                    "type": "uint256"
                }
            ],
            "name": "setRestTime",
            "outputs": [],
            "stateMutability": "nonpayable",
            "type": "function"
        },
        {
            "inputs": [
                {
                    "internalType": "address payable",
                    "name": "_address",
                    "type": "address"
                }
            ],
            "name": "setRouterAddress",
            "outputs": [],
            "stateMutability": "nonpayable",
            "type": "function"
        },
        {
            "inputs": [
                {
                    "internalType": "uint256",
                    "name": "marketingTax",
                    "type": "uint256"
                },
                {
                    "internalType": "uint256",
                    "name": "projectTax",
                    "type": "uint256"
                },
                {
                    "internalType": "uint256",
                    "name": "teamTax",
                    "type": "uint256"
                },
                {
                    "internalType": "uint256",
                    "name": "liquidityTax",
                    "type": "uint256"
                }
            ],
            "name": "setSellTax",
            "outputs": [],
            "stateMutability": "nonpayable",
            "type": "function"
        },
        {
            "inputs": [
                {
                    "internalType": "address payable",
                    "name": "_address",
                    "type": "address"
                }
            ],
            "name": "setTeamAddress",
            "outputs": [],
            "stateMutability": "nonpayable",
            "type": "function"
        },
        {
            "inputs": [
                {
                    "internalType": "uint256",
                    "name": "threshhold",
                    "type": "uint256"
                }
            ],
            "name": "setTokenLiquidityThreshold",
            "outputs": [],
            "stateMutability": "nonpayable",
            "type": "function"
        },
        {
            "inputs": [
                {
                    "internalType": "bytes4",
                    "name": "interfaceId",
                    "type": "bytes4"
                }
            ],
            "name": "supportsInterface",
            "outputs": [
                {
                    "internalType": "bool",
                    "name": "",
                    "type": "bool"
                }
            ],
            "stateMutability": "view",
            "type": "function"
        },
        {
            "inputs": [],
            "name": "symbol",
            "outputs": [
                {
                    "internalType": "string",
                    "name": "",
                    "type": "string"
                }
            ],
            "stateMutability": "view",
            "type": "function"
        },
        {
            "inputs": [],
            "name": "teamAddress",
            "outputs": [
                {
                    "internalType": "address payable",
                    "name": "",
                    "type": "address"
                }
            ],
            "stateMutability": "view",
            "type": "function"
        },
        {
            "inputs": [],
            "name": "tokenLiquidityThreshold",
            "outputs": [
                {
                    "internalType": "uint256",
                    "name": "",
                    "type": "uint256"
                }
            ],
            "stateMutability": "view",
            "type": "function"
        },
        {
            "inputs": [],
            "name": "totalSupply",
            "outputs": [
                {
                    "internalType": "uint256",
                    "name": "",
                    "type": "uint256"
                }
            ],
            "stateMutability": "view",
            "type": "function"
        },
        {
            "inputs": [],
            "name": "tradingEnabled",
            "outputs": [
                {
                    "internalType": "bool",
                    "name": "",
                    "type": "bool"
                }
            ],
            "stateMutability": "view",
            "type": "function"
        },
        {
            "inputs": [
                {
                    "internalType": "address",
                    "name": "to",
                    "type": "address"
                },
                {
                    "internalType": "uint256",
                    "name": "amount",
                    "type": "uint256"
                }
            ],
            "name": "transfer",
            "outputs": [
                {
                    "internalType": "bool",
                    "name": "",
                    "type": "bool"
                }
            ],
            "stateMutability": "nonpayable",
            "type": "function"
        },
        {
            "inputs": [
                {
                    "internalType": "address",
                    "name": "from",
                    "type": "address"
                },
                {
                    "internalType": "address",
                    "name": "to",
                    "type": "address"
                },
                {
                    "internalType": "uint256",
                    "name": "amount",
                    "type": "uint256"
                }
            ],
            "name": "transferFrom",
            "outputs": [
                {
                    "internalType": "bool",
                    "name": "",
                    "type": "bool"
                }
            ],
            "stateMutability": "nonpayable",
            "type": "function"
        },
        {
            "inputs": [
                {
                    "internalType": "address",
                    "name": "newOwner",
                    "type": "address"
                }
            ],
            "name": "transferOwnership",
            "outputs": [],
            "stateMutability": "nonpayable",
            "type": "function"
        },
        {
            "stateMutability": "payable",
            "type": "receive"
        }
    ],
    "bytecode": "0x6003608081905260a0819052600260c081905260e0819052600782905560088290556009819055600a819055610180604052610100829052610120829052610140819052610160819052600b829055600c91909155600d819055600e819055600f805461ffff191690556200007f9069152d02c7e14af680000062000fec565b6010556011805460ff19169055603c60125560036014556063601555620000b2600269d3c21bcecceda100000062000fec565b601d55620000cc600269d3c21bcecceda100000062000fec565b601e55620000e6600269d3c21bcecceda100000062000fec565b601f5562000101600a6a084595161401484a00000062000fec565b6020553480156200011157600080fd5b506040516200549438038062005494833981016040819052620001349162001025565b604051806040016040528060088152602001674b616d6d6f726f7360c01b815250604051806040016040528060038152602001624b4d4360e81b815250816003908162000182919062001131565b50600462000191828262001131565b505050620001ae620001a8620003a360201b60201c565b620003a7565b620001d8620001c56005546001600160a01b031690565b6b033b2e3c9fd0803ce8000000620003f9565b620001f76000620001f16005546001600160a01b031690565b620004e3565b62000202846200056d565b6200020d8362000641565b62000218826200070c565b6200022381620007d4565b6200022d62000925565b6200024c620002446005546001600160a01b031690565b600162000ace565b6200025930600162000ace565b62000278620002706005546001600160a01b031690565b600162000b40565b6200028530600162000b40565b601b546200029e906001600160a01b0316600162000b40565b620002bd620002b56005546001600160a01b031690565b600162000baa565b620002ca30600162000baa565b601b54620002e3906001600160a01b0316600162000baa565b62000302620002fa6005546001600160a01b031690565b600162000c14565b6200030f30600162000c14565b601b5462000328906001600160a01b0316600162000c14565b620003476200033f6005546001600160a01b031690565b600162000c7e565b6200035430600162000c7e565b601b546200036d906001600160a01b0316600162000c7e565b6200038c620003846005546001600160a01b031690565b600162000ce8565b6200039930600162000ce8565b5050505062001351565b3390565b600580546001600160a01b038381166001600160a01b0319831681179093556040519116919082907f8be0079c531659141344cd1fd0a4f28419497f9722a3daafe3b4186f6b6457e090600090a35050565b6001600160a01b038216620004555760405162461bcd60e51b815260206004820152601f60248201527f45524332303a206d696e7420746f20746865207a65726f20616464726573730060448201526064015b60405180910390fd5b8060026000828254620004699190620011fd565b90915550506001600160a01b0382166000908152602081905260408120805483929062000498908490620011fd565b90915550506040518181526001600160a01b038316906000907fddf252ad1be2c89b69c2b068fc378daa952ba7f163c4a11628f55a4df523b3ef9060200160405180910390a35b5050565b620004ef828262000d57565b620004df5760008281526006602090815260408083206001600160a01b03851684529091529020805460ff19166001179055620005293390565b6001600160a01b0316816001600160a01b0316837f2f8788117e7eff1d82e926ec794901d17c78024a50270940304540a733656f0d60405160405180910390a45050565b60006200057a8162000d84565b6001600160a01b038216620005eb5760405162461bcd60e51b815260206004820152603060248201527f546f6b656e3a206d61726b6574696e6720616464726573732063616e206e6f7460448201526f2062652061646472657373207a65726f60801b60648201526084016200044c565b601680546001600160a01b0319166001600160a01b0384169081179091556040519081527fdce39068f7a417bc8d3ac8767fb10b49595594c109641a8b25c1cd026df231db906020015b60405180910390a15050565b60006200064e8162000d84565b6001600160a01b038216620006bd5760405162461bcd60e51b815260206004820152602e60248201527f546f6b656e3a2070726f6a65637420616464726573732063616e206e6f74206260448201526d652061646472657373207a65726f60901b60648201526084016200044c565b601780546001600160a01b0319166001600160a01b0384169081179091556040519081527f31233aead815676c6c1f024b96edcc9ae7856e491e0636201605700a5868cc359060200162000635565b6000620007198162000d84565b6001600160a01b038216620007855760405162461bcd60e51b815260206004820152602b60248201527f546f6b656e3a207465616d20616464726573732063616e206e6f74206265206160448201526a646472657373207a65726f60a81b60648201526084016200044c565b601880546001600160a01b0319166001600160a01b0384169081179091556040519081527f6f7172587e2ee3573d0b3f6c2690ecc9a891b65835a094530cab8fe127725bd49060200162000635565b6000620007e18162000d84565b6001600160a01b0382166200084f5760405162461bcd60e51b815260206004820152602d60248201527f546f6b656e3a20726f7574657220616464726573732063616e206e6f7420626560448201526c2061646472657373207a65726f60981b60648201526084016200044c565b600f5460ff1615620008ca5760405162461bcd60e51b815260206004820152603960248201527f546f6b656e3a2063616e206e6f74206368616e676520726f757465722061646460448201527f72657373206f6e63652074726164696e6720656e61626c65640000000000000060648201526084016200044c565b601a80546001600160a01b0384166001600160a01b03199182168117909255601c8054909116821790556040519081527feb81878967dea025ef4859fd7b8b4555ee3c73cae8a039057296d25a53eaa9b69060200162000635565b601a54601c80546001600160a01b0319166001600160a01b0390921691821790556040805163c45a015560e01b815290516000929163c45a01559160048083019260209291908290030181865afa15801562000985573d6000803e3d6000fd5b505050506040513d601f19601f82011682018060405250810190620009ab919062001213565b9050806001600160a01b031663c9c6539630601c60009054906101000a90046001600160a01b03166001600160a01b031663ad5c46486040518163ffffffff1660e01b8152600401602060405180830381865afa15801562000a11573d6000803e3d6000fd5b505050506040513d601f19601f8201168201806040525081019062000a37919062001213565b6040516001600160e01b031960e085901b1681526001600160a01b039283166004820152911660248201526044016020604051808303816000875af115801562000a85573d6000803e3d6000fd5b505050506040513d601f19601f8201168201806040525081019062000aab919062001213565b601b80546001600160a01b0319166001600160a01b039290921691909117905550565b600062000adb8162000d84565b6001600160a01b038316600081815260216020908152604091829020805460ff19168615159081179091558251938452908301527f3be5d347800394c7274128c125398bd38d097c3a6f70b365240639edad31eb6391015b60405180910390a1505050565b600062000b4d8162000d84565b6001600160a01b038316600081815260226020908152604091829020805460ff19168615159081179091558251938452908301527fc51ff0c2fa02456558f578beabda917a6da75301e52b07a7c1928663cff0913a910162000b33565b600062000bb78162000d84565b6001600160a01b038316600081815260236020908152604091829020805460ff19168615159081179091558251938452908301527fc734ffc6e9594bbccf90ecd0de2a4a97a96606a87a852202cfddd5d16f7c2af9910162000b33565b600062000c218162000d84565b6001600160a01b038316600081815260246020908152604091829020805460ff19168615159081179091558251938452908301527f663e3c7a57b8161b02b8849da8dfaf95a9d48c9cebf3223c104e23f90cdfba47910162000b33565b600062000c8b8162000d84565b6001600160a01b038316600081815260256020908152604091829020805460ff19168615159081179091558251938452908301527f77be42f1df5f6e0f44afc0a283eed6ea3b45130d7b875b389687b609baaa322f910162000b33565b600062000cf58162000d84565b6001600160a01b038316600081815260266020908152604091829020805460ff19168615159081179091558251938452908301527fbe5de6beba867188bde9820f30228abf0e770f8197f8b8dd41614e961679531b910162000b33565b505050565b60008281526006602090815260408083206001600160a01b038516845290915290205460ff165b92915050565b62000d90813362000d93565b50565b62000d9f828262000d57565b620004df5762000dc5816001600160a01b0316601462000e1660201b620025ab1760201c565b62000ddb836020620025ab62000e16821b17811c565b60405160200162000dee92919062001259565b60408051601f198184030181529082905262461bcd60e51b82526200044c91600401620012d2565b6060600062000e2783600262001307565b62000e34906002620011fd565b6001600160401b0381111562000e4e5762000e4e6200108d565b6040519080825280601f01601f19166020018201604052801562000e79576020820181803683370190505b509050600360fc1b8160008151811062000e975762000e9762001321565b60200101906001600160f81b031916908160001a905350600f60fb1b8160018151811062000ec95762000ec962001321565b60200101906001600160f81b031916908160001a905350600062000eef84600262001307565b62000efc906001620011fd565b90505b600181111562000f7e576f181899199a1a9b1b9c1cb0b131b232b360811b85600f166010811062000f345762000f3462001321565b1a60f81b82828151811062000f4d5762000f4d62001321565b60200101906001600160f81b031916908160001a90535060049490941c9362000f768162001337565b905062000eff565b50831562000fcf5760405162461bcd60e51b815260206004820181905260248201527f537472696e67733a20686578206c656e67746820696e73756666696369656e7460448201526064016200044c565b9392505050565b634e487b7160e01b600052601160045260246000fd5b6000826200100a57634e487b7160e01b600052601260045260246000fd5b500490565b6001600160a01b038116811462000d9057600080fd5b600080600080608085870312156200103c57600080fd5b845162001049816200100f565b60208601519094506200105c816200100f565b60408601519093506200106f816200100f565b606086015190925062001082816200100f565b939692955090935050565b634e487b7160e01b600052604160045260246000fd5b600181811c90821680620010b857607f821691505b602082108103620010d957634e487b7160e01b600052602260045260246000fd5b50919050565b601f82111562000d5257600081815260208120601f850160051c81016020861015620011085750805b601f850160051c820191505b81811015620011295782815560010162001114565b505050505050565b81516001600160401b038111156200114d576200114d6200108d565b62001165816200115e8454620010a3565b84620010df565b602080601f8311600181146200119d5760008415620011845750858301515b600019600386901b1c1916600185901b17855562001129565b600085815260208120601f198616915b82811015620011ce57888601518255948401946001909101908401620011ad565b5085821015620011ed5787850151600019600388901b60f8161c191681555b5050505050600190811b01905550565b8082018082111562000d7e5762000d7e62000fd6565b6000602082840312156200122657600080fd5b815162000fcf816200100f565b60005b838110156200125057818101518382015260200162001236565b50506000910152565b7f416363657373436f6e74726f6c3a206163636f756e74200000000000000000008152600083516200129381601785016020880162001233565b7001034b99036b4b9b9b4b733903937b6329607d1b6017918401918201528351620012c681602884016020880162001233565b01602801949350505050565b6020815260008251806020840152620012f381604085016020870162001233565b601f01601f19169190910160400192915050565b808202811582820484141762000d7e5762000d7e62000fd6565b634e487b7160e01b600052603260045260246000fd5b60008162001349576200134962000fd6565b506000190190565b61413380620013616000396000f3fe6080604052600436106104605760003560e01c8063871cbbaf1161023f578063a9059cbb11610139578063dd62ed3e116100b6578063f53bc8351161007a578063f53bc83514610df7578063f75e8d8914610e17578063fba9999c14610e37578063fbe6324e14610e57578063fce0f92814610e7657600080fd5b8063dd62ed3e14610d61578063e2356e4714610d81578063edf341d814610da1578063ef998cf014610db7578063f2fde38b14610dd757600080fd5b8063c81db895116100fd578063c81db89514610c8c578063cb4ca63114610cac578063cc1776d314610ce5578063cef36d1314610d08578063d547741f14610d4157600080fd5b8063a9059cbb14610be7578063adbbd26714610c07578063afbd55ef14610c1d578063b8eb354614610c3d578063c0c3f3cb14610c5357600080fd5b80639e252f00116101c7578063a5dec5221161018b578063a5dec52214610b47578063a5ece94114610b67578063a7d9c0a814610b87578063a82cfe8b14610ba7578063a8b0898214610bc757600080fd5b80639e252f0014610ab2578063a217fddf14610ad2578063a22d483214610ae7578063a2eeafcc14610b07578063a457c2d714610b2757600080fd5b80638da5cb5b1161020e5780638da5cb5b14610a29578063906e9dd014610a4757806391d1485414610a6757806395d89b4114610a875780639a36dfa114610a9c57600080fd5b8063871cbbaf146109b45780638756aabd146109d45780638a8c523c146109f45780638cd4426d14610a0957600080fd5b8063395093511161035b578063522bf517116102d857806370db69d61161029c57806370db69d614610910578063715018a6146109265780637cbbf7051461093b57806381a4605f1461097457806384666b081461099457600080fd5b8063522bf517146108645780636690864e146108845780636d43774d146108a45780636f2b6f01146108ba57806370a08231146108da57600080fd5b80634a0195061161031f5780634a019506146107b15780634ada218b146107d15780634cdc9c63146107eb5780634f7041a514610801578063514b1b0b1461084457600080fd5b8063395093511461071157806339fb86c5146107315780633cf96af11461075157806341cb87fc1461077157806342966c681461079157600080fd5b80631c75f085116103e95780632fe042d0116103ad5780632fe042d014610675578063313ce567146106955780633221c93f146106b15780633268cc56146106d157806336568abe146106f157600080fd5b80631c75f085146105ad57806323b872dd146105e5578063248a9ca31461060557806329d932fb146106355780632f2ff15d1461065557600080fd5b8063095ea7b311610430578063095ea7b31461051e5780630e09ae771461053e5780631675d8021461055e57806318160ddd146105825780631ab520451461059757600080fd5b80629cb0e91461046c57806301ffc9a7146104ba57806306fdde03146104da57806307a1ae8b146104fc57600080fd5b3661046757005b600080fd5b34801561047857600080fd5b506104a5610487366004613b18565b6001600160a01b031660009081526025602052604090205460ff1690565b60405190151581526020015b60405180910390f35b3480156104c657600080fd5b506104a56104d5366004613b35565b610e96565b3480156104e657600080fd5b506104ef610ecd565b6040516104b19190613b83565b34801561050857600080fd5b5061051c610517366004613be5565b610f5f565b005b34801561052a57600080fd5b506104a5610539366004613cbc565b610fb7565b34801561054a57600080fd5b5061051c610559366004613ce8565b610fcf565b34801561056a57600080fd5b5061057460105481565b6040519081526020016104b1565b34801561058e57600080fd5b50600254610574565b3480156105a357600080fd5b50610574601f5481565b3480156105b957600080fd5b506018546105cd906001600160a01b031681565b6040516001600160a01b0390911681526020016104b1565b3480156105f157600080fd5b506104a5610600366004613d21565b61103f565b34801561061157600080fd5b50610574610620366004613d62565b60009081526006602052604090206001015490565b34801561064157600080fd5b5061051c610650366004613be5565b611063565b34801561066157600080fd5b5061051c610670366004613d7b565b6110b5565b34801561068157600080fd5b5061051c610690366004613d62565b6110df565b3480156106a157600080fd5b50604051601281526020016104b1565b3480156106bd57600080fd5b506019546105cd906001600160a01b031681565b3480156106dd57600080fd5b50601a546105cd906001600160a01b031681565b3480156106fd57600080fd5b5061051c61070c366004613d7b565b611209565b34801561071d57600080fd5b506104a561072c366004613cbc565b611287565b34801561073d57600080fd5b5061051c61074c366004613ce8565b6112a9565b34801561075d57600080fd5b506017546105cd906001600160a01b031681565b34801561077d57600080fd5b5061051c61078c366004613b18565b611310565b34801561079d57600080fd5b5061051c6107ac366004613d62565b61145a565b3480156107bd57600080fd5b506104a56107cc366004613b18565b611472565b3480156107dd57600080fd5b50600f546104a59060ff1681565b3480156107f757600080fd5b5061057460135481565b34801561080d57600080fd5b50600754600854600954600a546108249392919084565b6040805194855260208501939093529183015260608201526080016104b1565b34801561085057600080fd5b5061051c61085f366004613be5565b611490565b34801561087057600080fd5b5061051c61087f366004613ce8565b6114e2565b34801561089057600080fd5b5061051c61089f366004613b18565b611549565b3480156108b057600080fd5b5061057460145481565b3480156108c657600080fd5b5061051c6108d5366004613ce8565b61160c565b3480156108e657600080fd5b506105746108f5366004613b18565b6001600160a01b031660009081526020819052604090205490565b34801561091c57600080fd5b50610574601d5481565b34801561093257600080fd5b5061051c611673565b34801561094757600080fd5b506104a5610956366004613b18565b6001600160a01b031660009081526022602052604090205460ff1690565b34801561098057600080fd5b5061051c61098f366004613d62565b611687565b3480156109a057600080fd5b5061051c6109af366004613da0565b6117b7565b3480156109c057600080fd5b5061051c6109cf366004613ce8565b61189c565b3480156109e057600080fd5b5061051c6109ef366004613d62565b611903565b348015610a0057600080fd5b5061051c6119c2565b348015610a1557600080fd5b5061051c610a24366004613cbc565b611a69565b348015610a3557600080fd5b506005546001600160a01b03166105cd565b348015610a5357600080fd5b5061051c610a62366004613b18565b611b46565b348015610a7357600080fd5b506104a5610a82366004613d7b565b611c0e565b348015610a9357600080fd5b506104ef611c39565b348015610aa857600080fd5b5061057460205481565b348015610abe57600080fd5b5061051c610acd366004613d62565b611c48565b348015610ade57600080fd5b50610574600081565b348015610af357600080fd5b5061051c610b02366004613b18565b611c9e565b348015610b1357600080fd5b5061051c610b22366004613d62565b611d70565b348015610b3357600080fd5b506104a5610b42366004613cbc565b611e22565b348015610b5357600080fd5b5061051c610b62366004613be5565b611e9d565b348015610b7357600080fd5b506016546105cd906001600160a01b031681565b348015610b9357600080fd5b5061051c610ba2366004613ce8565b611eef565b348015610bb357600080fd5b5061051c610bc2366004613da0565b611f56565b348015610bd357600080fd5b50601b546105cd906001600160a01b031681565b348015610bf357600080fd5b506104a5610c02366004613cbc565b61202f565b348015610c1357600080fd5b5061057460155481565b348015610c2957600080fd5b5061051c610c38366004613dd2565b61203d565b348015610c4957600080fd5b50610574601e5481565b348015610c5f57600080fd5b506104a5610c6e366004613b18565b6001600160a01b031660009081526024602052604090205460ff1690565b348015610c9857600080fd5b5061051c610ca7366004613d62565b612099565b348015610cb857600080fd5b506104a5610cc7366004613b18565b6001600160a01b031660009081526021602052604090205460ff1690565b348015610cf157600080fd5b50600b54600c54600d54600e546108249392919084565b348015610d1457600080fd5b506104a5610d23366004613b18565b6001600160a01b031660009081526023602052604090205460ff1690565b348015610d4d57600080fd5b5061051c610d5c366004613d7b565b612141565b348015610d6d57600080fd5b50610574610d7c366004613def565b612166565b348015610d8d57600080fd5b5061051c610d9c366004613d62565b612191565b348015610dad57600080fd5b5061057460125481565b348015610dc357600080fd5b5061051c610dd2366004613d62565b612266565b348015610de357600080fd5b5061051c610df2366004613b18565b612319565b348015610e0357600080fd5b5061051c610e12366004613d62565b61238f565b348015610e2357600080fd5b5061051c610e32366004613be5565b612441565b348015610e4357600080fd5b5061051c610e52366004613be5565b612493565b348015610e6357600080fd5b50600f546104a590610100900460ff1681565b348015610e8257600080fd5b5061051c610e91366004613b18565b6124e5565b60006001600160e01b03198216637965db0b60e01b1480610ec757506301ffc9a760e01b6001600160e01b03198316145b92915050565b606060038054610edc90613e1d565b80601f0160208091040260200160405190810160405280929190818152602001828054610f0890613e1d565b8015610f555780601f10610f2a57610100808354040283529160200191610f55565b820191906000526020600020905b815481529060010190602001808311610f3857829003601f168201915b5050505050905090565b6000610f6a8161274e565b60005b8351811015610fb1576000848281518110610f8a57610f8a613e57565b60200260200101519050610f9e818561189c565b5080610fa981613e83565b915050610f6d565b50505050565b600033610fc5818585612758565b5060019392505050565b6000610fda8161274e565b6001600160a01b038316600081815260256020908152604091829020805460ff19168615159081179091558251938452908301527f77be42f1df5f6e0f44afc0a283eed6ea3b45130d7b875b389687b609baaa322f91015b60405180910390a1505050565b60003361104d85828561287c565b6110588585856128f0565b506001949350505050565b600061106e8161274e565b60005b8351811015610fb157600084828151811061108e5761108e613e57565b602002602001015190506110a28185611eef565b50806110ad81613e83565b915050611071565b6000828152600660205260409020600101546110d08161274e565b6110da838361296f565b505050565b60006110ea8161274e565b606382111561115a5760405162461bcd60e51b815260206004820152603160248201527f546f6b656e3a20616e7469626f74207461782063616e206e6f742065786365656044820152700c8409a82b0be829ca892849ea8bea882b607b1b60648201526084015b60405180910390fd5b600f5460ff16156111cc5760405162461bcd60e51b815260206004820152603660248201527f546f6b656e3a2063616e206e6f74206368616e676520616e7469626f742074616044820152751e081bdb98d9481d1c98591a5b99c8195b98589b195960521b6064820152608401611151565b60158290556040518281527f349e6541cf4fccc747f06e45464afa108686e21ac942da81a5315ae7c89c991a906020015b60405180910390a15050565b6001600160a01b03811633146112795760405162461bcd60e51b815260206004820152602f60248201527f416363657373436f6e74726f6c3a2063616e206f6e6c792072656e6f756e636560448201526e103937b632b9903337b91039b2b63360891b6064820152608401611151565b61128382826129f5565b5050565b600033610fc581858561129a8383612166565b6112a49190613e9c565b612758565b60006112b48161274e565b6001600160a01b038316600081815260216020908152604091829020805460ff19168615159081179091558251938452908301527f3be5d347800394c7274128c125398bd38d097c3a6f70b365240639edad31eb639101611032565b600061131b8161274e565b6001600160a01b0382166113875760405162461bcd60e51b815260206004820152602d60248201527f546f6b656e3a20726f7574657220616464726573732063616e206e6f7420626560448201526c2061646472657373207a65726f60981b6064820152608401611151565b600f5460ff16156114005760405162461bcd60e51b815260206004820152603960248201527f546f6b656e3a2063616e206e6f74206368616e676520726f757465722061646460448201527f72657373206f6e63652074726164696e6720656e61626c6564000000000000006064820152608401611151565b601a80546001600160a01b0384166001600160a01b03199182168117909255601c8054909116821790556040519081527feb81878967dea025ef4859fd7b8b4555ee3c73cae8a039057296d25a53eaa9b6906020016111fd565b611465333083612758565b61146f3382612a5c565b50565b6001600160a01b031660009081526026602052604090205460ff1690565b600061149b8161274e565b60005b8351811015610fb15760008482815181106114bb576114bb613e57565b602002602001015190506114cf81856112a9565b50806114da81613e83565b91505061149e565b60006114ed8161274e565b6001600160a01b038316600081815260236020908152604091829020805460ff19168615159081179091558251938452908301527fc734ffc6e9594bbccf90ecd0de2a4a97a96606a87a852202cfddd5d16f7c2af99101611032565b60006115548161274e565b6001600160a01b0382166115be5760405162461bcd60e51b815260206004820152602b60248201527f546f6b656e3a207465616d20616464726573732063616e206e6f74206265206160448201526a646472657373207a65726f60a81b6064820152608401611151565b601880546001600160a01b0319166001600160a01b0384169081179091556040519081527f6f7172587e2ee3573d0b3f6c2690ecc9a891b65835a094530cab8fe127725bd4906020016111fd565b60006116178161274e565b6001600160a01b038316600081815260226020908152604091829020805460ff19168615159081179091558251938452908301527fc51ff0c2fa02456558f578beabda917a6da75301e52b07a7c1928663cff0913a9101611032565b61167b612baa565b6116856000612c04565b565b60006116928161274e565b60058211156117095760405162461bcd60e51b815260206004820152603760248201527f546f6b656e3a20616e7469626f7420626c6f636b732063616e206e6f7420657860448201527f63656564204d41585f414e5449424f545f424c4f434b530000000000000000006064820152608401611151565b600f5460ff16156117825760405162461bcd60e51b815260206004820152603960248201527f546f6b656e3a2063616e206e6f74206368616e676520616e7469626f7420626c60448201527f6f636b73206f6e63652074726164696e6720656e61626c6564000000000000006064820152608401611151565b60148290556040518281527fefad48da7a2151da3d75d6162adf6def2716d134db68469dd6477d1446247a11906020016111fd565b60006117c28161274e565b60006117cc612c56565b83856117d8888a613e9c565b6117e29190613e9c565b6117ec9190613e9c565b6117f69190613e9c565b905060198111156118195760405162461bcd60e51b815260040161115190613eaf565b604080516080808201835288825260208083018990528284018890526060928301879052600b8a9055600c899055600d889055600e87905583518a81529081018990529283018790529082018590527ff93a078de6df74f9e942919a7b2ffe575287ef0eff4ac57a98aafa8503f00e5f91015b60405180910390a1505050505050565b60006118a78161274e565b6001600160a01b038316600081815260266020908152604091829020805460ff19168615159081179091558251938452908301527fbe5de6beba867188bde9820f30228abf0e770f8197f8b8dd41614e961679531b9101611032565b600061190e8161274e565b6a084595161401484a00000082101561198f5760405162461bcd60e51b815260206004820152603760248201527f546f6b656e3a206d6178486f6c644c696d6974206d757374206578636565642060448201527f6f7220657175616c204d494e5f484f4c445f4c494d49540000000000000000006064820152608401611151565b60208281556040518381527fd891d5e5839ada70576be65f02e270c58e8d1a964238157e1bbe566f8fb35be291016111fd565b60006119cd8161274e565b600f5460ff1615611a2a5760405162461bcd60e51b815260206004820152602160248201527f546f6b656e3a2074726164696e6720697320616c726561647920656e61626c656044820152601960fa1b6064820152608401611151565b600f805461ffff1916610101179055436013556040517f799663458a5ef2936f7fa0c99b3336c69c25890f82974f04e811e5bb359186c790600090a150565b6000611a748161274e565b826001600160a01b031663a9059cbb611a956005546001600160a01b031690565b6040516001600160e01b031960e084901b1681526001600160a01b039091166004820152602481018590526044016020604051808303816000875af1158015611ae2573d6000803e3d6000fd5b505050506040513d601f19601f82011682018060405250810190611b069190613ef7565b50604080516001600160a01b0385168152602081018490527f31825d4c640aea76c1e0968b29b11967c9a93a99b65072cf8db892b7ab737bbf9101611032565b6000611b518161274e565b6001600160a01b038216611bc05760405162461bcd60e51b815260206004820152603060248201527f546f6b656e3a206d61726b6574696e6720616464726573732063616e206e6f7460448201526f2062652061646472657373207a65726f60801b6064820152608401611151565b601680546001600160a01b0319166001600160a01b0384169081179091556040519081527fdce39068f7a417bc8d3ac8767fb10b49595594c109641a8b25c1cd026df231db906020016111fd565b60009182526006602090815260408084206001600160a01b0393909316845291905290205460ff1690565b606060048054610edc90613e1d565b6000611c538161274e565b611c6e611c686005546001600160a01b031690565b83612c90565b6040518281527f103add520cfd30dd0ad5e069258f06d08bc373a5079338aacf71cd52aa2b969f906020016111fd565b6000611ca98161274e565b600f5460ff1615611d225760405162461bcd60e51b815260206004820152603760248201527f546f6b656e3a2063616e206e6f74206368616e6765207061697220616464726560448201527f7373206f6e63652074726164696e6720656e61626c65640000000000000000006064820152608401611151565b601b80546001600160a01b0319166001600160a01b0384169081179091556040519081527f388125b8ba2da68179ed137550c0cf36938dbf035ddd5e6f6ad887cad9012256906020016111fd565b6000611d7b8161274e565b69d3c21bcecceda1000000821015611ded5760405162461bcd60e51b815260206004820152602f60248201527f546f6b656e3a206d6178573257206d75737420657863656564206f722065717560448201526e185b0813525397d51617d312535255608a1b6064820152608401611151565b601f8290556040518281527ffa106a28c49b134ef5df7220f2408e8258372d4eb53a567561aacc3f23d45430906020016111fd565b60003381611e308286612166565b905083811015611e905760405162461bcd60e51b815260206004820152602560248201527f45524332303a2064656372656173656420616c6c6f77616e63652062656c6f77604482015264207a65726f60d81b6064820152608401611151565b6110588286868403612758565b6000611ea88161274e565b60005b8351811015610fb1576000848281518110611ec857611ec8613e57565b60200260200101519050611edc81856114e2565b5080611ee781613e83565b915050611eab565b6000611efa8161274e565b6001600160a01b038316600081815260246020908152604091829020805460ff19168615159081179091558251938452908301527f663e3c7a57b8161b02b8849da8dfaf95a9d48c9cebf3223c104e23f90cdfba479101611032565b6000611f618161274e565b6000611f6b612da9565b8385611f77888a613e9c565b611f819190613e9c565b611f8b9190613e9c565b611f959190613e9c565b90506019811115611fb85760405162461bcd60e51b815260040161115190613eaf565b60408051608080820183528882526020808301899052828401889052606092830187905260078a905560088990556009889055600a87905583518a81529081018990529283018790529082018590527f43cb8fc3ba2a227df9454461b8e6e9da40eb1075eb45167a572191bce3aa1098910161188c565b600033610fc58185856128f0565b60006120488161274e565b600f805461ff0019166101008415158102919091179182905560405160ff9190920416151581527f714a25f3317d5171fcb96ea3a3a6ddb3ec2d6d7e1877214bbbc133eb8e48d009906020016111fd565b60006120a48161274e565b607882111561210c5760405162461bcd60e51b815260206004820152602e60248201527f546f6b656e3a20726573742074696d65206d757374206e6f742065786365656460448201526d204d41585f524553545f54494d4560901b6064820152608401611151565b60128290556040518281527fd30c5e5c3d48957bcd83c8dd2c9e33c515804a7dd4f323bf1c2abde2a6a17163906020016111fd565b60008281526006602052604090206001015461215c8161274e565b6110da83836129f5565b6001600160a01b03918216600090815260016020908152604080832093909416825291909152205490565b600061219c8161274e565b6a084595161401484a0000008211156122315760405162461bcd60e51b815260206004820152604b60248201527f546f6b656e3a20746f6b656e4c69717569646974795468726573686f6c64206360448201527f616e206e6f7420657863656564204d41585f544f4b454e5f4c4951554944495460648201526a1657d512149154d213d31160aa1b608482015260a401611151565b60108290556040518281527fb2f4a2d9454b0dd1b5bc61d73777b1e772c91fa2e26d29db39688ed00cc62c06906020016111fd565b60006122718161274e565b69d3c21bcecceda10000008210156122e45760405162461bcd60e51b815260206004820152603060248201527f546f6b656e3a206d617853656c6c206d75737420657863656564206f7220657160448201526f1d585b0813525397d51617d31253525560821b6064820152608401611151565b601e8290556040518281527f3c0ac525ebd597ae4e1201e687d8a7424b740a53b775b1527eb1c1936c1bd3b7906020016111fd565b612321612baa565b6001600160a01b0381166123865760405162461bcd60e51b815260206004820152602660248201527f4f776e61626c653a206e6577206f776e657220697320746865207a65726f206160448201526564647265737360d01b6064820152608401611151565b61146f81612c04565b600061239a8161274e565b69d3c21bcecceda100000082101561240c5760405162461bcd60e51b815260206004820152602f60248201527f546f6b656e3a206d6178427579206d75737420657863656564206f722065717560448201526e185b0813525397d51617d312535255608a1b6064820152608401611151565b601d8290556040518281527f16fd9174d80e7089ed0c10c47c8079476be2ec28b97c4b40846cffd8a7aa9e9f906020016111fd565b600061244c8161274e565b60005b8351811015610fb157600084828151811061246c5761246c613e57565b60200260200101519050612480818561160c565b508061248b81613e83565b91505061244f565b600061249e8161274e565b60005b8351811015610fb15760008482815181106124be576124be613e57565b602002602001015190506124d28185610fcf565b50806124dd81613e83565b9150506124a1565b60006124f08161274e565b6001600160a01b03821661255d5760405162461bcd60e51b815260206004820152602e60248201527f546f6b656e3a2070726f6a65637420616464726573732063616e206e6f74206260448201526d652061646472657373207a65726f60901b6064820152608401611151565b601780546001600160a01b0319166001600160a01b0384169081179091556040519081527f31233aead815676c6c1f024b96edcc9ae7856e491e0636201605700a5868cc35906020016111fd565b606060006125ba836002613f14565b6125c5906002613e9c565b67ffffffffffffffff8111156125dd576125dd613bb6565b6040519080825280601f01601f191660200182016040528015612607576020820181803683370190505b509050600360fc1b8160008151811061262257612622613e57565b60200101906001600160f81b031916908160001a905350600f60fb1b8160018151811061265157612651613e57565b60200101906001600160f81b031916908160001a9053506000612675846002613f14565b612680906001613e9c565b90505b60018111156126f8576f181899199a1a9b1b9c1cb0b131b232b360811b85600f16601081106126b4576126b4613e57565b1a60f81b8282815181106126ca576126ca613e57565b60200101906001600160f81b031916908160001a90535060049490941c936126f181613f2b565b9050612683565b5083156127475760405162461bcd60e51b815260206004820181905260248201527f537472696e67733a20686578206c656e67746820696e73756666696369656e746044820152606401611151565b9392505050565b61146f8133612dde565b6001600160a01b0383166127ba5760405162461bcd60e51b8152602060048201526024808201527f45524332303a20617070726f76652066726f6d20746865207a65726f206164646044820152637265737360e01b6064820152608401611151565b6001600160a01b03821661281b5760405162461bcd60e51b815260206004820152602260248201527f45524332303a20617070726f766520746f20746865207a65726f206164647265604482015261737360f01b6064820152608401611151565b6001600160a01b0383811660008181526001602090815260408083209487168084529482529182902085905590518481527f8c5be1e5ebec7d5bd14f71427d1e84f3dd0314c0f7b2291e5b200ac8c7c3b925910160405180910390a3505050565b60006128888484612166565b90506000198114610fb157818110156128e35760405162461bcd60e51b815260206004820152601d60248201527f45524332303a20696e73756666696369656e7420616c6c6f77616e63650000006044820152606401611151565b610fb18484848403612758565b6128fb838383612e42565b60008060008061290c878787613364565b600f5493975091955093509150610100900460ff16801561293b5750601b546001600160a01b03888116911614155b1561294a5761294a83856134bb565b612955878783613639565b811561296657612966873084613639565b50505050505050565b6129798282611c0e565b6112835760008281526006602090815260408083206001600160a01b03851684529091529020805460ff191660011790556129b13390565b6001600160a01b0316816001600160a01b0316837f2f8788117e7eff1d82e926ec794901d17c78024a50270940304540a733656f0d60405160405180910390a45050565b6129ff8282611c0e565b156112835760008281526006602090815260408083206001600160a01b0385168085529252808320805460ff1916905551339285917ff6391f5c32d9c69d2a47ea670b442974b53935d1edc7fd64eb21e047a839171b9190a45050565b6001600160a01b038216612abc5760405162461bcd60e51b815260206004820152602160248201527f45524332303a206275726e2066726f6d20746865207a65726f206164647265736044820152607360f81b6064820152608401611151565b6001600160a01b03821660009081526020819052604090205481811015612b305760405162461bcd60e51b815260206004820152602260248201527f45524332303a206275726e20616d6f756e7420657863656564732062616c616e604482015261636560f01b6064820152608401611151565b6001600160a01b0383166000908152602081905260408120838303905560028054849290612b5f908490613f42565b90915550506040518281526000906001600160a01b038516907fddf252ad1be2c89b69c2b068fc378daa952ba7f163c4a11628f55a4df523b3ef9060200160405180910390a3505050565b6005546001600160a01b031633146116855760405162461bcd60e51b815260206004820181905260248201527f4f776e61626c653a2063616c6c6572206973206e6f7420746865206f776e65726044820152606401611151565b600580546001600160a01b038381166001600160a01b0319831681179093556040519116919082907f8be0079c531659141344cd1fd0a4f28419497f9722a3daafe3b4186f6b6457e090600090a35050565b604080516080810182526007548152600854602082015260095491810191909152600a546060820152600090612c8b90613807565b905090565b80471015612ce05760405162461bcd60e51b815260206004820152601d60248201527f416464726573733a20696e73756666696369656e742062616c616e63650000006044820152606401611151565b6000826001600160a01b03168260405160006040518083038185875af1925050503d8060008114612d2d576040519150601f19603f3d011682016040523d82523d6000602084013e612d32565b606091505b50509050806110da5760405162461bcd60e51b815260206004820152603a60248201527f416464726573733a20756e61626c6520746f2073656e642076616c75652c207260448201527f6563697069656e74206d617920686176652072657665727465640000000000006064820152608401611151565b60408051608081018252600b548152600c546020820152600d5491810191909152600e546060820152600090612c8b90613807565b612de88282611c0e565b61128357612e00816001600160a01b031660146125ab565b612e0b8360206125ab565b604051602001612e1c929190613f55565b60408051601f198184030181529082905262461bcd60e51b825261115191600401613b83565b60008111612eab5760405162461bcd60e51b815260206004820152603060248201527f546f6b656e3a205472616e7366657220616d6f756e74206d757374206265206760448201526f726561746572207468616e207a65726f60801b6064820152608401611151565b612eb5838361383b565b612f0b57600f5460ff16612f0b5760405162461bcd60e51b815260206004820152601a60248201527f546f6b656e3a2054726164696e67206e6f7420656e61626c65640000000000006044820152606401611151565b601b546001600160a01b038481169116036130c7576001600160a01b03821660009081526022602052604090205460ff16612fa957601d54811115612fa95760405162461bcd60e51b815260206004820152602e60248201527f546f6b656e3a20726563697069656e7420616d6f756e74206d757374206e6f7460448201526d20657863656564206d617842757960901b6064820152608401611151565b6001600160a01b03821660009081526025602052604090205460ff1661301357602054612feb836001600160a01b031660009081526020819052604090205490565b612ff59083613e9c565b11156130135760405162461bcd60e51b815260040161115190613fca565b61301c82611472565b6110da576012546001600160a01b0383166000908152602760205260409020546130469190613e9c565b42116130a95760405162461bcd60e51b815260206004820152602c60248201527f546f6b656e3a20726563697069656e74206d757374207265737420626574776560448201526b656e207472616e736665727360a01b6064820152608401611151565b506001600160a01b0316600090815260276020526040902042905550565b601b546001600160a01b03838116911603613214576001600160a01b03831660009081526023602052604090205460ff1661316357601e548111156131635760405162461bcd60e51b815260206004820152602c60248201527f546f6b656e3a2073656e64657220616d6f756e74206d757374206e6f7420657860448201526b18d95959081b585e14d95b1b60a21b6064820152608401611151565b61316c83611472565b6110da576012546001600160a01b0384166000908152602860205260409020546131969190613e9c565b42116131f65760405162461bcd60e51b815260206004820152602960248201527f546f6b656e3a2073656e646572206d7573742072657374206265747765656e206044820152687472616e736665727360b81b6064820152608401611151565b50506001600160a01b03166000908152602860205260409020429055565b6001600160a01b03831660009081526024602052604090205460ff166132ba576001600160a01b03821660009081526024602052604090205460ff166132ba57601f548111156132ba5760405162461bcd60e51b815260206004820152602b60248201527f546f6b656e3a2073656e64657220616d6f756e74206d757374206e6f7420657860448201526a63656564206d617857325760a81b6064820152608401611151565b6001600160a01b03821660009081526025602052604090205460ff16613324576020546132fc836001600160a01b031660009081526020819052604090205490565b6133069083613e9c565b11156133245760405162461bcd60e51b815260040161115190613fca565b61332d83611472565b6110da5761333a82611472565b6131f6576012546001600160a01b0384166000908152602860205260409020546131969190613e9c565b61338f6040518060800160405280600081526020016000815260200160008152602001600081525090565b60008060006133bf6040518060800160405280600081526020016000815260200160008152602001600081525090565b60006133cb898961383b565b806133d8575060115460ff165b156133e557506000613482565b6133ef898961387e565b156133fd5750601554613482565b601b546001600160a01b038a811691160361344c57604080516080810182526007548152600854602082015260095491810191909152600a5460608201529150613445612c56565b9050613482565b60408051608081018252600b548152600c546020820152600d5491810191909152600e546060820152915061347f612da9565b90505b60006064613490838a613f14565b61349a919061401f565b905060006134a8828a613f42565b939b929a50909850919650945050505050565b60115460ff16611283576011805460ff19166001179055306000908152602081905260408120549050601054811061362a574760006134fb856002613f14565b90506000818560600151856135109190613f14565b61351a919061401f565b905060006135288286613f42565b90506135338161389a565b600061353f8547613f42565b905060008760600151856135539190613f42565b61355d908361401f565b905060008860600151826135719190613f14565b905061357d85826139f4565b885160009061358d846002613f14565b6135979190613f14565b6016549091506135b19082906001600160a01b0316613ac9565b60208a01516000906135c4856002613f14565b6135ce9190613f14565b6017549091506135e89082906001600160a01b0316613ac9565b60408b01516000906135fb866002613f14565b6136059190613f14565b60185490915061361f9082906001600160a01b0316613ac9565b505050505050505050505b506011805460ff191690555050565b6001600160a01b03831661369d5760405162461bcd60e51b815260206004820152602560248201527f45524332303a207472616e736665722066726f6d20746865207a65726f206164604482015264647265737360d81b6064820152608401611151565b6001600160a01b0382166136ff5760405162461bcd60e51b815260206004820152602360248201527f45524332303a207472616e7366657220746f20746865207a65726f206164647260448201526265737360e81b6064820152608401611151565b6001600160a01b038316600090815260208190526040902054818110156137775760405162461bcd60e51b815260206004820152602660248201527f45524332303a207472616e7366657220616d6f756e7420657863656564732062604482015265616c616e636560d01b6064820152608401611151565b6001600160a01b038085166000908152602081905260408082208585039055918516815290812080548492906137ae908490613e9c565b92505081905550826001600160a01b0316846001600160a01b03167fddf252ad1be2c89b69c2b068fc378daa952ba7f163c4a11628f55a4df523b3ef846040516137fa91815260200190565b60405180910390a3610fb1565b600081606001518260400151836020015184600001516138279190613e9c565b6138319190613e9c565b610ec79190613e9c565b6001600160a01b03821660009081526021602052604081205460ff168061274757506001600160a01b03821660009081526021602052604090205460ff16612747565b600061388a838361383b565b1580156127475750612747613ad9565b60408051600280825260608201835260009260208301908036833701905050905030816000815181106138cf576138cf613e57565b6001600160a01b03928316602091820292909201810191909152601c54604080516315ab88c960e31b81529051919093169263ad5c46489260048083019391928290030181865afa158015613928573d6000803e3d6000fd5b505050506040513d601f19601f8201168201806040525081019061394c9190614041565b8160018151811061395f5761395f613e57565b6001600160a01b039283166020918202929092010152601c546139859130911684612758565b601c5460405163791ac94760e01b81526001600160a01b039091169063791ac947906139be90859060009086903090429060040161405e565b600060405180830381600087803b1580156139d857600080fd5b505af11580156139ec573d6000803e3d6000fd5b505050505050565b601c54613a0c9030906001600160a01b031684612758565b601c546001600160a01b031663f305d719823085600080613a356005546001600160a01b031690565b60405160e088901b6001600160e01b03191681526001600160a01b03958616600482015260248101949094526044840192909252606483015290911660848201524260a482015260c40160606040518083038185885af1158015613a9d573d6000803e3d6000fd5b50505050506040513d601f19601f82011682018060405250810190613ac291906140cf565b5050505050565b8115611283576112838183612c90565b6000601454601354613aeb9190613e9c565b431115905090565b6001600160a01b038116811461146f57600080fd5b8035613b1381613af3565b919050565b600060208284031215613b2a57600080fd5b813561274781613af3565b600060208284031215613b4757600080fd5b81356001600160e01b03198116811461274757600080fd5b60005b83811015613b7a578181015183820152602001613b62565b50506000910152565b6020815260008251806020840152613ba2816040850160208701613b5f565b601f01601f19169190910160400192915050565b634e487b7160e01b600052604160045260246000fd5b801515811461146f57600080fd5b8035613b1381613bcc565b60008060408385031215613bf857600080fd5b823567ffffffffffffffff80821115613c1057600080fd5b818501915085601f830112613c2457600080fd5b8135602082821115613c3857613c38613bb6565b8160051b604051601f19603f83011681018181108682111715613c5d57613c5d613bb6565b604052928352818301935084810182019289841115613c7b57600080fd5b948201945b83861015613ca057613c9186613b08565b85529482019493820193613c80565b9650613caf9050878201613bda565b9450505050509250929050565b60008060408385031215613ccf57600080fd5b8235613cda81613af3565b946020939093013593505050565b60008060408385031215613cfb57600080fd5b8235613d0681613af3565b91506020830135613d1681613bcc565b809150509250929050565b600080600060608486031215613d3657600080fd5b8335613d4181613af3565b92506020840135613d5181613af3565b929592945050506040919091013590565b600060208284031215613d7457600080fd5b5035919050565b60008060408385031215613d8e57600080fd5b823591506020830135613d1681613af3565b60008060008060808587031215613db657600080fd5b5050823594602084013594506040840135936060013592509050565b600060208284031215613de457600080fd5b813561274781613bcc565b60008060408385031215613e0257600080fd5b8235613e0d81613af3565b91506020830135613d1681613af3565b600181811c90821680613e3157607f821691505b602082108103613e5157634e487b7160e01b600052602260045260246000fd5b50919050565b634e487b7160e01b600052603260045260246000fd5b634e487b7160e01b600052601160045260246000fd5b600060018201613e9557613e95613e6d565b5060010190565b80820180821115610ec757610ec7613e6d565b60208082526028908201527f546f6b656e3a2073756d206f66207461782063616e206e6f74206578636565646040820152670409a82b0bea882b60c31b606082015260800190565b600060208284031215613f0957600080fd5b815161274781613bcc565b8082028115828204841417610ec757610ec7613e6d565b600081613f3a57613f3a613e6d565b506000190190565b81810381811115610ec757610ec7613e6d565b7f416363657373436f6e74726f6c3a206163636f756e7420000000000000000000815260008351613f8d816017850160208801613b5f565b7001034b99036b4b9b9b4b733903937b6329607d1b6017918401918201528351613fbe816028840160208801613b5f565b01602801949350505050565b60208082526035908201527f546f6b656e3a20726563697069656e742062616c616e6365206d757374206e6f6040820152741d08195e18d95959081b585e121bdb19131a5b5a5d605a1b606082015260800190565b60008261403c57634e487b7160e01b600052601260045260246000fd5b500490565b60006020828403121561405357600080fd5b815161274781613af3565b600060a082018783526020878185015260a0604085015281875180845260c086019150828901935060005b818110156140ae5784516001600160a01b031683529383019391830191600101614089565b50506001600160a01b03969096166060850152505050608001529392505050565b6000806000606084860312156140e457600080fd5b835192506020840151915060408401519050925092509256fea2646970667358221220aaf085cb58110d89ab018cdef052ec92b762d3d41668ae64c6535500e89e78ca64736f6c63430008110033",
    "linkReferences": {},
    "deployedLinkReferences": {}
}